{
  "address": "0xCf7Ed3AccA5a467e9e704C703E8D87F634fB0Fc9",
  "abi": [
    {
      "inputs": [
        {
          "internalType": "contract ERC20Mintable",
          "name": "_token",
          "type": "address"
        },
        {
          "internalType": "uint256",
          "name": "_supplyRatePerBlock",
          "type": "uint256"
        }
      ],
      "stateMutability": "nonpayable",
      "type": "constructor"
    },
    {
      "anonymous": false,
      "inputs": [
        {
          "indexed": true,
          "internalType": "address",
          "name": "owner",
          "type": "address"
        },
        {
          "indexed": true,
          "internalType": "address",
          "name": "spender",
          "type": "address"
        },
        {
          "indexed": false,
          "internalType": "uint256",
          "name": "value",
          "type": "uint256"
        }
      ],
      "name": "Approval",
      "type": "event"
    },
    {
      "anonymous": false,
      "inputs": [
        {
          "indexed": true,
          "internalType": "address",
          "name": "from",
          "type": "address"
        },
        {
          "indexed": true,
          "internalType": "address",
          "name": "to",
          "type": "address"
        },
        {
          "indexed": false,
          "internalType": "uint256",
          "name": "value",
          "type": "uint256"
        }
      ],
      "name": "Transfer",
      "type": "event"
    },
    {
      "inputs": [],
      "name": "accrue",
      "outputs": [],
      "stateMutability": "nonpayable",
      "type": "function"
    },
    {
      "inputs": [
        {
          "internalType": "uint256",
          "name": "amount",
          "type": "uint256"
        }
      ],
      "name": "accrueCustom",
      "outputs": [],
      "stateMutability": "nonpayable",
      "type": "function"
    },
    {
      "inputs": [
        {
          "internalType": "address",
          "name": "owner",
          "type": "address"
        },
        {
          "internalType": "address",
          "name": "spender",
          "type": "address"
        }
      ],
      "name": "allowance",
      "outputs": [
        {
          "internalType": "uint256",
          "name": "",
          "type": "uint256"
        }
      ],
      "stateMutability": "view",
      "type": "function"
    },
    {
      "inputs": [
        {
          "internalType": "address",
          "name": "spender",
          "type": "address"
        },
        {
          "internalType": "uint256",
          "name": "amount",
          "type": "uint256"
        }
      ],
      "name": "approve",
      "outputs": [
        {
          "internalType": "bool",
          "name": "",
          "type": "bool"
        }
      ],
      "stateMutability": "nonpayable",
      "type": "function"
    },
    {
      "inputs": [
        {
          "internalType": "address",
          "name": "account",
          "type": "address"
        }
      ],
      "name": "balanceOf",
      "outputs": [
        {
          "internalType": "uint256",
          "name": "",
          "type": "uint256"
        }
      ],
      "stateMutability": "view",
      "type": "function"
    },
    {
      "inputs": [
        {
          "internalType": "address",
          "name": "account",
          "type": "address"
        }
      ],
      "name": "balanceOfUnderlying",
      "outputs": [
        {
          "internalType": "uint256",
          "name": "",
          "type": "uint256"
        }
      ],
      "stateMutability": "view",
      "type": "function"
    },
    {
      "inputs": [
        {
          "internalType": "uint256",
          "name": "amount",
          "type": "uint256"
        }
      ],
      "name": "burn",
      "outputs": [],
      "stateMutability": "nonpayable",
      "type": "function"
    },
    {
      "inputs": [
        {
          "internalType": "uint256",
          "name": "tokens",
          "type": "uint256"
        }
      ],
      "name": "cTokenValueOf",
      "outputs": [
        {
          "internalType": "uint256",
          "name": "",
          "type": "uint256"
        }
      ],
      "stateMutability": "view",
      "type": "function"
    },
    {
      "inputs": [],
      "name": "decimals",
      "outputs": [
        {
          "internalType": "uint8",
          "name": "",
          "type": "uint8"
        }
      ],
      "stateMutability": "view",
      "type": "function"
    },
    {
      "inputs": [
        {
          "internalType": "address",
          "name": "spender",
          "type": "address"
        },
        {
          "internalType": "uint256",
          "name": "subtractedValue",
          "type": "uint256"
        }
      ],
      "name": "decreaseAllowance",
      "outputs": [
        {
          "internalType": "bool",
          "name": "",
          "type": "bool"
        }
      ],
      "stateMutability": "nonpayable",
      "type": "function"
    },
    {
      "inputs": [],
      "name": "exchangeRateCurrent",
      "outputs": [
        {
          "internalType": "uint256",
          "name": "",
          "type": "uint256"
        }
      ],
      "stateMutability": "view",
      "type": "function"
    },
    {
      "inputs": [],
      "name": "getCash",
      "outputs": [
        {
          "internalType": "uint256",
          "name": "",
          "type": "uint256"
        }
      ],
      "stateMutability": "view",
      "type": "function"
    },
    {
      "inputs": [
        {
          "internalType": "address",
          "name": "spender",
          "type": "address"
        },
        {
          "internalType": "uint256",
          "name": "addedValue",
          "type": "uint256"
        }
      ],
      "name": "increaseAllowance",
      "outputs": [
        {
          "internalType": "bool",
          "name": "",
          "type": "bool"
        }
      ],
      "stateMutability": "nonpayable",
      "type": "function"
    },
    {
      "inputs": [
        {
          "internalType": "uint256",
          "name": "amount",
          "type": "uint256"
        }
      ],
      "name": "mint",
      "outputs": [
        {
          "internalType": "uint256",
          "name": "",
          "type": "uint256"
        }
      ],
      "stateMutability": "nonpayable",
      "type": "function"
    },
    {
      "inputs": [],
      "name": "name",
      "outputs": [
        {
          "internalType": "string",
          "name": "",
          "type": "string"
        }
      ],
      "stateMutability": "view",
      "type": "function"
    },
    {
      "inputs": [
        {
          "internalType": "uint256",
          "name": "requestedAmount",
          "type": "uint256"
        }
      ],
      "name": "redeemUnderlying",
      "outputs": [
        {
          "internalType": "uint256",
          "name": "",
          "type": "uint256"
        }
      ],
      "stateMutability": "nonpayable",
      "type": "function"
    },
    {
      "inputs": [
        {
          "internalType": "uint256",
          "name": "_supplyRatePerBlock",
          "type": "uint256"
        }
      ],
      "name": "setSupplyRateMantissa",
      "outputs": [],
      "stateMutability": "nonpayable",
      "type": "function"
    },
    {
      "inputs": [],
      "name": "supplyRatePerBlock",
      "outputs": [
        {
          "internalType": "uint256",
          "name": "",
          "type": "uint256"
        }
      ],
      "stateMutability": "view",
      "type": "function"
    },
    {
      "inputs": [],
      "name": "symbol",
      "outputs": [
        {
          "internalType": "string",
          "name": "",
          "type": "string"
        }
      ],
      "stateMutability": "view",
      "type": "function"
    },
    {
      "inputs": [],
      "name": "totalSupply",
      "outputs": [
        {
          "internalType": "uint256",
          "name": "",
          "type": "uint256"
        }
      ],
      "stateMutability": "view",
      "type": "function"
    },
    {
      "inputs": [
        {
          "internalType": "address",
          "name": "recipient",
          "type": "address"
        },
        {
          "internalType": "uint256",
          "name": "amount",
          "type": "uint256"
        }
      ],
      "name": "transfer",
      "outputs": [
        {
          "internalType": "bool",
          "name": "",
          "type": "bool"
        }
      ],
      "stateMutability": "nonpayable",
      "type": "function"
    },
    {
      "inputs": [
        {
          "internalType": "address",
          "name": "sender",
          "type": "address"
        },
        {
          "internalType": "address",
          "name": "recipient",
          "type": "address"
        },
        {
          "internalType": "uint256",
          "name": "amount",
          "type": "uint256"
        }
      ],
      "name": "transferFrom",
      "outputs": [
        {
          "internalType": "bool",
          "name": "",
          "type": "bool"
        }
      ],
      "stateMutability": "nonpayable",
      "type": "function"
    },
    {
      "inputs": [],
      "name": "underlying",
      "outputs": [
        {
          "internalType": "contract ERC20Mintable",
          "name": "",
          "type": "address"
        }
      ],
      "stateMutability": "view",
      "type": "function"
    }
  ],
  "transactionHash": "0x1b212c7d44071e5e5ac11f7843bee012dcbf4d7089b6440a599ca44ae7f3daca",
  "args": [
    "0x9fE46736679d2D9a65F0992F2272dE9f3c7fa6e0",
    "8888888888888"
  ],
  "solcInputHash": "7cdc182d41699770d1f19390689291f5",
  "bytecode": "0x608060405234801561001057600080fd5b506040516114ce3803806114ce83398101604081905261002f916100b2565b6001600160a01b0382166100895760405162461bcd60e51b815260206004820152601460248201527f746f6b656e206973206e6f7420646566696e6564000000000000000000000000604482015260640160405180910390fd5b606680546001600160a01b0319166001600160a01b0393909316929092179091556067556100ec565b600080604083850312156100c557600080fd5b82516001600160a01b03811681146100dc57600080fd5b6020939093015192949293505050565b6113d3806100fb6000396000f3fe608060405234801561001057600080fd5b506004361061014d5760003560e01c80636f307dc3116100c3578063a457c2d71161007c578063a457c2d7146102c5578063a9059cbb146102d8578063ae9d70b0146102eb578063bd6d894d146102f3578063dd62ed3e146102fb578063f8ba4cff1461033457600080fd5b80636f307dc31461023057806370a082311461025b5780637dabc3ce14610284578063852a12e31461029757806395d89b41146102aa578063a0712d68146102b257600080fd5b8063395093511161011557806339509351146101c75780633af9e669146101da5780633b1d21a2146101ed57806342966c68146101f55780634c1fb6331461020a5780635a2c37ca1461021d57600080fd5b806306fdde0314610152578063095ea7b31461017057806318160ddd1461019357806323b872dd146101a5578063313ce567146101b8575b600080fd5b61015a61033c565b604051610167919061128d565b60405180910390f35b61018361017e36600461120f565b6103ce565b6040519015158152602001610167565b6035545b604051908152602001610167565b6101836101b33660046111d3565b6103e5565b60405160128152602001610167565b6101836101d536600461120f565b610494565b6101976101e8366004611185565b6104d0565b6101976104fa565b61020861020336600461125b565b61057b565b005b61020861021836600461125b565b610604565b61020861022b36600461125b565b606755565b606654610243906001600160a01b031681565b6040516001600160a01b039091168152602001610167565b610197610269366004611185565b6001600160a01b031660009081526033602052604090205490565b61019761029236600461125b565b61063b565b6101976102a536600461125b565b61064e565b61015a610738565b6101976102c036600461125b565b610747565b6101836102d336600461120f565b6108e2565b6101836102e636600461120f565b61097b565b606754610197565b610197610988565b6101976103093660046111a0565b6001600160a01b03918216600090815260346020908152604080832093909416825291909152205490565b610208610a29565b60606036805461034b90611352565b80601f016020809104026020016040519081016040528092919081815260200182805461037790611352565b80156103c45780601f10610399576101008083540402835291602001916103c4565b820191906000526020600020905b8154815290600101906020018083116103a757829003601f168201915b5050505050905090565b60006103db338484610af7565b5060015b92915050565b60006103f2848484610c1c565b6001600160a01b03841660009081526034602090815260408083203384529091529020548281101561047c5760405162461bcd60e51b815260206004820152602860248201527f45524332303a207472616e7366657220616d6f756e74206578636565647320616044820152676c6c6f77616e636560c01b60648201526084015b60405180910390fd5b6104898533858403610af7565b506001949350505050565b3360008181526034602090815260408083206001600160a01b038716845290915281205490916103db9185906104cb9086906112e2565b610af7565b6001600160a01b0381166000908152603360205260408120546103df906104f5610988565b610deb565b6066546040516370a0823160e01b81523060048201526000916001600160a01b0316906370a082319060240160206040518083038186803b15801561053e57600080fd5b505afa158015610552573d6000803e3d6000fd5b505050506040513d601f19601f820116820180604052508101906105769190611274565b905090565b606654604051632770a7eb60e21b8152306004820152602481018390526001600160a01b0390911690639dc29fac906044015b602060405180830381600087803b1580156105c857600080fd5b505af11580156105dc573d6000803e3d6000fd5b505050506040513d601f19601f820116820180604052508101906106009190611239565b5050565b6066546040516340c10f1960e01b8152306004820152602481018390526001600160a01b03909116906340c10f19906044016105ae565b60006103df82610649610988565b610e14565b60008061065a8361063b565b90506106663382610e35565b60665460405163a9059cbb60e01b8152336004820152602481018590526001600160a01b039091169063a9059cbb90604401602060405180830381600087803b1580156106b257600080fd5b505af11580156106c6573d6000803e3d6000fd5b505050506040513d601f19601f820116820180604052508101906106ea9190611239565b6107325760405162461bcd60e51b8152602060048201526019602482015278636f756c64206e6f74207472616e7366657220746f6b656e7360381b6044820152606401610473565b50919050565b60606037805461034b90611352565b60008061075360355490565b61075e5750816107fd565b6066546040516370a0823160e01b81523060048201526000916107e59186916001600160a01b0316906370a082319060240160206040518083038186803b1580156107a857600080fd5b505afa1580156107bc573d6000803e3d6000fd5b505050506040513d601f19601f820116820180604052508101906107e09190611274565b610f7b565b90506107f96107f360355490565b82610deb565b9150505b6108073382610f90565b6066546040516323b872dd60e01b8152336004820152306024820152604481018590526001600160a01b03909116906323b872dd90606401602060405180830381600087803b15801561085957600080fd5b505af115801561086d573d6000803e3d6000fd5b505050506040513d601f19601f820116820180604052508101906108919190611239565b6108d95760405162461bcd60e51b8152602060048201526019602482015278636f756c64206e6f74207472616e7366657220746f6b656e7360381b6044820152606401610473565b50600092915050565b3360009081526034602090815260408083206001600160a01b0386168452909152812054828110156109645760405162461bcd60e51b815260206004820152602560248201527f45524332303a2064656372656173656420616c6c6f77616e63652062656c6f77604482015264207a65726f60d81b6064820152608401610473565b6109713385858403610af7565b5060019392505050565b60006103db338484610c1c565b600061099360355490565b6109a45750670de0b6b3a764000090565b6066546040516370a0823160e01b8152306004820152610576916001600160a01b0316906370a082319060240160206040518083038186803b1580156109e957600080fd5b505afa1580156109fd573d6000803e3d6000fd5b505050506040513d601f19601f82011682018060405250810190610a219190611274565b603554610f7b565b6066546040516370a0823160e01b81523060048201526000916064916001600160a01b03909116906370a082319060240160206040518083038186803b158015610a7257600080fd5b505afa158015610a86573d6000803e3d6000fd5b505050506040513d601f19601f82011682018060405250810190610aaa9190611274565b610ab590607861131c565b610abf91906112fa565b6066546040516340c10f1960e01b8152306004820152602481018390529192506001600160a01b0316906340c10f19906044016105ae565b6001600160a01b038316610b595760405162461bcd60e51b8152602060048201526024808201527f45524332303a20617070726f76652066726f6d20746865207a65726f206164646044820152637265737360e01b6064820152608401610473565b6001600160a01b038216610bba5760405162461bcd60e51b815260206004820152602260248201527f45524332303a20617070726f766520746f20746865207a65726f206164647265604482015261737360f01b6064820152608401610473565b6001600160a01b0383811660008181526034602090815260408083209487168084529482529182902085905590518481527f8c5be1e5ebec7d5bd14f71427d1e84f3dd0314c0f7b2291e5b200ac8c7c3b92591015b60405180910390a3505050565b6001600160a01b038316610c805760405162461bcd60e51b815260206004820152602560248201527f45524332303a207472616e736665722066726f6d20746865207a65726f206164604482015264647265737360d81b6064820152608401610473565b6001600160a01b038216610ce25760405162461bcd60e51b815260206004820152602360248201527f45524332303a207472616e7366657220746f20746865207a65726f206164647260448201526265737360e81b6064820152608401610473565b6001600160a01b03831660009081526033602052604090205481811015610d5a5760405162461bcd60e51b815260206004820152602660248201527f45524332303a207472616e7366657220616d6f756e7420657863656564732062604482015265616c616e636560d01b6064820152608401610473565b6001600160a01b03808516600090815260336020526040808220858503905591851681529081208054849290610d919084906112e2565b92505081905550826001600160a01b0316846001600160a01b03167fddf252ad1be2c89b69c2b068fc378daa952ba7f163c4a11628f55a4df523b3ef84604051610ddd91815260200190565b60405180910390a350505050565b600080610df8838561106f565b9050610e0c81670de0b6b3a76400006110f5565b949350505050565b600080610e29670de0b6b3a76400008561106f565b9050610e0c81846110f5565b6001600160a01b038216610e955760405162461bcd60e51b815260206004820152602160248201527f45524332303a206275726e2066726f6d20746865207a65726f206164647265736044820152607360f81b6064820152608401610473565b6001600160a01b03821660009081526033602052604090205481811015610f095760405162461bcd60e51b815260206004820152602260248201527f45524332303a206275726e20616d6f756e7420657863656564732062616c616e604482015261636560f01b6064820152608401610473565b6001600160a01b0383166000908152603360205260408120838303905560358054849290610f3890849061133b565b90915550506040518281526000906001600160a01b038516907fddf252ad1be2c89b69c2b068fc378daa952ba7f163c4a11628f55a4df523b3ef90602001610c0f565b600080610e2984670de0b6b3a764000061106f565b6001600160a01b038216610fe65760405162461bcd60e51b815260206004820152601f60248201527f45524332303a206d696e7420746f20746865207a65726f2061646472657373006044820152606401610473565b8060356000828254610ff891906112e2565b90915550506001600160a01b038216600090815260336020526040812080548392906110259084906112e2565b90915550506040518181526001600160a01b038316906000907fddf252ad1be2c89b69c2b068fc378daa952ba7f163c4a11628f55a4df523b3ef9060200160405180910390a35050565b60008261107e575060006103df565b600061108a838561131c565b90508261109785836112fa565b146110ee5760405162461bcd60e51b815260206004820152602160248201527f536166654d6174683a206d756c7469706c69636174696f6e206f766572666c6f6044820152607760f81b6064820152608401610473565b9392505050565b60006110ee83836040518060400160405280601a81526020017f536166654d6174683a206469766973696f6e206279207a65726f000000000000815250600081836111535760405162461bcd60e51b8152600401610473919061128d565b50600061116084866112fa565b95945050505050565b80356001600160a01b038116811461118057600080fd5b919050565b60006020828403121561119757600080fd5b6110ee82611169565b600080604083850312156111b357600080fd5b6111bc83611169565b91506111ca60208401611169565b90509250929050565b6000806000606084860312156111e857600080fd5b6111f184611169565b92506111ff60208501611169565b9150604084013590509250925092565b6000806040838503121561122257600080fd5b61122b83611169565b946020939093013593505050565b60006020828403121561124b57600080fd5b815180151581146110ee57600080fd5b60006020828403121561126d57600080fd5b5035919050565b60006020828403121561128657600080fd5b5051919050565b600060208083528351808285015260005b818110156112ba5785810183015185820160400152820161129e565b818111156112cc576000604083870101525b50601f01601f1916929092016040019392505050565b600082198211156112f5576112f5611387565b500190565b60008261131757634e487b7160e01b600052601260045260246000fd5b500490565b600081600019048311821515161561133657611336611387565b500290565b60008282101561134d5761134d611387565b500390565b600181811c9082168061136657607f821691505b6020821081141561073257634e487b7160e01b600052602260045260246000fd5b634e487b7160e01b600052601160045260246000fdfea26469706673582212209f060977ea34d018a6491cfe7aaca815e0dae50826145bf313120db976b05b4164736f6c63430008060033",
  "devdoc": {
    "kind": "dev",
    "methods": {
      "allowance(address,address)": {
        "details": "See {IERC20-allowance}."
      },
      "approve(address,uint256)": {
        "details": "See {IERC20-approve}. Requirements: - `spender` cannot be the zero address."
      },
      "balanceOf(address)": {
        "details": "See {IERC20-balanceOf}."
      },
      "decimals()": {
        "details": "Returns the number of decimals used to get its user representation. For example, if `decimals` equals `2`, a balance of `505` tokens should be displayed to a user as `5,05` (`505 / 10 ** 2`). Tokens usually opt for a value of 18, imitating the relationship between Ether and Wei. This is the value {ERC20} uses, unless this function is overridden; NOTE: This information is only used for _display_ purposes: it in no way affects any of the arithmetic of the contract, including {IERC20-balanceOf} and {IERC20-transfer}."
      },
      "decreaseAllowance(address,uint256)": {
        "details": "Atomically decreases the allowance granted to `spender` by the caller. This is an alternative to {approve} that can be used as a mitigation for problems described in {IERC20-approve}. Emits an {Approval} event indicating the updated allowance. Requirements: - `spender` cannot be the zero address. - `spender` must have allowance for the caller of at least `subtractedValue`."
      },
      "increaseAllowance(address,uint256)": {
        "details": "Atomically increases the allowance granted to `spender` by the caller. This is an alternative to {approve} that can be used as a mitigation for problems described in {IERC20-approve}. Emits an {Approval} event indicating the updated allowance. Requirements: - `spender` cannot be the zero address."
      },
      "name()": {
        "details": "Returns the name of the token."
      },
      "symbol()": {
        "details": "Returns the symbol of the token, usually a shorter version of the name."
      },
      "totalSupply()": {
        "details": "See {IERC20-totalSupply}."
      },
      "transfer(address,uint256)": {
        "details": "See {IERC20-transfer}. Requirements: - `recipient` cannot be the zero address. - the caller must have a balance of at least `amount`."
      },
      "transferFrom(address,address,uint256)": {
        "details": "See {IERC20-transferFrom}. Emits an {Approval} event indicating the updated allowance. This is not required by the EIP. See the note at the beginning of {ERC20}. Requirements: - `sender` and `recipient` cannot be the zero address. - `sender` must have a balance of at least `amount`. - the caller must have allowance for ``sender``'s tokens of at least `amount`."
      }
    },
    "version": 1
  },
  "userdoc": {
    "kind": "user",
    "methods": {},
    "version": 1
  },
  "storageLayout": {
    "storage": [
      {
        "astId": 130,
        "contract": "contracts/import/test/CTokenMock.sol:CTokenMock",
        "label": "_initialized",
        "offset": 0,
        "slot": "0",
        "type": "t_bool"
      },
      {
        "astId": 133,
        "contract": "contracts/import/test/CTokenMock.sol:CTokenMock",
        "label": "_initializing",
        "offset": 1,
        "slot": "0",
        "type": "t_bool"
      },
      {
        "astId": 2656,
        "contract": "contracts/import/test/CTokenMock.sol:CTokenMock",
        "label": "__gap",
        "offset": 0,
        "slot": "1",
        "type": "t_array(t_uint256)50_storage"
      },
      {
        "astId": 247,
        "contract": "contracts/import/test/CTokenMock.sol:CTokenMock",
        "label": "_balances",
        "offset": 0,
        "slot": "51",
        "type": "t_mapping(t_address,t_uint256)"
      },
      {
        "astId": 253,
        "contract": "contracts/import/test/CTokenMock.sol:CTokenMock",
        "label": "_allowances",
        "offset": 0,
        "slot": "52",
        "type": "t_mapping(t_address,t_mapping(t_address,t_uint256))"
      },
      {
        "astId": 255,
        "contract": "contracts/import/test/CTokenMock.sol:CTokenMock",
        "label": "_totalSupply",
        "offset": 0,
        "slot": "53",
        "type": "t_uint256"
      },
      {
        "astId": 257,
        "contract": "contracts/import/test/CTokenMock.sol:CTokenMock",
        "label": "_name",
        "offset": 0,
        "slot": "54",
        "type": "t_string_storage"
      },
      {
        "astId": 259,
        "contract": "contracts/import/test/CTokenMock.sol:CTokenMock",
        "label": "_symbol",
        "offset": 0,
        "slot": "55",
        "type": "t_string_storage"
      },
      {
        "astId": 800,
        "contract": "contracts/import/test/CTokenMock.sol:CTokenMock",
        "label": "__gap",
        "offset": 0,
        "slot": "56",
        "type": "t_array(t_uint256)45_storage"
      },
      {
        "astId": 13622,
        "contract": "contracts/import/test/CTokenMock.sol:CTokenMock",
        "label": "ownerTokenAmounts",
        "offset": 0,
        "slot": "101",
        "type": "t_mapping(t_address,t_uint256)"
      },
      {
        "astId": 13625,
        "contract": "contracts/import/test/CTokenMock.sol:CTokenMock",
        "label": "underlying",
        "offset": 0,
        "slot": "102",
        "type": "t_contract(ERC20Mintable)14695"
      },
      {
        "astId": 13627,
        "contract": "contracts/import/test/CTokenMock.sol:CTokenMock",
        "label": "__supplyRatePerBlock",
        "offset": 0,
        "slot": "103",
        "type": "t_uint256"
      }
    ],
    "types": {
      "t_address": {
        "encoding": "inplace",
        "label": "address",
        "numberOfBytes": "20"
      },
      "t_array(t_uint256)45_storage": {
        "base": "t_uint256",
        "encoding": "inplace",
        "label": "uint256[45]",
        "numberOfBytes": "1440"
      },
      "t_array(t_uint256)50_storage": {
        "base": "t_uint256",
        "encoding": "inplace",
        "label": "uint256[50]",
        "numberOfBytes": "1600"
      },
      "t_bool": {
        "encoding": "inplace",
        "label": "bool",
        "numberOfBytes": "1"
      },
      "t_contract(ERC20Mintable)14695": {
        "encoding": "inplace",
        "label": "contract ERC20Mintable",
        "numberOfBytes": "20"
      },
      "t_mapping(t_address,t_mapping(t_address,t_uint256))": {
        "encoding": "mapping",
        "key": "t_address",
        "label": "mapping(address => mapping(address => uint256))",
        "numberOfBytes": "32",
        "value": "t_mapping(t_address,t_uint256)"
      },
      "t_mapping(t_address,t_uint256)": {
        "encoding": "mapping",
        "key": "t_address",
        "label": "mapping(address => uint256)",
        "numberOfBytes": "32",
        "value": "t_uint256"
      },
      "t_string_storage": {
        "encoding": "bytes",
        "label": "string",
        "numberOfBytes": "32"
      },
      "t_uint256": {
        "encoding": "inplace",
        "label": "uint256",
        "numberOfBytes": "32"
      }
    }
  }
}