{
  "address": "0xDc64a140Aa3E981100a9becA4E685f962f0cF6C9",
  "abi": [
    {
      "inputs": [
        {
          "internalType": "contract CTokenInterface",
          "name": "_cToken",
          "type": "address"
        }
      ],
      "stateMutability": "nonpayable",
      "type": "constructor"
    },
    {
      "anonymous": false,
      "inputs": [
        {
          "indexed": true,
          "internalType": "address",
          "name": "cToken",
          "type": "address"
        }
      ],
      "name": "CTokenYieldSourceInitialized",
      "type": "event"
    },
    {
      "inputs": [
        {
          "internalType": "address",
          "name": "addr",
          "type": "address"
        }
      ],
      "name": "balanceOfToken",
      "outputs": [
        {
          "internalType": "uint256",
          "name": "",
          "type": "uint256"
        }
      ],
      "stateMutability": "nonpayable",
      "type": "function"
    },
    {
      "inputs": [
        {
          "internalType": "address",
          "name": "",
          "type": "address"
        }
      ],
      "name": "balances",
      "outputs": [
        {
          "internalType": "uint256",
          "name": "",
          "type": "uint256"
        }
      ],
      "stateMutability": "view",
      "type": "function"
    },
    {
      "inputs": [],
      "name": "cToken",
      "outputs": [
        {
          "internalType": "contract CTokenInterface",
          "name": "",
          "type": "address"
        }
      ],
      "stateMutability": "view",
      "type": "function"
    },
    {
      "inputs": [],
      "name": "depositToken",
      "outputs": [
        {
          "internalType": "address",
          "name": "",
          "type": "address"
        }
      ],
      "stateMutability": "view",
      "type": "function"
    },
    {
      "inputs": [
        {
          "internalType": "uint256",
          "name": "redeemAmount",
          "type": "uint256"
        }
      ],
      "name": "redeemToken",
      "outputs": [
        {
          "internalType": "uint256",
          "name": "",
          "type": "uint256"
        }
      ],
      "stateMutability": "nonpayable",
      "type": "function"
    },
    {
      "inputs": [
        {
          "internalType": "uint256",
          "name": "amount",
          "type": "uint256"
        },
        {
          "internalType": "address",
          "name": "to",
          "type": "address"
        }
      ],
      "name": "supplyTokenTo",
      "outputs": [],
      "stateMutability": "nonpayable",
      "type": "function"
    }
  ],
  "transactionHash": "0x38025a244ac4c5ad95b6f27b577c5ab43a64a547ac3a5b4f18ee26a116bdbb80",
  "args": [
    "0xCf7Ed3AccA5a467e9e704C703E8D87F634fB0Fc9"
  ],
  "solcInputHash": "7cdc182d41699770d1f19390689291f5",
  "bytecode": "0x608060405234801561001057600080fd5b50604051610c77380380610c7783398101604081905261002f9161007c565b600180546001600160a01b0319166001600160a01b0383169081179091556040517f62a988a69bb7d6a98d15b99860212aeed699dd1c1c09f6474948e77f0d4addcb90600090a2506100ac565b60006020828403121561008e57600080fd5b81516001600160a01b03811681146100a557600080fd5b9392505050565b610bbc806100bb6000396000f3fe608060405234801561001057600080fd5b50600436106100625760003560e01c8063013054c21461006757806327e235e31461008d57806369e527da146100ad57806387a6eeef146100d8578063b99152d0146100ed578063c89039c514610100575b600080fd5b61007a610075366004610a86565b610108565b6040519081526020015b60405180910390f35b61007a61009b366004610a2a565b60006020819052908152604090205481565b6001546100c0906001600160a01b031681565b6040516001600160a01b039091168152602001610084565b6100eb6100e6366004610ab8565b6104b8565b005b61007a6100fb366004610a2a565b61081c565b6100c0610967565b6001546040516370a0823160e01b815230600482015260009182916001600160a01b03909116906370a082319060240160206040518083038186803b15801561015057600080fd5b505afa158015610164573d6000803e3d6000fd5b505050506040513d601f19601f820116820180604052508101906101889190610a9f565b90506000610194610967565b6040516370a0823160e01b81523060048201526001600160a01b0391909116906370a082319060240160206040518083038186803b1580156101d557600080fd5b505afa1580156101e9573d6000803e3d6000fd5b505050506040513d601f19601f8201168201806040525081019061020d9190610a9f565b60015460405163852a12e360e01b8152600481018790529192506001600160a01b03169063852a12e390602401602060405180830381600087803b15801561025457600080fd5b505af1158015610268573d6000803e3d6000fd5b505050506040513d601f19601f8201168201806040525081019061028c9190610a9f565b156102de5760405162461bcd60e51b815260206004820152601f60248201527f43546f6b656e5969656c64536f757263652f72656465656d2d6661696c65640060448201526064015b60405180910390fd5b6001546040516370a0823160e01b8152306004820152600091610367916001600160a01b03909116906370a082319060240160206040518083038186803b15801561032857600080fd5b505afa15801561033c573d6000803e3d6000fd5b505050506040513d601f19601f820116820180604052508101906103609190610a9f565b8490610976565b905060006103f783610377610967565b6040516370a0823160e01b81523060048201526001600160a01b0391909116906370a08231906024015b60206040518083038186803b1580156103b957600080fd5b505afa1580156103cd573d6000803e3d6000fd5b505050506040513d601f19601f820116820180604052508101906103f19190610a9f565b90610976565b336000908152602081905260409020549091506104149083610976565b3360009081526020819052604090205561042c610967565b60405163a9059cbb60e01b8152336004820152602481018390526001600160a01b03919091169063a9059cbb90604401602060405180830381600087803b15801561047657600080fd5b505af115801561048a573d6000803e3d6000fd5b505050506040513d601f19601f820116820180604052508101906104ae9190610a64565b5095945050505050565b6104c0610967565b6040516323b872dd60e01b8152336004820152306024820152604481018490526001600160a01b0391909116906323b872dd90606401602060405180830381600087803b15801561051057600080fd5b505af1158015610524573d6000803e3d6000fd5b505050506040513d601f19601f820116820180604052508101906105489190610a64565b50600160009054906101000a90046001600160a01b03166001600160a01b0316636f307dc36040518163ffffffff1660e01b815260040160206040518083038186803b15801561059757600080fd5b505afa1580156105ab573d6000803e3d6000fd5b505050506040513d601f19601f820116820180604052508101906105cf9190610a47565b60015460405163095ea7b360e01b81526001600160a01b0391821660048201526024810185905291169063095ea7b390604401602060405180830381600087803b15801561061c57600080fd5b505af1158015610630573d6000803e3d6000fd5b505050506040513d601f19601f820116820180604052508101906106549190610a64565b506001546040516370a0823160e01b81523060048201526000916001600160a01b0316906370a082319060240160206040518083038186803b15801561069957600080fd5b505afa1580156106ad573d6000803e3d6000fd5b505050506040513d601f19601f820116820180604052508101906106d19190610a9f565b60015460405163140e25ad60e31b8152600481018690529192506001600160a01b03169063a0712d6890602401602060405180830381600087803b15801561071857600080fd5b505af115801561072c573d6000803e3d6000fd5b505050506040513d601f19601f820116820180604052508101906107509190610a9f565b1561079d5760405162461bcd60e51b815260206004820152601d60248201527f43546f6b656e5969656c64536f757263652f6d696e742d6661696c656400000060448201526064016102d5565b6001546040516370a0823160e01b81523060048201526000916107d49184916001600160a01b0316906370a08231906024016103a1565b6001600160a01b0384166000908152602081905260409020549091506107fa9082610989565b6001600160a01b03909316600090815260208190526040902092909255505050565b600154604051633af9e66960e01b815230600482015260009182916001600160a01b0390911690633af9e66990602401602060405180830381600087803b15801561086657600080fd5b505af115801561087a573d6000803e3d6000fd5b505050506040513d601f19601f8201168201806040525081019061089e9190610a9f565b6001546040516370a0823160e01b81523060048201529192506000916001600160a01b03909116906370a082319060240160206040518083038186803b1580156108e757600080fd5b505afa1580156108fb573d6000803e3d6000fd5b505050506040513d601f19601f8201168201806040525081019061091f9190610a9f565b905080610930575060009392505050565b6001600160a01b03841660009081526020819052604090205461095f9082906109599085610995565b906109a1565b949350505050565b60006109716109ad565b905090565b60006109828284610b41565b9392505050565b60006109828284610ae8565b60006109828284610b22565b60006109828284610b00565b60015460408051636f307dc360e01b815290516000926001600160a01b031691636f307dc3916004808301926020929190829003018186803b1580156109f257600080fd5b505afa158015610a06573d6000803e3d6000fd5b505050506040513d601f19601f820116820180604052508101906109719190610a47565b600060208284031215610a3c57600080fd5b813561098281610b6e565b600060208284031215610a5957600080fd5b815161098281610b6e565b600060208284031215610a7657600080fd5b8151801515811461098257600080fd5b600060208284031215610a9857600080fd5b5035919050565b600060208284031215610ab157600080fd5b5051919050565b60008060408385031215610acb57600080fd5b823591506020830135610add81610b6e565b809150509250929050565b60008219821115610afb57610afb610b58565b500190565b600082610b1d57634e487b7160e01b600052601260045260246000fd5b500490565b6000816000190483118215151615610b3c57610b3c610b58565b500290565b600082821015610b5357610b53610b58565b500390565b634e487b7160e01b600052601160045260246000fd5b6001600160a01b0381168114610b8357600080fd5b5056fea2646970667358221220eadc9544146e781f1b38d93b881db1630871284f3a1ec9fae9c36569832b906d64736f6c63430008060033",
  "devdoc": {
    "details": "THIS CONTRACT IS EXPERIMENTAL!  USE AT YOUR OWN RISK",
    "kind": "dev",
    "methods": {
      "balanceOfToken(address)": {
        "returns": {
          "_0": "The underlying balance of asset tokens"
        }
      },
      "constructor": {
        "params": {
          "_cToken": "Address of the Compound cToken interface"
        }
      },
      "depositToken()": {
        "returns": {
          "_0": "The ERC20 asset token"
        }
      },
      "redeemToken(uint256)": {
        "params": {
          "redeemAmount": "The amount of yield-bearing tokens to be redeemed"
        },
        "returns": {
          "_0": "The actual amount of tokens that were redeemed."
        }
      },
      "supplyTokenTo(uint256,address)": {
        "params": {
          "amount": "The amount of asset tokens to be supplied"
        }
      }
    },
    "title": "Defines the functions used to interact with a yield source.  The Prize Pool inherits this contract.",
    "version": 1
  },
  "userdoc": {
    "kind": "user",
    "methods": {
      "balanceOfToken(address)": {
        "notice": "Returns the total balance (in asset tokens).  This includes the deposits and interest."
      },
      "cToken()": {
        "notice": "Interface for the Yield-bearing cToken by Compound"
      },
      "constructor": {
        "notice": "Initializes the Yield Service with the Compound cToken"
      },
      "depositToken()": {
        "notice": "Returns the ERC20 asset token used for deposits."
      },
      "redeemToken(uint256)": {
        "notice": "Redeems asset tokens from the yield source."
      },
      "supplyTokenTo(uint256,address)": {
        "notice": "Supplies asset tokens to the yield source."
      }
    },
    "notice": "Prize Pools subclasses need to implement this interface so that yield can be generated.",
    "version": 1
  },
  "storageLayout": {
    "storage": [
      {
        "astId": 15627,
        "contract": "contracts/import/yield-source/CTokenYieldSource.sol:CTokenYieldSource",
        "label": "balances",
        "offset": 0,
        "slot": "0",
        "type": "t_mapping(t_address,t_uint256)"
      },
      {
        "astId": 15631,
        "contract": "contracts/import/yield-source/CTokenYieldSource.sol:CTokenYieldSource",
        "label": "cToken",
        "offset": 0,
        "slot": "1",
        "type": "t_contract(CTokenInterface)8538"
      }
    ],
    "types": {
      "t_address": {
        "encoding": "inplace",
        "label": "address",
        "numberOfBytes": "20"
      },
      "t_contract(CTokenInterface)8538": {
        "encoding": "inplace",
        "label": "contract CTokenInterface",
        "numberOfBytes": "20"
      },
      "t_mapping(t_address,t_uint256)": {
        "encoding": "mapping",
        "key": "t_address",
        "label": "mapping(address => uint256)",
        "numberOfBytes": "32",
        "value": "t_uint256"
      },
      "t_uint256": {
        "encoding": "inplace",
        "label": "uint256",
        "numberOfBytes": "32"
      }
    }
  }
}