{
  "address": "0x5FC8d32690cc91D4c39d9d3abcBD16989F875707",
  "abi": [
    {
      "inputs": [],
      "stateMutability": "nonpayable",
      "type": "constructor"
    },
    {
      "anonymous": false,
      "inputs": [
        {
          "indexed": false,
          "internalType": "address",
          "name": "proxy",
          "type": "address"
        }
      ],
      "name": "ProxyCreated",
      "type": "event"
    },
    {
      "inputs": [],
      "name": "create",
      "outputs": [
        {
          "internalType": "contract ClaimableDrawPrizeStrategyHarness",
          "name": "",
          "type": "address"
        }
      ],
      "stateMutability": "nonpayable",
      "type": "function"
    },
    {
      "inputs": [
        {
          "internalType": "address",
          "name": "_logic",
          "type": "address"
        },
        {
          "internalType": "bytes",
          "name": "_data",
          "type": "bytes"
        }
      ],
      "name": "deployMinimal",
      "outputs": [
        {
          "internalType": "address",
          "name": "proxy",
          "type": "address"
        }
      ],
      "stateMutability": "nonpayable",
      "type": "function"
    },
    {
      "inputs": [],
      "name": "instance",
      "outputs": [
        {
          "internalType": "contract ClaimableDrawPrizeStrategyHarness",
          "name": "",
          "type": "address"
        }
      ],
      "stateMutability": "view",
      "type": "function"
    }
  ],
  "transactionHash": "0xf160d8b596247c2d1f8b39307e3c8e774e7d64ae3bb19c4e9475079ebc5efb2b",
  "args": [],
  "solcInputHash": "b3f16b26ce5bbb86e7ef5bf9dd11ea21",
  "bytecode": "0x608060405234801561001057600080fd5b5060405161001d9061005f565b604051809103906000f080158015610039573d6000803e3d6000fd5b50600080546001600160a01b0319166001600160a01b039290921691909117905561006c565b615208806103e283390190565b6103678061007b6000396000f3fe608060405234801561001057600080fd5b50600436106100415760003560e01c8063022ec09514610046578063b3eeb5e214610075578063efc81a8c14610088575b600080fd5b600054610059906001600160a01b031681565b6040516001600160a01b03909116815260200160405180910390f35b610059610083366004610210565b610090565b6100596101e6565b6000808360601b9050604051733d602d80600a3d3981f3363d3d373d3d3d363d7360601b81528160148201526e5af43d82803e903d91602b57fd5bf360881b60288201526037816000f06040516001600160a01b03821681529093507efffc2da0b561cae30d9826d37709e9421c4725faebc226cbbb7ef5fc5e7349915060200160405180910390a18251156101df576000826001600160a01b03168460405161013a91906102e0565b6000604051808303816000865af19150503d8060008114610177576040519150601f19603f3d011682016040523d82523d6000602084013e61017c565b606091505b50509050806101dd5760405162461bcd60e51b8152602060048201526024808201527f50726f7879466163746f72792f636f6e7374727563746f722d63616c6c2d66616044820152631a5b195960e21b606482015260840160405180910390fd5b505b5092915050565b60008054604080516020810190915282815261020b916001600160a01b031690610090565b905090565b6000806040838503121561022357600080fd5b82356001600160a01b038116811461023a57600080fd5b9150602083013567ffffffffffffffff8082111561025757600080fd5b818501915085601f83011261026b57600080fd5b81358181111561027d5761027d61031b565b604051601f8201601f19908116603f011681019083821181831017156102a5576102a561031b565b816040528281528860208487010111156102be57600080fd5b8260208601602083013760006020848301015280955050505050509250929050565b6000825160005b8181101561030157602081860181015185830152016102e7565b81811115610310576000828501525b509190910192915050565b634e487b7160e01b600052604160045260246000fdfea2646970667358221220e026ccf652632305c7a18207328795ed9c627714f8622567dc418c007d5996f964736f6c63430008060033608060405234801561001057600080fd5b506151e8806100206000396000f3fe608060405234801561001057600080fd5b50600436106103ba5760003560e01c806375619ab5116101f4578063b4c619b71161011a578063d605787b116100ad578063f2fde38b1161007c578063f2fde38b14610831578063f97700e214610844578063fbf0953e14610857578063ffa1ad741461086a57600080fd5b8063d605787b146107c6578063dfb2f13b146107d9578063eefc8ad1146107e1578063f210a9f31461080157600080fd5b8063c42b42a0116100e9578063c42b42a014610790578063c48ddbcb14610798578063c6853270146107ab578063d5ad6bf6146107be57600080fd5b8063b4c619b71461074f578063b9ee1e0514610762578063c25a9c321461076a578063c2f19ee81461077d57600080fd5b80638da5cb5b11610192578063aba964c811610161578063aba964c814610706578063acca5b9514610719578063b024468214610729578063b22109571461073c57600080fd5b80638da5cb5b146106c457806394144c6b146106d55780639417783f146106de57806395e5f9ee146106fe57600080fd5b8063884a4448116101ce578063884a4448146106765780638aa3ec6f146106895780638ae611a11461069c5780638d5f10c4146106af57600080fd5b806375619ab51461062b5780637f4296d71461065b578063876f5c7e1461066e57600080fd5b8063500db70d116102e45780636b6ff1fc11610277578063715018a611610246578063715018a6146105ff578063719ce73e1461060757806372f33ea91461061a578063738bbea81461062357600080fd5b80636b6ff1fc146105b05780636be51c4f146105c35780636bea5344146105d65780636cc25db7146105ec57600080fd5b8063642d43db116102b3578063642d43db146105445780636696822114610582578063671137c4146105955780636a74f107146105a857600080fd5b8063500db70d14610503578063590bdc8714610516578063605e25ac1461052957806362c77a611461053c57600080fd5b806330fcdf411161035c5780634aba4f6b1161032b5780634aba4f6b146104cd5780634c169f4f146104d55780634d7f3db0146104dd5780634e5d08e0146104f057600080fd5b806330fcdf411461047f57806342d092091461049257806347bed998146104a75780634940805f146104ba57600080fd5b8063111070e411610398578063111070e41461043357806322f8e566146104435780632a7ad609146104585780632c8fe73d1461047757600080fd5b806301b48e34146103bf57806301ffc9a7146103e55780630d847fc414610408575b600080fd5b6103d26103cd36600461470c565b61089b565b6040519081526020015b60405180910390f35b6103f86103f3366004614605565b6108b4565b60405190151581526020016103dc565b60735461041b906001600160a01b031681565b6040516001600160a01b0390911681526020016103dc565b606a5463ffffffff1615156103f8565b61045661045136600461470c565b607855565b005b606a5463ffffffff165b60405163ffffffff90911681526020016103dc565b6103d26108ed565b61045661048d3660046142e6565b6108fc565b61049a610a12565b6040516103dc9190614ba4565b6103d26104b536600461470c565b610a1e565b60765461041b906001600160a01b031681565b6103f8610a29565b610456610aaf565b6104566104eb36600461444d565b610bb5565b6104566104fe3660046142e6565b610c95565b60685461041b906001600160a01b031681565b6103d2610524366004614373565b610d0f565b6104566105373660046142e6565b610e6a565b61049a610f75565b610456610552366004614917565b606a805463ffffffff9283166401000000000267ffffffffffffffff199091169290931691909117919091179055565b61045661059036600461452e565b610f81565b6104566105a336600461462f565b611040565b6103f861108b565b6103d26105be3660046148c2565b6110ad565b60655461041b906001600160a01b031681565b606a54640100000000900463ffffffff16610462565b60675461041b906001600160a01b031681565b610456611149565b60665461041b906001600160a01b031681565b6103d2606d5481565b6103f861117f565b6104566106393660046142e6565b607780546001600160a01b0319166001600160a01b0392909216919091179055565b6104566106693660046142e6565b6111c5565b6103f8611267565b61045661068436600461470c565b611286565b6104566106973660046142e6565b6112c1565b6103f86106aa36600461473e565b6113d0565b6106b76114ab565b6040516103dc9190614bf1565b6033546001600160a01b031661041b565b6103d2606c5481565b6106f16106ec3660046142e6565b611530565b6040516103dc9190614c6b565b6103f861159c565b61041b6107143660046142e6565b6115a6565b606b546104629063ffffffff1681565b61045661073736600461462f565b61170a565b61045661074a366004614320565b611780565b61045661075d36600461470c565b61189c565b6104566118a5565b61045661077836600461456f565b611b6c565b60745461041b906001600160a01b031681565b6103d2611ef8565b6104566107a6366004614668565b611f75565b6104566107b93660046148fa565b612190565b6103d26121cb565b60695461041b906001600160a01b031681565b6104566121d5565b6107f46107ef36600461470c565b6124b6565b6040516103dc9190614f5c565b61045661080f3660046142e6565b607380546001600160a01b0319166001600160a01b0392909216919091179055565b61045661083f3660046142e6565b612536565b6104566108523660046147c2565b6125ce565b6104566108653660046146d8565b6129a5565b61088e604051806040016040528060058152602001640332e342e360dc1b81525081565b6040516103dc9190614ca3565b60006108ae6108a8612b83565b83612bbf565b92915050565b60006001600160e01b031982166301ffc9a760e01b14806108ae57506001600160e01b03198216600162a1cb1960e01b03191492915050565b60006108f7612be8565b905090565b6033546001600160a01b0316331461092f5760405162461bcd60e51b815260040161092690614e46565b60405180910390fd5b610937612bfa565b6001600160a01b038116158061096257506109626001600160a01b03821663266fce1f60e11b612c44565b6109c85760405162461bcd60e51b815260206004820152603160248201527f506572696f6469635072697a6553747261746567792f6265666f72654177617260448201527019131a5cdd195b995c8b5a5b9d985b1a59607a1b6064820152608401610926565b607380546001600160a01b0319166001600160a01b0383169081179091556040517fc4feff61630891ea2cb42a54fbe3ff2e65422f2ed17323ac6b65f4521112e87e90600090a250565b60606108f76070612c60565b60006108ae82612d4f565b606954606a54604051630e866e6f60e21b815263ffffffff90911660048201526000916001600160a01b031690633a19b9bc9060240160206040518083038186803b158015610a7757600080fd5b505afa158015610a8b573d6000803e3d6000fd5b505050506040513d601f19601f820116820180604052508101906108f791906145e3565b610ab761117f565b610b125760405162461bcd60e51b815260206004820152602660248201527f506572696f6469635072697a6553747261746567792f726e672d6e6f742d74696044820152651b59591bdd5d60d21b6064820152608401610926565b606a80546bffffffffffffffffffffffff19811690915560405163ffffffff80831692640100000000900416907fee6702c46c5618e6fc7e625c71f4c85df9c91d456cb16a3aea71ab83b1fee00590600090a160665460405163ffffffff83811682528416916001600160a01b03169033907fd50026ee0824513af20cdf5e72d1fbfbe8fd646ee0576378e080326f1a695e589060200160405180910390a45050565b6066546001600160a01b0316336001600160a01b031614610be85760405162461bcd60e51b815260040161092690614d6a565b6067546001600160a01b0383811691161415610c0657610c06612bfa565b6065546001600160a01b031615610c8f576065546040516304d7f3db60e41b81526001600160a01b038681166004830152602482018690528481166044830152838116606483015290911690634d7f3db0906084015b600060405180830381600087803b158015610c7657600080fd5b505af1158015610c8a573d6000803e3d6000fd5b505050505b50505050565b6033546001600160a01b0316331480610cc157506074546001600160a01b0316336001600160a01b0316145b80610cdf57506073546001600160a01b0316336001600160a01b0316145b610cfb5760405162461bcd60e51b815260040161092690614cd6565b610d03612bfa565b610d0c81612d8a565b50565b60675460765460405163590bdc8760e01b81526000926001600160a01b0390811692849291169063590bdc8790610d56908d908d908d908d908d908d908d90600401614ac8565b602060405180830381600087803b158015610d7057600080fd5b505af1158015610d84573d6000803e3d6000fd5b505050506040513d601f19601f82011682018060405250810190610da89190614725565b60665460405163358dc31d60e11b81526001600160a01b038d81166004830152602482018490528581166044830152929350911690636b1b863a90606401600060405180830381600087803b158015610e0057600080fd5b505af1158015610e14573d6000803e3d6000fd5b5050604080518481526001600160a01b0386811660208301528e1693507f7e6632ca16a0ac6cf28448500b1a17d96c8b8163ad4c4a9b44ef5386cc02779e92500160405180910390a29998505050505050505050565b6033546001600160a01b03163314610e945760405162461bcd60e51b815260040161092690614e46565b610e9c612bfa565b6001600160a01b0381161580610eca5750610eca6001600160a01b038216600162a1cb1960e01b0319612c44565b610f2b5760405162461bcd60e51b815260206004820152602c60248201527f506572696f6469635072697a6553747261746567792f746f6b656e2d6c69737460448201526b195b995c8b5a5b9d985b1a5960a21b6064820152608401610926565b606580546001600160a01b0319166001600160a01b0383169081179091556040517f9fc437aa70ad4ee5f33f6772bf338eed41e21b95435820817ab8b4df161ce4dd90600090a250565b60606108f7606e612c60565b6033546001600160a01b0316331480610fad57506074546001600160a01b0316336001600160a01b0316145b80610fcb57506073546001600160a01b0316336001600160a01b0316145b610fe75760405162461bcd60e51b815260040161092690614cd6565b610fef612bfa565b60005b8181101561103b5761102983838381811061100f5761100f61515f565b905060200201602081019061102491906142e6565b612d8a565b80611033816150f8565b915050610ff2565b505050565b6033546001600160a01b0316331461106a5760405162461bcd60e51b815260040161092690614e46565b611072612bfa565b61107e60708284612f9f565b611087826130bf565b5050565b600061109e606a5463ffffffff16151590565b80156108f757506108f7610a29565b607654604051631adbfc7f60e21b81526004810185905263ffffffff84166024820152604481018390526000916001600160a01b031690636b6ff1fc90606401602060405180830381600087803b15801561110757600080fd5b505af115801561111b573d6000803e3d6000fd5b505050506040513d601f19601f8201168201806040525081019061113f9190614725565b90505b9392505050565b6033546001600160a01b031633146111735760405162461bcd60e51b815260040161092690614e46565b61117d6000613117565b565b606a54600090600160401b900463ffffffff1661119c5750600090565b606a54606b546111bc9163ffffffff600160401b9091048116911661505c565b60785411905090565b6033546001600160a01b031633146111ef5760405162461bcd60e51b815260040161092690614e46565b6111f7612bfa565b606a5463ffffffff161561121d5760405162461bcd60e51b815260040161092690614f19565b606980546001600160a01b0319166001600160a01b0383169081179091556040517ff935763cc7c57ee8ed6318ed71e756cca0731294c9f46ff5b386f36d6ff1417a90600090a250565b6000611271613169565b80156108f7575050606a5463ffffffff161590565b6033546001600160a01b031633146112b05760405162461bcd60e51b815260040161092690614e46565b6112b8612bfa565b610d0c8161317d565b6033546001600160a01b031633146112eb5760405162461bcd60e51b815260040161092690614e46565b6112f3612bfa565b6001600160a01b038116158061131e575061131e6001600160a01b038216632ba8396360e11b612c44565b6113865760405162461bcd60e51b815260206004820152603360248201527f506572696f6469635072697a6553747261746567792f7072697a6553747261746044820152721959de531a5cdd195b995c8b5a5b9d985b1a59606a1b6064820152608401610926565b607480546001600160a01b0319166001600160a01b0383169081179091556040517fda05d50a3a1ec0ffab059f1d457ae59f68ccfb3ffbb4dad283c516f9103d584b90600090a250565b60008054610100900460ff16806113ea575060005460ff16155b6114065760405162461bcd60e51b815260040161092690614df8565b600054610100900460ff16158015611428576000805461ffff19166101011790555b611430613226565b60606114418a8a8a8a8a8a876125ce565b607680546001600160a01b0319166001600160a01b0386169081179091556040517fa744b77f2e208c890d6ab268dc34dda84c4182bfeca23a4052831b1a414c7cef90600090a26001925050801561149f576000805461ff00191690555b50979650505050505050565b60606075805480602002602001604051908101604052809291908181526020016000905b8282101561152757600084815260209081902060408051606081018252918501546001600160a01b0381168352600160a01b810461ffff1683850152600160b01b900460ff16908201528252600190920191016114cf565b50505050905090565b6001600160a01b03811660009081526072602090815260409182902080548351818402810184019094528084526060939283018282801561159057602002820191906000526020600020905b81548152602001906001019080831161157c575b50505050509050919050565b60006108f7613169565b6033546000906001600160a01b031633146115d35760405162461bcd60e51b815260040161092690614e46565b6001600160a01b03821661163f5760405162461bcd60e51b815260206004820152602d60248201527f436c61696d61626c65447261772f636c61696d61626c652d647261772d6e6f7460448201526c2d7a65726f2d6164647265737360981b6064820152608401610926565b6076546001600160a01b03838116911614156116b35760405162461bcd60e51b815260206004820152602d60248201527f436c61696d61626c65447261772f6578697374696e672d636c61696d61626c6560448201526c2d647261772d6164647265737360981b6064820152608401610926565b6040516001600160a01b038316907fa96795123a84d88293d426abc7fd21bd6f9daa3e25869355bb65226ecb81c42a90600090a250607680546001600160a01b0319166001600160a01b038316179055805b919050565b6033546001600160a01b031633146117345760405162461bcd60e51b815260040161092690614e46565b61173c612bfa565b611748606e8284612f9f565b6040516001600160a01b038316907f58982464497acdab11ad29d39907e076b0d3b8daf1d9b734174c7c3a2a0e8c7490600090a25050565b6066546001600160a01b0316336001600160a01b0316146117b35760405162461bcd60e51b815260040161092690614d6a565b826001600160a01b0316846001600160a01b031614156118245760405162461bcd60e51b815260206004820152602660248201527f506572696f6469635072697a6553747261746567792f7472616e736665722d746044820152653796b9b2b63360d11b6064820152608401610926565b6067546001600160a01b038281169116141561184257611842612bfa565b6065546001600160a01b031615610c8f5760655460405163b221095760e01b81526001600160a01b03868116600483015285811660248301526044820185905283811660648301529091169063b221095790608401610c5c565b610d0c816132a1565b6118ad613169565b61190d5760405162461bcd60e51b815260206004820152602b60248201527f506572696f6469635072697a6553747261746567792f7072697a652d7065726960448201526a37b216b737ba16b7bb32b960a91b6064820152608401610926565b606a5463ffffffff16156119775760405162461bcd60e51b815260206004820152602b60248201527f506572696f6469635072697a6553747261746567792f726e672d616c7265616460448201526a1e4b5c995c5d595cdd195960aa1b6064820152608401610926565b60695460408051630d37b53760e01b8152815160009384936001600160a01b0390911692630d37b5379260048083019392829003018186803b1580156119bc57600080fd5b505afa1580156119d0573d6000803e3d6000fd5b505050506040513d601f19601f820116820180604052508101906119f4919061441f565b90925090506001600160a01b03821615801590611a115750600081115b15611a3057606954611a30906001600160a01b038481169116836133bc565b6069546040805163433c53d960e11b8152815160009384936001600160a01b0390911692638678a7b2926004808301939282900301818787803b158015611a7657600080fd5b505af1158015611a8a573d6000803e3d6000fd5b505050506040513d601f19601f82011682018060405250810190611aae9190614945565b606a805463ffffffff8084166401000000000267ffffffffffffffff19909216908516171790559092509050611aeb611ae660785490565b613502565b606a80546bffffffff00000000000000001916600160401b63ffffffff93841602179055606654908316906001600160a01b03163360405163ffffffff851681526001600160a01b0391909116907f4d31e658dcf617bb3a3c8cf7c6dddb33f7030ac588e271631ecdb5d76c2e91ef9060200160405180910390a450505050565b6033546001600160a01b03163314611b965760405162461bcd60e51b815260040161092690614e46565b8060005b81811015611e46576000848483818110611bb657611bb661515f565b905060600201803603810190611bcc91906146bc565b90506001816040015160ff161115611bf65760405162461bcd60e51b815260040161092690614d22565b80516001600160a01b0316611c1d5760405162461bcd60e51b815260040161092690614daf565b6075548210611cae576075805460018101825560009190915281517f9a8d93986a7b9e6294572ea6736696119c195c1a9f5eae642d3c5fcd44e49dea90910180546020840151604085015160ff16600160b01b0260ff60b01b1961ffff909216600160a01b026001600160b01b03199093166001600160a01b03909516949094179190911716919091179055611dd1565b600060758381548110611cc357611cc361515f565b60009182526020918290206040805160608101825292909101546001600160a01b03808216808552600160a01b830461ffff1695850195909552600160b01b90910460ff1691830191909152845191935016141580611d325750806020015161ffff16826020015161ffff1614155b80611d4b5750806040015160ff16826040015160ff1614155b15611dc8578160758481548110611d6457611d6461515f565b60009182526020918290208351910180549284015160409094015160ff16600160b01b0260ff60b01b1961ffff909516600160a01b026001600160b01b03199094166001600160a01b03909316929092179290921792909216919091179055611dcf565b5050611e34565b505b8051602080830151604080850151815161ffff909316835260ff16928201929092529081018490526001600160a01b03909116907fc1bf93444a0055a24a7d0154b75fedf78edfe355c06a2ce8e47f9f39087205599060600160405180910390a2505b80611e3e816150f8565b915050611b9a565b505b607554811015611eca57607554600090611e64906001906150b5565b90506075805480611e7757611e77615149565b600082815260208120820160001990810180546001600160b81b031916905590910190915560405182917f99fa473fdf53414bcd014cf6e7509fc58c68f7b86174767faa6ad5100cd5bae591a250611e48565b6000611ed461356b565b90506103e8811115610c8f5760405162461bcd60e51b815260040161092690614e7b565b606654604080516318c1996d60e21b815290516000926001600160a01b03169163630665b4916004808301926020929190829003018186803b158015611f3d57600080fd5b505afa158015611f51573d6000803e3d6000fd5b505050506040513d601f19601f820116820180604052508101906108f79190614725565b6033546001600160a01b0316331480611fa157506074546001600160a01b0316336001600160a01b0316145b80611fbf57506073546001600160a01b0316336001600160a01b0316145b611fdb5760405162461bcd60e51b815260040161092690614cd6565b611fe3612bfa565b606654604051636a3fd4f960e01b81526001600160a01b03858116600483015290911690636a3fd4f99060240160206040518083038186803b15801561202857600080fd5b505afa15801561203c573d6000803e3d6000fd5b505050506040513d601f19601f8201168201806040525081019061206091906145e3565b61207c5760405162461bcd60e51b815260040161092690614ece565b6120966001600160a01b0384166380ac58cd60e01b612c44565b6120ee5760405162461bcd60e51b8152602060048201526024808201527f506572696f6469635072697a6553747261746567792f6572633732312d696e76604482015263185b1a5960e21b6064820152608401610926565b6120f9607084613607565b61210857612108607084613658565b60005b8181101561214757612135848484848181106121295761212961515f565b9050602002013561376a565b8061213f816150f8565b91505061210b565b50826001600160a01b03167f51541dc4b4c08a16085809cccdc4cc77d8000b60fbb00142e57f236d842986758383604051612183929190614c57565b60405180910390a2505050565b6033546001600160a01b031633146121ba5760405162461bcd60e51b815260040161092690614e46565b6121c2612bfa565b610d0c81613946565b60006108f7612b83565b606a5463ffffffff1661223a5760405162461bcd60e51b815260206004820152602760248201527f506572696f6469635072697a6553747261746567792f726e672d6e6f742d72656044820152661c5d595cdd195960ca1b6064820152608401610926565b612242610a29565b61229d5760405162461bcd60e51b815260206004820152602660248201527f506572696f6469635072697a6553747261746567792f726e672d6e6f742d636f6044820152656d706c65746560d01b6064820152608401610926565b606954606a546040516313a54bf360e31b815263ffffffff90911660048201526000916001600160a01b031690639d2a5f9890602401602060405180830381600087803b1580156122ed57600080fd5b505af1158015612301573d6000803e3d6000fd5b505050506040513d601f19601f820116820180604052508101906123259190614725565b606a80546bffffffffffffffffffffffff191690556073549091506001600160a01b0316156123b857607354606d5460405163266fce1f60e11b81526004810184905260248101919091526001600160a01b0390911690634cdf9c3e90604401600060405180830381600087803b15801561239f57600080fd5b505af11580156123b3573d6000803e3d6000fd5b505050505b6123c1816132a1565b6074546001600160a01b03161561243c57607454606d54604051632ba8396360e11b81526004810184905260248101919091526001600160a01b039091169063575072c690604401600060405180830381600087803b15801561242357600080fd5b505af1158015612437573d6000803e3d6000fd5b505050505b61244d61244860785490565b612d4f565b606d5560405181815233907f9c4163ece98173eab9a496c4db8bf3e2c8edcc5d2854377880597ccb858b7a9d9060200160405180910390a2606d5460405133907fc61852c20f0b03b31d782f3022f2bf20322ac17ce66c5349fb6e24740cdd645690600090a350565b6040805160608101825260008082526020820181905291810191909152607582815481106124e6576124e661515f565b60009182526020918290206040805160608101825291909201546001600160a01b038116825261ffff600160a01b8204169382019390935260ff600160b01b909304929092169082015292915050565b6033546001600160a01b031633146125605760405162461bcd60e51b815260040161092690614e46565b6001600160a01b0381166125c55760405162461bcd60e51b815260206004820152602660248201527f4f776e61626c653a206e6577206f776e657220697320746865207a65726f206160448201526564647265737360d01b6064820152608401610926565b610d0c81613117565b600054610100900460ff16806125e7575060005460ff16155b6126035760405162461bcd60e51b815260040161092690614df8565b600054610100900460ff16158015612625576000805461ffff19166101011790555b6001600160a01b03861661268d5760405162461bcd60e51b815260206004820152602960248201527f506572696f6469635072697a6553747261746567792f7072697a652d706f6f6c6044820152682d6e6f742d7a65726f60b81b6064820152608401610926565b6001600160a01b0385166126f15760405162461bcd60e51b815260206004820152602560248201527f506572696f6469635072697a6553747261746567792f7469636b65742d6e6f746044820152642d7a65726f60d81b6064820152608401610926565b6001600160a01b03841661275a5760405162461bcd60e51b815260206004820152602a60248201527f506572696f6469635072697a6553747261746567792f73706f6e736f72736869604482015269702d6e6f742d7a65726f60b01b6064820152608401610926565b6001600160a01b0383166127bb5760405162461bcd60e51b815260206004820152602260248201527f506572696f6469635072697a6553747261746567792f726e672d6e6f742d7a65604482015261726f60f01b6064820152608401610926565b606680546001600160a01b038089166001600160a01b0319928316179092556067805488841690831617905560698054868416908316179055606880549287169290911691909117905561280e8761317d565b612816613226565b6040516329965a1d60e01b815230600482018190527fb281fc8c12954d22544db45de3159a39272895b169a852b314f9cc762e44c53b60248301526044820152731820a4b7618bde71dce8cdc73aab6c95905fad24906329965a1d90606401600060405180830381600087803b15801561288f57600080fd5b505af11580156128a3573d6000803e3d6000fd5b505050506128b1606e6139f9565b60005b82518110156128f1576128df8382815181106128d2576128d261515f565b6020026020010151612d8a565b806128e9816150f8565b9150506128b4565b50606c879055606d88905561290660706139f9565b612911610708613946565b856001600160a01b03167ff9632d212436344a25150ff0c161dabf412aade556621c2dea146ca63ff643f589898888888860405161295496959493929190614f8d565b60405180910390a2606d5460405133907fc61852c20f0b03b31d782f3022f2bf20322ac17ce66c5349fb6e24740cdd645690600090a38015610c8a576000805461ff00191690555050505050505050565b6033546001600160a01b031633146129cf5760405162461bcd60e51b815260040161092690614e46565b60755460ff821610612a325760405162461bcd60e51b815260206004820152602660248201527f4d756c7469706c6557696e6e6572732f6e6f6e6578697374656e742d7072697a604482015265195cdc1b1a5d60d21b6064820152608401610926565b6001826040015160ff161115612a5a5760405162461bcd60e51b815260040161092690614d22565b81516001600160a01b0316612a815760405162461bcd60e51b815260040161092690614daf565b8160758260ff1681548110612a9857612a9861515f565b600091825260208083208451920180549185015160409095015160ff16600160b01b0260ff60b01b1961ffff909616600160a01b026001600160b01b03199093166001600160a01b0390941693909317919091179390931617909155612afc61356b565b90506103e8811115612b205760405162461bcd60e51b815260040161092690614e7b565b82600001516001600160a01b03167fc1bf93444a0055a24a7d0154b75fedf78edfe355c06a2ce8e47f9f390872055984602001518560400151856040516121839392919061ffff93909316835260ff918216602084015216604082015260600190565b600080612b8e612be8565b90506000612b9b60785490565b905081811115612bae5760009250505090565b612bb881836150b5565b9250505090565b600080612bd4670de0b6b3a764000085613a5c565b9050612be08184613adb565b949350505050565b6000606c54606d546108f7919061505c565b606a544390640100000000900463ffffffff161580612c285750606a54640100000000900463ffffffff1681105b610d0c5760405162461bcd60e51b815260040161092690614f19565b6000612c4f83613b1d565b801561114257506111428383613b50565b6060600082600001546001600160401b03811115612c8057612c80615175565b604051908082528060200260200182016040528015612ca9578160200160208202803683370190505b50600160008181529085016020526040812054919250906001600160a01b03165b6001600160a01b03811615801590612cec57506001600160a01b038116600114155b15612d465780838381518110612d0457612d0461515f565b6001600160a01b039283166020918202929092018101919091529181166000908152600187019092526040909120541681612d3e816150f8565b925050612cca565b50909392505050565b600080606c54606d5484612d6391906150b5565b612d6d9190615074565b9050606c5481612d7d9190615096565b606d54611142919061505c565b6001600160a01b0381163b612de15760405162461bcd60e51b815260206004820181905260248201527f506572696f6469635072697a6553747261746567792f65726332302d6e756c6c6044820152606401610926565b606654604051636a3fd4f960e01b81526001600160a01b03838116600483015290911690636a3fd4f99060240160206040518083038186803b158015612e2657600080fd5b505afa158015612e3a573d6000803e3d6000fd5b505050506040513d601f19601f82011682018060405250810190612e5e91906145e3565b612e7a5760405162461bcd60e51b815260040161092690614ece565b60408051600481526024810182526020810180516001600160e01b03166318160ddd60e01b179052905160009182916001600160a01b03851691612ebd91614aac565b600060405180830381855afa9150503d8060008114612ef8576040519150601f19603f3d011682016040523d82523d6000602084013e612efd565b606091505b509150915081612f5b5760405162461bcd60e51b815260206004820152602360248201527f506572696f6469635072697a6553747261746567792f65726332302d696e76616044820152621b1a5960ea1b6064820152608401610926565b612f66606e84613658565b6040516001600160a01b038416907fbcd6d991f3416e288bf59a2997b423772937b62c7ea7dd1a54af7771de1f741890600090a2505050565b6001600160a01b038116600114801590612fc157506001600160a01b03811615155b612fff5760405162461bcd60e51b815260206004820152600f60248201526e496e76616c6964206164647265737360881b6044820152606401610926565b6001600160a01b0382811660009081526001850160205260409020548116908216146130635760405162461bcd60e51b8152602060048201526013602482015272496e76616c696420707265764164647265737360681b6044820152606401610926565b6001600160a01b03818116600081815260018681016020526040808320805488871685529184208054929096166001600160a01b03199283161790955592909152825490911690915583546130b891906150b5565b9092555050565b6001600160a01b03811660009081526072602052604081206130e0916141e3565b6040516001600160a01b038216907fcd64d9dacd230c5ccf1278ea5332b0621aa28c950fb0e61c8fbc9e2011c88a3490600090a250565b603380546001600160a01b038381166001600160a01b0319831681179093556040519116919082907f8be0079c531659141344cd1fd0a4f28419497f9722a3daafe3b4186f6b6457e090600090a35050565b6000613173612be8565b6078541015905090565b600081116131ea5760405162461bcd60e51b815260206004820152603460248201527f506572696f6469635072697a6553747261746567792f7072697a652d706572696044820152736f642d677265617465722d7468616e2d7a65726f60601b6064820152608401610926565b606c8190556040518181527f0d379c1a7282461e725a9dc2d74e65246c77e98ae93835e26c2f1654c48ee4ec906020015b60405180910390a150565b600054610100900460ff168061323f575060005460ff16155b61325b5760405162461bcd60e51b815260040161092690614df8565b600054610100900460ff1615801561327d576000805461ffff19166101011790555b613285613c39565b61328d613ca3565b8015610d0c576000805461ff001916905550565b6066546040805163e6d8a94b60e01b815290516000926001600160a01b03169163e6d8a94b91600480830192602092919082900301818787803b1580156132e757600080fd5b505af11580156132fb573d6000803e3d6000fd5b505050506040513d601f19601f8201168201806040525081019061331f9190614725565b905061332a81613d03565b607654604051631adbfc7f60e21b81526004810185905263ffffffff42166024820152604481018390529192506001600160a01b031690636b6ff1fc90606401602060405180830381600087803b15801561338457600080fd5b505af1158015613398573d6000803e3d6000fd5b505050506040513d601f19601f8201168201806040525081019061103b9190614725565b8015806134455750604051636eb1769f60e11b81523060048201526001600160a01b03838116602483015284169063dd62ed3e9060440160206040518083038186803b15801561340b57600080fd5b505afa15801561341f573d6000803e3d6000fd5b505050506040513d601f19601f820116820180604052508101906134439190614725565b155b6134b05760405162461bcd60e51b815260206004820152603660248201527f5361666545524332303a20617070726f76652066726f6d206e6f6e2d7a65726f60448201527520746f206e6f6e2d7a65726f20616c6c6f77616e636560501b6064820152608401610926565b604080516001600160a01b038416602482015260448082018490528251808303909101815260649091019091526020810180516001600160e01b031663095ea7b360e01b17905261103b908490613dbb565b600063ffffffff8211156135675760405162461bcd60e51b815260206004820152602660248201527f53616665436173743a2076616c756520646f65736e27742066697420696e203360448201526532206269747360d01b6064820152608401610926565b5090565b6075546000908190815b818160ff1610156135ff57600060758260ff16815481106135985761359861515f565b60009182526020918290206040805160608101825292909101546001600160a01b0381168352600160a01b810461ffff16938301849052600160b01b900460ff169082015291506135e9908561505c565b93505080806135f790615113565b915050613575565b509092915050565b60006001600160a01b03821660011480159061362b57506001600160a01b03821615155b80156111425750506001600160a01b03908116600090815260019290920160205260409091205416151590565b6001600160a01b03811660011480159061367a57506001600160a01b03811615155b6136b85760405162461bcd60e51b815260206004820152600f60248201526e496e76616c6964206164647265737360881b6044820152606401610926565b6001600160a01b03818116600090815260018401602052604090205416156137125760405162461bcd60e51b815260206004820152600d60248201526c105b1c9958591e481859191959609a1b6044820152606401610926565b60016000818152838201602052604080822080546001600160a01b038681168086529385208054919092166001600160a01b03199182161790915592849052805490921617905582546137649161505c565b90915550565b6066546040516331a9108f60e11b8152600481018390526001600160a01b0391821691841690636352211e9060240160206040518083038186803b1580156137b157600080fd5b505afa1580156137c5573d6000803e3d6000fd5b505050506040513d601f19601f820116820180604052508101906137e99190614303565b6001600160a01b03161461384f5760405162461bcd60e51b815260206004820152602760248201527f506572696f6469635072697a6553747261746567792f756e617661696c61626c6044820152663296ba37b5b2b760c91b6064820152608401610926565b60005b6001600160a01b038316600090815260726020526040902054811015613919576001600160a01b038316600090815260726020526040902080548391908390811061389f5761389f61515f565b906000526020600020015414156139075760405162461bcd60e51b815260206004820152602660248201527f506572696f6469635072697a6553747261746567792f6572633732312d6475706044820152656c696361746560d01b6064820152608401610926565b80613911816150f8565b915050613852565b506001600160a01b0390911660009081526072602090815260408220805460018101825590835291200155565b603c8163ffffffff16116139b15760405162461bcd60e51b815260206004820152602c60248201527f506572696f6469635072697a6553747261746567792f726e672d74696d656f7560448201526b742d67742d36302d7365637360a01b6064820152608401610926565b606b805463ffffffff191663ffffffff83169081179091556040519081527f4f27f6f220ffad585e728389bc2f0f6b74eeebeb43f95f53752a647cb6e7e6879060200161321b565b805415613a375760405162461bcd60e51b815260206004820152600c60248201526b105b1c9958591e481a5b9a5d60a21b6044820152606401610926565b60016000818152918101602052604090912080546001600160a01b0319169091179055565b600082613a6b575060006108ae565b6000613a778385615096565b905082613a848583615074565b146111425760405162461bcd60e51b815260206004820152602160248201527f536166654d6174683a206d756c7469706c69636174696f6e206f766572666c6f6044820152607760f81b6064820152608401610926565b600061114283836040518060400160405280601a81526020017f536166654d6174683a206469766973696f6e206279207a65726f000000000000815250613e8d565b6000613b30826301ffc9a760e01b613b50565b80156108ae5750613b49826001600160e01b0319613b50565b1592915050565b604080516001600160e01b0319831660248083019190915282518083039091018152604490910182526020810180516001600160e01b03166301ffc9a760e01b179052905160009190829081906001600160a01b0387169061753090613bb7908690614aac565b6000604051808303818686fa925050503d8060008114613bf3576040519150601f19603f3d011682016040523d82523d6000602084013e613bf8565b606091505b5091509150602081511015613c1357600093505050506108ae565b818015613c2f575080806020019051810190613c2f91906145e3565b9695505050505050565b600054610100900460ff1680613c52575060005460ff16155b613c6e5760405162461bcd60e51b815260040161092690614df8565b600054610100900460ff1615801561328d576000805461ffff19166101011790558015610d0c576000805461ff001916905550565b600054610100900460ff1680613cbc575060005460ff16155b613cd85760405162461bcd60e51b815260040161092690614df8565b600054610100900460ff16158015613cfa576000805461ffff19166101011790555b61328d33613117565b6075546000908290825b81811015613db257600060758281548110613d2a57613d2a61515f565b600091825260208083206040805160608101825293909101546001600160a01b0381168452600160a01b810461ffff16928401839052600160b01b900460ff1690830152909250613d7c908690613ec4565b9050613d918260000151828460400151613ee1565b613d9b81886150b5565b965050508080613daa906150f8565b915050613d0d565b50929392505050565b6000613e10826040518060400160405280602081526020017f5361666545524332303a206c6f772d6c6576656c2063616c6c206661696c6564815250856001600160a01b0316613eec9092919063ffffffff16565b80519091501561103b5780806020019051810190613e2e91906145e3565b61103b5760405162461bcd60e51b815260206004820152602a60248201527f5361666545524332303a204552433230206f7065726174696f6e20646964206e6044820152691bdd081cdd58d8d9595960b21b6064820152608401610926565b60008183613eae5760405162461bcd60e51b81526004016109269190614ca3565b506000613ebb8486615074565b95945050505050565b60006103e8613ed761ffff841685615096565b6111429190615074565b61103b838383613efb565b606061113f8484600085614082565b60665460408051634eb1c24560e11b815290516000926001600160a01b031691639d63848a9160048083019286929190829003018186803b158015613f3f57600080fd5b505afa158015613f53573d6000803e3d6000fd5b505050506040513d6000823e601f3d908101601f19168201604052613f7b9190810190614495565b905080518260ff161115613fe95760405162461bcd60e51b815260206004820152602f60248201527f506572696f6469635072697a6553747261746567792f61776172642d696e766160448201526e0d8d2c85ae8ded6cadc5ad2dcc8caf608b1b6064820152608401610926565b6000818360ff16815181106140005761400061515f565b602090810291909101015160665460405163358dc31d60e11b81526001600160a01b038881166004830152602482018890528084166044830152929350911690636b1b863a90606401600060405180830381600087803b15801561406357600080fd5b505af1158015614077573d6000803e3d6000fd5b505050505050505050565b6060824710156140e35760405162461bcd60e51b815260206004820152602660248201527f416464726573733a20696e73756666696369656e742062616c616e636520666f6044820152651c8818d85b1b60d21b6064820152608401610926565b843b6141315760405162461bcd60e51b815260206004820152601d60248201527f416464726573733a2063616c6c20746f206e6f6e2d636f6e74726163740000006044820152606401610926565b600080866001600160a01b0316858760405161414d9190614aac565b60006040518083038185875af1925050503d806000811461418a576040519150601f19603f3d011682016040523d82523d6000602084013e61418f565b606091505b509150915061419f8282866141aa565b979650505050505050565b606083156141b9575081611142565b8251156141c95782518084602001fd5b8160405162461bcd60e51b81526004016109269190614ca3565b5080546000825590600052602060002090810190610d0c91905b8082111561356757600081556001016141fd565b60008083601f84011261422357600080fd5b5081356001600160401b0381111561423a57600080fd5b6020830191508360208260051b850101111561425557600080fd5b9250929050565b60006060828403121561426e57600080fd5b604051606081018181106001600160401b038211171561429057614290615175565b60405290508082356142a18161518b565b8152602083013561ffff811681146142b857600080fd5b60208201526142c9604084016142d5565b60408201525092915050565b803560ff8116811461170557600080fd5b6000602082840312156142f857600080fd5b81356111428161518b565b60006020828403121561431557600080fd5b81516111428161518b565b6000806000806080858703121561433657600080fd5b84356143418161518b565b935060208501356143518161518b565b92506040850135915060608501356143688161518b565b939692955090935050565b60008060008060008060006080888a03121561438e57600080fd5b87356143998161518b565b965060208801356001600160401b03808211156143b557600080fd5b6143c18b838c01614211565b909850965060408a01359150808211156143da57600080fd5b6143e68b838c01614211565b909650945060608a01359150808211156143ff57600080fd5b5061440c8a828b01614211565b989b979a50959850939692959293505050565b6000806040838503121561443257600080fd5b825161443d8161518b565b6020939093015192949293505050565b6000806000806080858703121561446357600080fd5b843561446e8161518b565b93506020850135925060408501356144858161518b565b915060608501356143688161518b565b600060208083850312156144a857600080fd5b82516001600160401b038111156144be57600080fd5b8301601f810185136144cf57600080fd5b80516144e26144dd82615039565b615009565b80828252848201915084840188868560051b870101111561450257600080fd5b600094505b8385101561149f57805161451a8161518b565b835260019490940193918501918501614507565b6000806020838503121561454157600080fd5b82356001600160401b0381111561455757600080fd5b61456385828601614211565b90969095509350505050565b6000806020838503121561458257600080fd5b82356001600160401b038082111561459957600080fd5b818501915085601f8301126145ad57600080fd5b8135818111156145bc57600080fd5b8660206060830285010111156145d157600080fd5b60209290920196919550909350505050565b6000602082840312156145f557600080fd5b8151801515811461114257600080fd5b60006020828403121561461757600080fd5b81356001600160e01b03198116811461114257600080fd5b6000806040838503121561464257600080fd5b823561464d8161518b565b9150602083013561465d8161518b565b809150509250929050565b60008060006040848603121561467d57600080fd5b83356146888161518b565b925060208401356001600160401b038111156146a357600080fd5b6146af86828701614211565b9497909650939450505050565b6000606082840312156146ce57600080fd5b611142838361425c565b600080608083850312156146eb57600080fd5b6146f5848461425c565b9150614703606084016142d5565b90509250929050565b60006020828403121561471e57600080fd5b5035919050565b60006020828403121561473757600080fd5b5051919050565b600080600080600080600060e0888a03121561475957600080fd5b873596506020880135955060408801356147728161518b565b945060608801356147828161518b565b935060808801356147928161518b565b925060a08801356147a28161518b565b915060c08801356147b28161518b565b8091505092959891949750929550565b600080600080600080600060e0888a0312156147dd57600080fd5b87359650602080890135965060408901356147f78161518b565b955060608901356148078161518b565b945060808901356148178161518b565b935060a08901356148278161518b565b925060c08901356001600160401b0381111561484257600080fd5b8901601f81018b1361485357600080fd5b80356148616144dd82615039565b8082825284820191508484018e868560051b870101111561488157600080fd5b600094505b838510156148ad5780356148998161518b565b835260019490940193918501918501614886565b50809550505050505092959891949750929550565b6000806000606084860312156148d757600080fd5b8335925060208401356148e9816151a0565b929592945050506040919091013590565b60006020828403121561490c57600080fd5b8135611142816151a0565b6000806040838503121561492a57600080fd5b8235614935816151a0565b9150602083013561465d816151a0565b6000806040838503121561495857600080fd5b8251614963816151a0565b602084015190925061465d816151a0565b81835260006020808501808196508560051b810191508460005b878110156149f75782840389528135601e198836030181126149af57600080fd5b870180356001600160401b038111156149c757600080fd5b8036038913156149d657600080fd5b6149e38682898501614a83565b9a87019a955050509084019060010161498e565b5091979650505050505050565b8183526000602080850194508260005b85811015614a42578135614a278161518b565b6001600160a01b031687529582019590820190600101614a14565b509495945050505050565b81835260006001600160fb1b03831115614a6657600080fd5b8260051b8083602087013760009401602001938452509192915050565b81835281816020850137506000828201602090810191909152601f909101601f19169091010190565b60008251614abe8184602087016150cc565b9190910192915050565b6001600160a01b03881681526080602080830182905290820187905260009060a0600589901b84018101919084018a845b8b811015614b6a57868503609f190183528135368e9003601e19018112614b1f57600080fd5b8d0180356001600160401b03811115614b3757600080fd5b8060051b36038f1315614b4957600080fd5b614b568782888501614a4d565b965050509183019190830190600101614af9565b505050508281036040840152614b81818789614a04565b90508281036060840152614b96818587614974565b9a9950505050505050505050565b6020808252825182820181905260009190848201906040850190845b81811015614be55783516001600160a01b031683529284019291840191600101614bc0565b50909695505050505050565b6020808252825182820181905260009190848201906040850190845b81811015614be557614c4483855180516001600160a01b0316825260208082015161ffff169083015260409081015160ff16910152565b9284019260609290920191600101614c0d565b60208152600061113f602083018486614a4d565b6020808252825182820181905260009190848201906040850190845b81811015614be557835183529284019291840191600101614c87565b6020815260008251806020840152614cc28160408501602087016150cc565b601f01601f19169190910160400192915050565b6020808252602c908201527f506572696f6469635072697a6553747261746567792f6f6e6c792d6f776e657260408201526b16b7b916b634b9ba32b732b960a11b606082015260800190565b60208082526028908201527f4d756c7469706c6557696e6e6572732f696e76616c69642d7072697a6573706c60408201526734ba16ba37b5b2b760c11b606082015260800190565b60208082526025908201527f506572696f6469635072697a6553747261746567792f6f6e6c792d7072697a656040820152640b5c1bdbdb60da1b606082015260800190565b60208082526029908201527f4d756c7469706c6557696e6e6572732f696e76616c69642d7072697a6573706c6040820152681a5d0b5d185c99d95d60ba1b606082015260800190565b6020808252602e908201527f496e697469616c697a61626c653a20636f6e747261637420697320616c72656160408201526d191e481a5b9a5d1a585b1a5e995960921b606082015260800190565b6020808252818101527f4f776e61626c653a2063616c6c6572206973206e6f7420746865206f776e6572604082015260600190565b60208082526033908201527f4d756c7469706c6557696e6e6572732f696e76616c69642d7072697a6573706c6040820152721a5d0b5c195c98d95b9d1859d94b5d1bdd185b606a1b606082015260800190565b6020808252602b908201527f506572696f6469635072697a6553747261746567792f63616e6e6f742d61776160408201526a1c990b595e1d195c9b985b60aa1b606082015260800190565b60208082526023908201527f506572696f6469635072697a6553747261746567792f726e672d696e2d666c6960408201526219da1d60ea1b606082015260800190565b81516001600160a01b0316815260208083015161ffff169082015260408083015160ff1690820152606081016108ae565b86815260208082018790526001600160a01b0386811660408401528581166060840152848116608084015260c060a08401819052845190840181905260009285810192909160e0860190855b81811015614ff7578551841683529484019491840191600101614fd9565b50909c9b505050505050505050505050565b604051601f8201601f191681016001600160401b038111828210171561503157615031615175565b604052919050565b60006001600160401b0382111561505257615052615175565b5060051b60200190565b6000821982111561506f5761506f615133565b500190565b60008261509157634e487b7160e01b600052601260045260246000fd5b500490565b60008160001904831182151516156150b0576150b0615133565b500290565b6000828210156150c7576150c7615133565b500390565b60005b838110156150e75781810151838201526020016150cf565b83811115610c8f5750506000910152565b600060001982141561510c5761510c615133565b5060010190565b600060ff821660ff81141561512a5761512a615133565b60010192915050565b634e487b7160e01b600052601160045260246000fd5b634e487b7160e01b600052603160045260246000fd5b634e487b7160e01b600052603260045260246000fd5b634e487b7160e01b600052604160045260246000fd5b6001600160a01b0381168114610d0c57600080fd5b63ffffffff81168114610d0c57600080fdfea2646970667358221220bb950aec69d38beab679f750bbeda13825de3fd106214a48580e5c59dda1f52564736f6c63430008060033",
  "devdoc": {
    "kind": "dev",
    "methods": {},
    "title": "Creates a minimal proxy to the ClaimableDrawPrizeStrategyHarness.",
    "version": 1
  },
  "userdoc": {
    "kind": "user",
    "methods": {},
    "version": 1
  },
  "storageLayout": {
    "storage": [
      {
        "astId": 16278,
        "contract": "contracts/test/ClaimableDrawPrizeStrategyHarnessProxyFactory.sol:ClaimableDrawPrizeStrategyHarnessProxyFactory",
        "label": "instance",
        "offset": 0,
        "slot": "0",
        "type": "t_contract(ClaimableDrawPrizeStrategyHarness)16268"
      }
    ],
    "types": {
      "t_contract(ClaimableDrawPrizeStrategyHarness)16268": {
        "encoding": "inplace",
        "label": "contract ClaimableDrawPrizeStrategyHarness",
        "numberOfBytes": "20"
      }
    }
  }
}