{
  "address": "0xDc64a140Aa3E981100a9becA4E685f962f0cF6C9",
  "abi": [
    {
      "inputs": [],
      "stateMutability": "nonpayable",
      "type": "constructor"
    },
    {
      "anonymous": false,
      "inputs": [
        {
          "indexed": false,
          "internalType": "address",
          "name": "proxy",
          "type": "address"
        }
      ],
      "name": "ProxyCreated",
      "type": "event"
    },
    {
      "inputs": [],
      "name": "create",
      "outputs": [
        {
          "internalType": "contract ClaimableDrawHarness",
          "name": "",
          "type": "address"
        }
      ],
      "stateMutability": "nonpayable",
      "type": "function"
    },
    {
      "inputs": [
        {
          "internalType": "address",
          "name": "_logic",
          "type": "address"
        },
        {
          "internalType": "bytes",
          "name": "_data",
          "type": "bytes"
        }
      ],
      "name": "deployMinimal",
      "outputs": [
        {
          "internalType": "address",
          "name": "proxy",
          "type": "address"
        }
      ],
      "stateMutability": "nonpayable",
      "type": "function"
    },
    {
      "inputs": [],
      "name": "instance",
      "outputs": [
        {
          "internalType": "contract ClaimableDrawHarness",
          "name": "",
          "type": "address"
        }
      ],
      "stateMutability": "view",
      "type": "function"
    }
  ],
  "transactionHash": "0x9f39cfc291eec0a265ad57b0dc8063b49fbf28d7f8e51f3a6349e148203c1956",
  "args": [],
  "solcInputHash": "b3f16b26ce5bbb86e7ef5bf9dd11ea21",
  "bytecode": "0x608060405234801561001057600080fd5b5060405161001d9061005f565b604051809103906000f080158015610039573d6000803e3d6000fd5b50600080546001600160a01b0319166001600160a01b039290921691909117905561006c565b61171b806103e283390190565b6103678061007b6000396000f3fe608060405234801561001057600080fd5b50600436106100415760003560e01c8063022ec09514610046578063b3eeb5e214610075578063efc81a8c14610088575b600080fd5b600054610059906001600160a01b031681565b6040516001600160a01b03909116815260200160405180910390f35b610059610083366004610210565b610090565b6100596101e6565b6000808360601b9050604051733d602d80600a3d3981f3363d3d373d3d3d363d7360601b81528160148201526e5af43d82803e903d91602b57fd5bf360881b60288201526037816000f06040516001600160a01b03821681529093507efffc2da0b561cae30d9826d37709e9421c4725faebc226cbbb7ef5fc5e7349915060200160405180910390a18251156101df576000826001600160a01b03168460405161013a91906102e0565b6000604051808303816000865af19150503d8060008114610177576040519150601f19603f3d011682016040523d82523d6000602084013e61017c565b606091505b50509050806101dd5760405162461bcd60e51b8152602060048201526024808201527f50726f7879466163746f72792f636f6e7374727563746f722d63616c6c2d66616044820152631a5b195960e21b606482015260840160405180910390fd5b505b5092915050565b60008054604080516020810190915282815261020b916001600160a01b031690610090565b905090565b6000806040838503121561022357600080fd5b82356001600160a01b038116811461023a57600080fd5b9150602083013567ffffffffffffffff8082111561025757600080fd5b818501915085601f83011261026b57600080fd5b81358181111561027d5761027d61031b565b604051601f8201601f19908116603f011681019083821181831017156102a5576102a561031b565b816040528281528860208487010111156102be57600080fd5b8260208601602083013760006020848301015280955050505050509250929050565b6000825160005b8181101561030157602081860181015185830152016102e7565b81811115610310576000828501525b509190910192915050565b634e487b7160e01b600052604160045260246000fdfea26469706673582212206610a770b3c84fffecf3a18bf2e7d01fdfd9e61be2b7fe60d2cacb65512e0f5964736f6c63430008060033608060405234801561001057600080fd5b506116fb806100206000396000f3fe608060405234801561001057600080fd5b50600436106101165760003560e01c8063740b9ba8116100a2578063bca78fab11610071578063bca78fab14610238578063be6307c814610241578063d325600a14610296578063d777490f146102bf578063f2fde38b146102d257600080fd5b8063740b9ba8146101f85780638da5cb5b14610201578063948231fb14610212578063b29310961461022557600080fd5b8063485cc955116100e9578063485cc955146101a25780634e0dd782146101b7578063590bdc87146101ca5780636b6ff1fc146101dd578063715018a6146101f057600080fd5b80631064b00c1461011b5780631ffed7fe146101415780633c5ebb1714610164578063454a814014610177575b600080fd5b61012e6101293660046113ec565b6102e5565b6040519081526020015b60405180910390f35b61015461014f36600461138f565b6102fa565b6040519015158152602001610138565b61012e61017236600461138f565b610313565b61018a610185366004611260565b610323565b6040516001600160a01b039091168152602001610138565b6101b56101b036600461132a565b610368565b005b61018a6101c5366004611260565b6103f2565b61012e6101d836600461127d565b610428565b61012e6101eb3660046113ec565b610445565b6101b56104bd565b61012e60665481565b6033546001600160a01b031661018a565b60675461018a906001600160a01b031681565b610154610233366004611363565b6104f3565b61012e60655481565b61025461024f3660046113ba565b610534565b6040516101389190815181526020808301519082015260408083015163ffffffff16908201526060918201516001600160a01b03169181019190915260800190565b61012e6102a4366004611260565b6001600160a01b031660009081526069602052604090205490565b606a5461018a906001600160a01b031681565b6101b56102e0366004611260565b61061c565b60006102f28484846106b7565b949350505050565b6000600160ff831690811b8416901c15155b9392505050565b6000600160ff83161b831761030c565b6033546000906001600160a01b031633146103595760405162461bcd60e51b81526004016103509061155e565b60405180910390fd5b6103628261080a565b92915050565b600054610100900460ff1680610381575060005460ff16155b61039d5760405162461bcd60e51b815260040161035090611510565b600054610100900460ff161580156103bf576000805461ffff19166101011790555b6103c7610937565b6103d0836109b2565b506103da8261080a565b5080156103ed576000805461ff00191690555b505050565b6033546000906001600160a01b0316331461041f5760405162461bcd60e51b81526004016103509061155e565b610362826109b2565b600061043988888888888888610ae3565b98975050505050505050565b6067546000906001600160a01b031633146104b25760405162461bcd60e51b815260206004820152602760248201527f436c61696d61626c65447261772f756e617574686f72697a65642d647261772d60448201526636b0b730b3b2b960c91b6064820152608401610350565b6102f28484846106b7565b6033546001600160a01b031633146104e75760405162461bcd60e51b81526004016103509061155e565b6104f16000610c76565b565b6001600160a01b03821660009081526069602052604081205460655461030c919061051f908590610cc8565b600160ff821690811b8316901c151592915050565b6040805160808101825260008082526020820181905291810182905260608101919091526065548211156105aa5760405162461bcd60e51b815260206004820152601e60248201527f436c61696d61626c65447261772f647261772d6e6f6e6578697374656e7400006044820152606401610350565b606882815481106105bd576105bd611684565b6000918252602091829020604080516080810182526003939093029091018054835260018101549383019390935260029092015463ffffffff8116928201929092526401000000009091046001600160a01b0316606082015292915050565b6033546001600160a01b031633146106465760405162461bcd60e51b81526004016103509061155e565b6001600160a01b0381166106ab5760405162461bcd60e51b815260206004820152602660248201527f4f776e61626c653a206e6577206f776e657220697320746865207a65726f206160448201526564647265737360d01b6064820152608401610350565b6106b481610c76565b50565b60688054606a54604080516080810182528781526020810186815263ffffffff8089168385019081526001600160a01b03958616606085018181526065899055600189018a556000998a52855160038a027fa2153420d844928b4421650203c77babc8b33d7f2e7b450e2966db0c2209775381019190915594517fa2153420d844928b4421650203c77babc8b33d7f2e7b450e2966db0c2209775486015591517fa2153420d844928b4421650203c77babc8b33d7f2e7b450e2966db0c2209775590940180549251909716640100000000026001600160c01b0319909216939092169290921791909117909355905182907f279acf4aeaf471514e051120ce391290eed9730595078b42ff2149330728b25b906107f79086908b908b908b90938452602084019290925263ffffffff166040830152606082015260800190565b60405180910390a2509095945050505050565b60006001600160a01b0382166108745760405162461bcd60e51b815260206004820152602960248201527f436c61696d61626c65447261772f63616c63756c61746f722d6e6f742d7a65726044820152686f2d6164647265737360b81b6064820152608401610350565b606a546001600160a01b03838116911614156108e45760405162461bcd60e51b815260206004820152602960248201527f436c61696d61626c65447261772f6578697374696e672d63616c63756c61746f604482015268722d6164647265737360b81b6064820152608401610350565b6040516001600160a01b038316907fff37eafdc3779d387d79dcf458fdc36536d857426f03a53204694f8fbb0d8a6b90600090a250606a80546001600160a01b0319166001600160a01b03831617905590565b600054610100900460ff1680610950575060005460ff16155b61096c5760405162461bcd60e51b815260040161035090611510565b600054610100900460ff1615801561098e576000805461ffff19166101011790555b610996610d97565b61099e610e01565b80156106b4576000805461ff001916905550565b60006001600160a01b038216610a1e5760405162461bcd60e51b815260206004820152602b60248201527f436c61696d61626c65447261772f647261772d6d616e616765722d6e6f742d7a60448201526a65726f2d6164647265737360a81b6064820152608401610350565b6067546001600160a01b0383811691161415610a905760405162461bcd60e51b815260206004820152602b60248201527f436c61696d61626c65447261772f6578697374696e672d647261772d6d616e6160448201526a6765722d6164647265737360a81b6064820152608401610350565b6040516001600160a01b038316907fadb835162e833908ef9512fb62f105358bf1ce29f80144a2f72ce244b79a68c690600090a250606780546001600160a01b0319166001600160a01b03831617905590565b600083868114610b445760405162461bcd60e51b815260206004820152602660248201527f436c61696d61626c65447261772f696e76616c69642d63616c63756c61746f726044820152652d617272617960d01b6064820152608401610350565b6001600160a01b038916600090815260696020526040812054606554909180805b85811015610c105760008b8b83818110610b8157610b81611684565b9050602002016020810190610b969190611260565b9050610bec8f8f8f85818110610bae57610bae611684565b9050602002810190610bc09190611593565b848e8e88818110610bd357610bd3611684565b9050602002810190610be591906115dd565b8b8d610e61565b96509350610bfa8484611624565b9250508080610c0890611653565b915050610b65565b506001600160a01b038d1660008181526069602090815260409182902087905581518781529081018490527ff1d701d4ac9590bd9c9edbf7c4cbc6119c65d572b9b3bb93f90a353b62d73436910160405180910390a29c9b505050505050505050505050565b603380546001600160a01b038381166001600160a01b0319831681179093556040519116919082907f8be0079c531659141344cd1fd0a4f28419497f9722a3daafe3b4186f6b6457e090600090a35050565b600081610cd784610100611624565b11610d245760405162461bcd60e51b815260206004820152601b60248201527f436c61696d61626c65447261772f636c61696d2d6578706972656400000000006044820152606401610350565b81831115610d7f5760405162461bcd60e51b815260206004820152602260248201527f436c61696d61626c65447261772f6472617769642d6f75742d6f662d626f756e604482015261647360f01b6064820152608401610350565b6000610d8b848461163c565b90506102f2818461163c565b600054610100900460ff1680610db0575060005460ff16155b610dcc5760405162461bcd60e51b815260040161035090611510565b600054610100900460ff1615801561099e576000805461ffff191661010117905580156106b4576000805461ff001916905550565b600054610100900460ff1680610e1a575060005460ff16155b610e365760405162461bcd60e51b815260040161035090611510565b600054610100900460ff16158015610e58576000805461ffff19166101011790555b61099e33610c76565b600080808867ffffffffffffffff811115610e7e57610e7e61169a565b604051908082528060200260200182016040528015610ea7578160200160208202803683370190505b50905060008967ffffffffffffffff811115610ec557610ec561169a565b604051908082528060200260200182016040528015610eee578160200160208202803683370190505b50905060008a67ffffffffffffffff811115610f0c57610f0c61169a565b604051908082528060200260200182016040528015610f35578160200160208202803683370190505b50905085935060005b8b8110156110e257600060688e8e84818110610f5c57610f5c611684565b9050602002013581548110610f7357610f73611684565b60009182526020918290206040805160808101825260039093029091018054835260018101549383019390935260029092015463ffffffff8116928201929092526001600160a01b03640100000000909204821660608201819052909250908d16146110325760405162461bcd60e51b815260206004820152602860248201527f436c61696d61626c65447261772f63616c63756c61746f722d616464726573736044820152670b5a5b9d985b1a5960c21b6064820152608401610350565b806020015185838151811061104957611049611684565b602002602001018181525050806040015184838151811061106c5761106c611684565b602002602001019063ffffffff16908163ffffffff1681525050806000015183838151811061109d5761109d611684565b6020026020010181815250506110cc868f8f858181106110bf576110bf611684565b905060200201358b611187565b95505080806110da90611653565b915050610f3e565b50896001600160a01b03166358fe1abe8e8385878e8e6040518763ffffffff1660e01b815260040161111996959493929190611468565b602060405180830381600087803b15801561113357600080fd5b505af1158015611147573d6000803e3d6000fd5b505050506040513d601f19601f8201168201806040525081019061116b91906113d3565b6111759086611624565b94505050509850989650505050505050565b6000806111948484610cc8565b9050600160ff821690811b8616901c158015906112015760405162461bcd60e51b815260206004820152602560248201527f436c61696d61626c65447261772f757365722d70726576696f75736c792d636c604482015264185a5b595960da1b6064820152608401610350565b600160ff83161b86179695505050505050565b60008083601f84011261122657600080fd5b50813567ffffffffffffffff81111561123e57600080fd5b6020830191508360208260051b850101111561125957600080fd5b9250929050565b60006020828403121561127257600080fd5b813561030c816116b0565b60008060008060008060006080888a03121561129857600080fd5b87356112a3816116b0565b9650602088013567ffffffffffffffff808211156112c057600080fd5b6112cc8b838c01611214565b909850965060408a01359150808211156112e557600080fd5b6112f18b838c01611214565b909650945060608a013591508082111561130a57600080fd5b506113178a828b01611214565b989b979a50959850939692959293505050565b6000806040838503121561133d57600080fd5b8235611348816116b0565b91506020830135611358816116b0565b809150509250929050565b6000806040838503121561137657600080fd5b8235611381816116b0565b946020939093013593505050565b600080604083850312156113a257600080fd5b82359150602083013560ff8116811461135857600080fd5b6000602082840312156113cc57600080fd5b5035919050565b6000602082840312156113e557600080fd5b5051919050565b60008060006060848603121561140157600080fd5b83359250602084013563ffffffff8116811461141c57600080fd5b929592945050506040919091013590565b600081518084526020808501945080840160005b8381101561145d57815187529582019590820190600101611441565b509495945050505050565b6001600160a01b038716815260a0602080830182905260009161148d9084018961142d565b838103604085015287518082528289019183019060005b818110156114c657835163ffffffff16835292840192918401916001016114a4565b505084810360608601526114da818961142d565b91505083810360808501528481528486838301376000818601830152601f909401601f1916909301909201979650505050505050565b6020808252602e908201527f496e697469616c697a61626c653a20636f6e747261637420697320616c72656160408201526d191e481a5b9a5d1a585b1a5e995960921b606082015260800190565b6020808252818101527f4f776e61626c653a2063616c6c6572206973206e6f7420746865206f776e6572604082015260600190565b6000808335601e198436030181126115aa57600080fd5b83018035915067ffffffffffffffff8211156115c557600080fd5b6020019150600581901b360382131561125957600080fd5b6000808335601e198436030181126115f457600080fd5b83018035915067ffffffffffffffff82111561160f57600080fd5b60200191503681900382131561125957600080fd5b600082198211156116375761163761166e565b500190565b60008282101561164e5761164e61166e565b500390565b60006000198214156116675761166761166e565b5060010190565b634e487b7160e01b600052601160045260246000fd5b634e487b7160e01b600052603260045260246000fd5b634e487b7160e01b600052604160045260246000fd5b6001600160a01b03811681146106b457600080fdfea264697066735822122067527e655daf8a3d3902de159c3c145e5b85091b4a88c6217035e7a0698bebb164736f6c63430008060033",
  "devdoc": {
    "kind": "dev",
    "methods": {},
    "title": "Creates a minimal proxy to the ClaimableDrawHarness.",
    "version": 1
  },
  "userdoc": {
    "kind": "user",
    "methods": {},
    "version": 1
  },
  "storageLayout": {
    "storage": [
      {
        "astId": 16121,
        "contract": "contracts/test/ClaimableDrawHarnessProxyFactory.sol:ClaimableDrawHarnessProxyFactory",
        "label": "instance",
        "offset": 0,
        "slot": "0",
        "type": "t_contract(ClaimableDrawHarness)16111"
      }
    ],
    "types": {
      "t_contract(ClaimableDrawHarness)16111": {
        "encoding": "inplace",
        "label": "contract ClaimableDrawHarness",
        "numberOfBytes": "20"
      }
    }
  }
}