{
  "address": "0xa513E6E4b8f2a923D98304ec87F64353C4D5C853",
  "abi": [
    {
      "inputs": [],
      "stateMutability": "nonpayable",
      "type": "constructor"
    },
    {
      "anonymous": false,
      "inputs": [
        {
          "indexed": false,
          "internalType": "address",
          "name": "proxy",
          "type": "address"
        }
      ],
      "name": "ProxyCreated",
      "type": "event"
    },
    {
      "inputs": [],
      "name": "create",
      "outputs": [
        {
          "internalType": "contract CompoundPrizePoolHarness",
          "name": "",
          "type": "address"
        }
      ],
      "stateMutability": "nonpayable",
      "type": "function"
    },
    {
      "inputs": [
        {
          "internalType": "address",
          "name": "_logic",
          "type": "address"
        },
        {
          "internalType": "bytes",
          "name": "_data",
          "type": "bytes"
        }
      ],
      "name": "deployMinimal",
      "outputs": [
        {
          "internalType": "address",
          "name": "proxy",
          "type": "address"
        }
      ],
      "stateMutability": "nonpayable",
      "type": "function"
    },
    {
      "inputs": [],
      "name": "instance",
      "outputs": [
        {
          "internalType": "contract CompoundPrizePoolHarness",
          "name": "",
          "type": "address"
        }
      ],
      "stateMutability": "view",
      "type": "function"
    }
  ],
  "transactionHash": "0x4b85b7281a7ed9a9e4cc5e4e1a2d0d578343d9b08122e8d2745fea2178884de5",
  "args": [],
  "solcInputHash": "7cdc182d41699770d1f19390689291f5",
  "bytecode": "0x608060405234801561001057600080fd5b5060405161001d9061005f565b604051809103906000f080158015610039573d6000803e3d6000fd5b50600080546001600160a01b0319166001600160a01b039290921691909117905561006c565b613df8806103e283390190565b6103678061007b6000396000f3fe608060405234801561001057600080fd5b50600436106100415760003560e01c8063022ec09514610046578063b3eeb5e214610075578063efc81a8c14610088575b600080fd5b600054610059906001600160a01b031681565b6040516001600160a01b03909116815260200160405180910390f35b610059610083366004610210565b610090565b6100596101e6565b6000808360601b9050604051733d602d80600a3d3981f3363d3d373d3d3d363d7360601b81528160148201526e5af43d82803e903d91602b57fd5bf360881b60288201526037816000f06040516001600160a01b03821681529093507efffc2da0b561cae30d9826d37709e9421c4725faebc226cbbb7ef5fc5e7349915060200160405180910390a18251156101df576000826001600160a01b03168460405161013a91906102e0565b6000604051808303816000865af19150503d8060008114610177576040519150601f19603f3d011682016040523d82523d6000602084013e61017c565b606091505b50509050806101dd5760405162461bcd60e51b8152602060048201526024808201527f50726f7879466163746f72792f636f6e7374727563746f722d63616c6c2d66616044820152631a5b195960e21b606482015260840160405180910390fd5b505b5092915050565b60008054604080516020810190915282815261020b916001600160a01b031690610090565b905090565b6000806040838503121561022357600080fd5b82356001600160a01b038116811461023a57600080fd5b9150602083013567ffffffffffffffff8082111561025757600080fd5b818501915085601f83011261026b57600080fd5b81358181111561027d5761027d61031b565b604051601f8201601f19908116603f011681019083821181831017156102a5576102a561031b565b816040528281528860208487010111156102be57600080fd5b8260208601602083013760006020848301015280955050505050509250929050565b6000825160005b8181101561030157602081860181015185830152016102e7565b81811115610310576000828501525b509190910192915050565b634e487b7160e01b600052604160045260246000fdfea2646970667358221220b2faf2da46dcf52724d44ac99364ad3820595fb51c3547166039fa166305b96e64736f6c63430008060033608060405234801561001057600080fd5b50613dd8806100206000396000f3fe608060405234801561001057600080fd5b506004361061025e5760003560e01c8063888c2b6f11610146578063b69ef8a8116100c3578063e323f82511610087578063e323f82514610587578063e6d8a94b1461059a578063edb4e1cf146105a2578063f2fde38b146105ab578063fc0c546a146105be578063ffa1ad74146105c657600080fd5b8063b69ef8a8146104f2578063c5871485146104fa578063d18e81b31461050d578063d4a1361d14610516578063db006a751461057457600080fd5b80639d63848a1161010a5780639d63848a1461049b5780639e167519146104b05780639fe32a91146104b9578063a016240b146104cc578063a7b2cc31146104df57600080fd5b8063888c2b6f146104295780638da5cb5b146104515780638e71c1f61461046257806391ca480e1461047557806398bf3eb61461048857600080fd5b806352a387ab116101df578063715018a6116101a3578063715018a6146103cc57806376687d3d146103d457806378b3d327146103dd57806379cb8563146103f05780637b99adb1146104035780637cbab1c71461041657600080fd5b806352a387ab14610350578063630665b41461036357806369e527da1461036b5780636a3fd4f9146103965780636b1b863a146103b957600080fd5b80632b0ab144116102265780632b0ab144146102f15780632f7627e31461030457806335403023146103175780633ede50c61461032a578063494de9f71461033d57600080fd5b80630937eb541461026357806313f55e391461027e578063150b7a021461029357806316960d55146102cb57806322f8e566146102de575b600080fd5b61026b6105f7565b6040519081526020015b60405180910390f35b61029161028c366004613743565b610606565b005b6102b26102a1366004613784565b630a85bd0160e11b95945050505050565b6040516001600160e01b03199091168152602001610275565b6102916102d93660046136ae565b6106a5565b6102916102ec366004613a56565b60a155565b6102916102ff366004613743565b6108aa565b610291610312366004613675565b610932565b610291610325366004613a56565b610a3c565b61029161033836600461399c565b610a48565b61026b61034b366004613675565b610c32565b61026b61035e36600461363b565b610d1b565b609d5461026b565b60a05461037e906001600160a01b031681565b6040516001600160a01b039091168152602001610275565b6103a96103a436600461363b565b610e75565b6040519015158152602001610275565b6102916103c7366004613868565b610e96565b610291611053565b61026b609c5481565b6103a96103eb36600461363b565b611089565b61026b6103fe366004613945565b611094565b610291610411366004613a56565b6110a9565b610291610424366004613743565b6110dc565b61043c610437366004613743565b6112e1565b60408051928352602083019190915201610275565b6033546001600160a01b031661037e565b60975461037e906001600160a01b031681565b61029161048336600461363b565b6112fb565b60995461037e906001600160a01b031681565b6104a361132e565b6040516102759190613ad0565b61026b609a5481565b61026b6104c7366004613a56565b611390565b61026b6104da3660046138fd565b6114c6565b6102916104ed366004613823565b6116b0565b61026b61178c565b6102916105083660046139f5565b611796565b61026b60a15481565b61055461052436600461363b565b6001600160a01b03166000908152609e60205260409020546001600160801b0380821692600160801b9092041690565b604080516001600160801b03938416815292909116602083015201610275565b61026b610582366004613a56565b611858565b6102916105953660046138aa565b611863565b61026b6119b3565b61026b609b5481565b6102916105b936600461363b565b611af9565b61037e611b91565b6105ea604051806040016040528060058152602001640332e342e360dc1b81525081565b6040516102759190613b59565b6000610601611b9b565b905090565b6099546001600160a01b0316336001600160a01b0316146106425760405162461bcd60e51b815260040161063990613b6c565b60405180910390fd5b61064d838383611cc2565b156106a057816001600160a01b0316836001600160a01b03167fb0bac59718cd343c80a813518afcf36846cfcfe6d56e2b3cab9bd49f5f9b251c8360405161069791815260200190565b60405180910390a35b505050565b6099546001600160a01b0316336001600160a01b0316146106d85760405162461bcd60e51b815260040161063990613b6c565b60a0546001600160a01b03848116911614156107365760405162461bcd60e51b815260206004820181905260248201527f5072697a65506f6f6c2f696e76616c69642d65787465726e616c2d746f6b656e6044820152606401610639565b80610740576108a4565b60005b8181101561085557836001600160a01b03166342842e0e308786868681811061076e5761076e613d61565b6040516001600160e01b031960e088901b1681526001600160a01b03958616600482015294909316602485015250602090910201356044820152606401600060405180830381600087803b1580156107c557600080fd5b505af19250505080156107d6575060015b610843573d808015610804576040519150601f19603f3d011682016040523d82523d6000602084013e610809565b606091505b507f17e975018310f88872b58d4d8263adca83cf5c1893496ea2a86923dab15276ad816040516108399190613b59565b60405180910390a1505b8061084d81613d30565b915050610743565b50826001600160a01b0316846001600160a01b03167f69c2de32bc4d47f488e72626a6cfdee85089342e52675e7de79c4b417623960c848460405161089b929190613b1d565b60405180910390a35b50505050565b6099546001600160a01b0316336001600160a01b0316146108dd5760405162461bcd60e51b815260040161063990613b6c565b6108e8838383611cc2565b156106a057816001600160a01b0316836001600160a01b03167fc65f48aca3b7a99b7443d04b8ffbb073156179bc628dc3f7def50477489734698360405161069791815260200190565b6033546001600160a01b0316331461095c5760405162461bcd60e51b815260040161063990613c28565b6040516370a0823160e01b81523060048201526000906001600160a01b038416906370a082319060240160206040518083038186803b15801561099e57600080fd5b505afa1580156109b2573d6000803e3d6000fd5b505050506040513d601f19601f820116820180604052508101906109d69190613a6f565b1115610a38576040516317066a5760e21b81526001600160a01b038281166004830152831690635c19a95c90602401600060405180830381600087803b158015610a1f57600080fd5b505af1158015610a33573d6000803e3d6000fd5b505050505b5050565b610a4581611d55565b50565b600054610100900460ff1680610a61575060005460ff16155b610a7d5760405162461bcd60e51b815260040161063990613ba3565b600054610100900460ff16158015610a9f576000805461ffff19166101011790555b6001600160a01b038416610b005760405162461bcd60e51b815260206004820152602260248201527f5072697a65506f6f6c2f7265736572766552656769737472792d6e6f742d7a65604482015261726f60f01b6064820152608401610639565b82518067ffffffffffffffff811115610b1b57610b1b613d77565b604051908082528060200260200182016040528015610b44578160200160208202803683370190505b508051610b59916098916020909101906134fb565b5060005b81811015610ba0576000858281518110610b7957610b79613d61565b60200260200101519050610b8d8183611e49565b5080610b9881613d30565b915050610b5d565b50610ba9611f81565b610bb1611ffc565b600019610bbd8161205b565b609780546001600160a01b0319166001600160a01b038816908117909155609a85905560408051918252602082018690527f25ff68dd81b34665b5ba7e553ee5511bf6812e12adb4a7e2c0d9e26b3099ce79910160405180910390a1505080156108a4576000805461ff001916905550505050565b600081610c3e81612096565b610c5a5760405162461bcd60e51b815260040161063990613bf1565b6040516370a0823160e01b81526001600160a01b038086166004830152610ce49186918691908216906370a08231906024015b60206040518083038186803b158015610ca557600080fd5b505afa158015610cb9573d6000803e3d6000fd5b505050506040513d601f19601f82011682018060405250810190610cdd9190613a6f565b6000612160565b50506001600160a01b039081166000908152609f60209081526040808320949093168252929092529020546001600160c01b031690565b600080609760009054906101000a90046001600160a01b03166001600160a01b031663f5e3542b6040518163ffffffff1660e01b815260040160206040518083038186803b158015610d6c57600080fd5b505afa158015610d80573d6000803e3d6000fd5b505050506040513d601f19601f82011682018060405250810190610da49190613658565b90506001600160a01b0381163314610df75760405162461bcd60e51b81526020600482015260166024820152755072697a65506f6f6c2f6f6e6c792d7265736572766560501b6044820152606401610639565b609b805460009182905590610e0b82612176565b9050610e2a8582610e1a612359565b6001600160a01b031691906123d6565b846001600160a01b03167f1c71c8e11fd443227c8f8d3dc1a237a3a5e8310b540c7fbcf5169754aedf42c983604051610e6591815260200190565b60405180910390a2949350505050565b6000610e908260a0546001600160a01b039182169116141590565b92915050565b6099546001600160a01b0316336001600160a01b031614610ec95760405162461bcd60e51b815260040161063990613b6c565b80610ed381612096565b610eef5760405162461bcd60e51b815260040161063990613bf1565b82610ef9576108a4565b609d54831115610f4b5760405162461bcd60e51b815260206004820152601d60248201527f5072697a65506f6f6c2f61776172642d657863656564732d617661696c0000006044820152606401610639565b82609d54610f599190613ced565b609d55610f698484846000612439565b6000610f7583856124f6565b6040516370a0823160e01b81526001600160a01b038088166004830152919250610fff91879186918216906370a082319060240160206040518083038186803b158015610fc157600080fd5b505afa158015610fd5573d6000803e3d6000fd5b505050506040513d601f19601f82011682018060405250810190610ff99190613a6f565b84612160565b826001600160a01b0316856001600160a01b03167fe2554529d99ab7a67db6b4cea2b32c7d55ae325f958861e05f304fdded867e318660405161104491815260200190565b60405180910390a35050505050565b6033546001600160a01b0316331461107d5760405162461bcd60e51b815260040161063990613c28565b611087600061252e565b565b6000610e9082612096565b60006110a1848484612580565b949350505050565b6033546001600160a01b031633146110d35760405162461bcd60e51b815260040161063990613c28565b610a458161205b565b336110e681612096565b6111025760405162461bcd60e51b815260040161063990613bf1565b6001600160a01b038416156111dc576040516370a0823160e01b81526001600160a01b038516600482015260009033906370a082319060240160206040518083038186803b15801561115357600080fd5b505afa158015611167573d6000803e3d6000fd5b505050506040513d601f19601f8201168201806040525081019061118b9190613a6f565b9050600061119c86338460006125d1565b9050846001600160a01b0316866001600160a01b0316146111ce576111cb336111c58685613ced565b83612661565b90505b6111d98633836126a7565b50505b6001600160a01b038316158015906112065750836001600160a01b0316836001600160a01b031614155b1561123f576040516370a0823160e01b81526001600160a01b038416600482015261123f908490339081906370a0823190602401610c8d565b6001600160a01b0384161580159061126157506099546001600160a01b031615155b156108a45760995460405163b221095760e01b81526001600160a01b0386811660048301528581166024830152604482018590523360648301529091169063b2210957906084015b600060405180830381600087803b1580156112c357600080fd5b505af11580156112d7573d6000803e3d6000fd5b5050505050505050565b6000806112ef858585612835565b90969095509350505050565b6033546001600160a01b031633146113255760405162461bcd60e51b815260040161063990613c28565b610a45816129d2565b6060609880548060200260200160405190810160405280929190818152602001828054801561138657602002820191906000526020600020905b81546001600160a01b03168152600190910190602001808311611368575b5050505050905090565b600080609760009054906101000a90046001600160a01b03166001600160a01b031663f5e3542b6040518163ffffffff1660e01b815260040160206040518083038186803b1580156113e157600080fd5b505afa1580156113f5573d6000803e3d6000fd5b505050506040513d601f19601f820116820180604052508101906114199190613658565b90506001600160a01b0381166114325750600092915050565b6040516221bf4b60e31b81523060048201526000906001600160a01b0383169063010dfa589060240160206040518083038186803b15801561147357600080fd5b505afa158015611487573d6000803e3d6000fd5b505050506040513d601f19601f820116820180604052508101906114ab9190613a6f565b9050806114bc575060009392505050565b6110a18482612adb565b6000600260655414156114eb5760405162461bcd60e51b815260040161063990613c5d565b6002606555826114fa81612096565b6115165760405162461bcd60e51b815260040161063990613bf1565b600080611524888789612835565b91509150848211156115885760405162461bcd60e51b815260206004820152602760248201527f5072697a65506f6f6c2f657869742d6665652d657863656564732d757365722d6044820152666d6178696d756d60c81b6064820152608401610639565b611593888783612afc565b6001600160a01b03861663631b5dfb336040516001600160e01b031960e084901b1681526001600160a01b039182166004820152908b166024820152604481018a9052606401600060405180830381600087803b1580156115f357600080fd5b505af1158015611607573d6000803e3d6000fd5b50505050600082886116199190613ced565b9050600061162682612176565b90506116358a82610e1a612359565b876001600160a01b03168a6001600160a01b03166116503390565b604080518d8152602081018690529081018890526001600160a01b0391909116907f0271704a58fd2953e49b87d67a0a3ce28a58147de98a5457f60b4686f63850309060600160405180910390a450506001606555509695505050505050565b826116ba81612096565b6116d65760405162461bcd60e51b815260040161063990613bf1565b6033546001600160a01b031633146117005760405162461bcd60e51b815260040161063990613c28565b6040805180820182526001600160801b0384811680835286821660208085018281526001600160a01b038b166000818152609e8452889020965191518616600160801b029190951617909455845192835292820152918201527ffb0ba2cf86a2b03bcf387753a2192da80a006afa99dd022bb301c78e323bf1b99060600160405180910390a150505050565b6000610601612bb5565b600054610100900460ff16806117af575060005460ff16155b6117cb5760405162461bcd60e51b815260040161063990613ba3565b600054610100900460ff161580156117ed576000805461ffff19166101011790555b6117f8858585610a48565b60a080546001600160a01b0319166001600160a01b0384169081179091556040517fa5670b49a0ee863080ae28858bb5d9bcc1eb0d2a6f4c9c3a8accc43b8f445d2590600090a28015611851576000805461ff00191690555b5050505050565b6000610e9082612176565b600260655414156118865760405162461bcd60e51b815260040161063990613c5d565b60026065558161189581612096565b6118b15760405162461bcd60e51b815260040161063990613bf1565b836118bb81612c33565b6119075760405162461bcd60e51b815260206004820152601f60248201527f5072697a65506f6f6c2f657863656564732d6c69717569646974792d636170006044820152606401610639565b3361191487878787612439565b611933813088611922612359565b6001600160a01b0316929190612c57565b61193c86611d55565b846001600160a01b0316876001600160a01b0316826001600160a01b03167f6ce569498e0f86f147466ac49211cb2a1ffe06195adb805e383b3f2365109160898860405161199d9291909182526001600160a01b0316602082015260400190565b60405180910390a4505060016065555050505050565b6000600260655414156119d85760405162461bcd60e51b815260040161063990613c5d565b600260655560006119e7611b9b565b905060006119f3612bb5565b90506000828211611a05576000611a0f565b611a0f8383613ced565b90506000609d548211611a23576000611a30565b609d54611a309083613ced565b90508015611ae8576000611a4382611390565b90508015611aa25780609b54611a599190613c94565b609b55611a668183613ced565b91507f5f1703ccfa2730d4245350f228079926a37f26a44ecf6978a7eeafff0af1140781604051611a9991815260200190565b60405180910390a15b81609d54611ab09190613c94565b609d556040518281527fce2b6e507c7ca1a20ce136810f524eefc19ba4c7e4866eb6cc0cba76e778d4be9060200160405180910390a1505b609d54945050505050600160655590565b6033546001600160a01b03163314611b235760405162461bcd60e51b815260040161063990613c28565b6001600160a01b038116611b885760405162461bcd60e51b815260206004820152602660248201527f4f776e61626c653a206e6577206f776e657220697320746865207a65726f206160448201526564647265737360d01b6064820152608401610639565b610a458161252e565b6000610601612359565b600080609b54905060006098805480602002602001604051908101604052809291908181526020018280548015611bfb57602002820191906000526020600020905b81546001600160a01b03168152600190910190602001808311611bdd575b505083519394506000925050505b81811015611cb957828181518110611c2357611c23613d61565b60200260200101516001600160a01b03166318160ddd6040518163ffffffff1660e01b815260040160206040518083038186803b158015611c6357600080fd5b505afa158015611c77573d6000803e3d6000fd5b505050506040513d601f19601f82011682018060405250810190611c9b9190613a6f565b611ca59085613c94565b935080611cb181613d30565b915050611c09565b50919392505050565b6000611cdd8360a0546001600160a01b039182169116141590565b611d295760405162461bcd60e51b815260206004820181905260248201527f5072697a65506f6f6c2f696e76616c69642d65787465726e616c2d746f6b656e6044820152606401610639565b81611d3657506000611d4e565b611d4a6001600160a01b03841685846123d6565b5060015b9392505050565b60a054611d7e906001600160a01b031682611d6e612359565b6001600160a01b03169190612c8f565b60a05460405163140e25ad60e31b8152600481018390526001600160a01b039091169063a0712d6890602401602060405180830381600087803b158015611dc457600080fd5b505af1158015611dd8573d6000803e3d6000fd5b505050506040513d601f19601f82011682018060405250810190611dfc9190613a6f565b15610a455760405162461bcd60e51b815260206004820152601d60248201527f436f6d706f756e645072697a65506f6f6c2f6d696e742d6661696c65640000006044820152606401610639565b306001600160a01b0316826001600160a01b031663f77c47916040518163ffffffff1660e01b815260040160206040518083038186803b158015611e8c57600080fd5b505afa158015611ea0573d6000803e3d6000fd5b505050506040513d601f19601f82011682018060405250810190611ec49190613658565b6001600160a01b031614611f1a5760405162461bcd60e51b815260206004820152601e60248201527f5072697a65506f6f6c2f746f6b656e2d6374726c722d6d69736d6174636800006044820152606401610639565b8160988281548110611f2e57611f2e613d61565b6000918252602082200180546001600160a01b0319166001600160a01b03938416179055604051918416917f460e712b4a5d801d031ed673dea209b73ab854f7ddeb86b6c48082e92c3eee669190a25050565b600054610100900460ff1680611f9a575060005460ff16155b611fb65760405162461bcd60e51b815260040161063990613ba3565b600054610100900460ff16158015611fd8576000805461ffff19166101011790555b611fe0612db3565b611fe8612e1d565b8015610a45576000805461ff001916905550565b600054610100900460ff1680612015575060005460ff16155b6120315760405162461bcd60e51b815260040161063990613ba3565b600054610100900460ff16158015612053576000805461ffff19166101011790555b611fe8612e7d565b609c8190556040518181527f3ff20538222f568f27ff436c0c49dfd3e48d5b8f86533a3f759dc1c7089775ab9060200160405180910390a150565b60008060988054806020026020016040519081016040528092919081815260200182805480156120ef57602002820191906000526020600020905b81546001600160a01b031681526001909101906020018083116120d1575b505083519394506000925050505b8181101561215557846001600160a01b031683828151811061212157612121613d61565b60200260200101516001600160a01b0316141561214357506001949350505050565b8061214d81613d30565b9150506120fd565b506000949350505050565b6108a48484612171878787876125d1565b6126a7565b600080612181612359565b6040516370a0823160e01b81523060048201529091506000906001600160a01b038316906370a082319060240160206040518083038186803b1580156121c657600080fd5b505afa1580156121da573d6000803e3d6000fd5b505050506040513d601f19601f820116820180604052508101906121fe9190613a6f565b60a05460405163852a12e360e01b8152600481018790529192506001600160a01b03169063852a12e390602401602060405180830381600087803b15801561224557600080fd5b505af1158015612259573d6000803e3d6000fd5b505050506040513d601f19601f8201168201806040525081019061227d9190613a6f565b156122ca5760405162461bcd60e51b815260206004820152601f60248201527f436f6d706f756e645072697a65506f6f6c2f72656465656d2d6661696c6564006044820152606401610639565b6040516370a0823160e01b81523060048201526000906123509083906001600160a01b038616906370a082319060240160206040518083038186803b15801561231257600080fd5b505afa158015612326573d6000803e3d6000fd5b505050506040513d601f19601f8201168201806040525081019061234a9190613a6f565b90612eed565b95945050505050565b60a05460408051636f307dc360e01b815290516000926001600160a01b031691636f307dc3916004808301926020929190829003018186803b15801561239e57600080fd5b505afa1580156123b2573d6000803e3d6000fd5b505050506040513d601f19601f820116820180604052508101906106019190613658565b6040516001600160a01b0383166024820152604481018290526106a090849063a9059cbb60e01b906064015b60408051601f198184030181529190526020810180516001600160e01b03166001600160e01b031990931692909217909152612ef9565b6099546001600160a01b0316156124c1576099546040516304d7f3db60e41b81526001600160a01b038681166004830152602482018690528481166044830152838116606483015290911690634d7f3db090608401600060405180830381600087803b1580156124a857600080fd5b505af11580156124bc573d6000803e3d6000fd5b505050505b604051630baf60eb60e31b81526001600160a01b03858116600483015260248201859052831690635d7b0758906044016112a9565b6001600160a01b0382166000908152609e6020526040812054611d4e9083906125299082906001600160801b0316612adb565b612fcb565b603380546001600160a01b038381166001600160a01b0319831681179093556040519116919082907f8be0079c531659141344cd1fd0a4f28419497f9722a3daafe3b4186f6b6457e090600090a35050565b6001600160a01b0383166000908152609e602052604081205481906125b6908590600160801b90046001600160801b0316612adb565b9050806125c7576000915050611d4e565b6123508184613cac565b6001600160a01b038381166000908152609f6020908152604080832093881683529290529081208054829190600160e01b900460ff166126145760009150612657565b6000612621888888612ff0565b8254909150612653908890889088906126449086906001600160c01b0316613c94565b61264e9190613c94565b612661565b9250505b5095945050505050565b6001600160a01b0383166000908152609e602052604081205481906126909085906001600160801b0316612adb565b90508083111561269e578092505b50909392505050565b6001600160a01b038083166000908152609f602090815260408083209387168352929052819020548151606081019092526001600160c01b031690806126ec846130a2565b6001600160801b0316815260200161270b61270660a15490565b61310f565b63ffffffff908116825260016020928301526001600160a01b038087166000908152609f84526040808220928a168252918452819020845181549486015195909201511515600160e01b0260ff60e01b1995909316600160c01b026001600160e01b03199094166001600160c01b03909216919091179290921792909216919091179055818110156127e6576001600160a01b038084169085167f2f92d56910619b38bc29fd8e4ca5e56359edac7a0c086cdcd305fb603fa374916127d08486613ced565b60405190815260200160405180910390a36108a4565b808210156108a4576001600160a01b038084169085167ff584c579437bc25785b953cc4d8d247251812751e1871c6130cbdecf95a106cf6128278585613ced565b60405190815260200161089b565b6040516370a0823160e01b81526001600160a01b03848116600483015260009182918291908616906370a082319060240160206040518083038186803b15801561287e57600080fd5b505afa158015612892573d6000803e3d6000fd5b505050506040513d601f19601f820116820180604052508101906128b69190613a6f565b9050838110156129015760405162461bcd60e51b81526020600482015260166024820152755072697a65506f6f6c2f696e737566662d66756e647360501b6044820152606401610639565b61290e8686836000612160565b60006129238661291e8785613ced565b6124f6565b6001600160a01b038088166000908152609f60209081526040808320938c16835292905290812054919250906001600160c01b0316821161299b576001600160a01b038088166000908152609f60209081526040808320938c16835292905220546129989083906001600160c01b0316613ced565b90505b60006129a788886124f6565b90508082116129b657816129b8565b805b94506129c48582613ced565b955050505050935093915050565b6001600160a01b038116612a285760405162461bcd60e51b815260206004820181905260248201527f5072697a65506f6f6c2f7072697a6553747261746567792d6e6f742d7a65726f6044820152606401610639565b612a456001600160a01b038216600162a1cb1960e01b0319613174565b612a915760405162461bcd60e51b815260206004820152601f60248201527f5072697a65506f6f6c2f7072697a6553747261746567792d696e76616c6964006044820152606401610639565b609980546001600160a01b0319166001600160a01b0383169081179091556040517f7f58dc86bc2e435cb77ca0edb1df55e25f90caf2d6bd866971715437d456a21290600090a250565b600080612ae88385613190565b90506110a181670de0b6b3a764000061320f565b6001600160a01b038083166000908152609f6020908152604080832093871683529290522054612b3f90612b3a9083906001600160c01b0316613ced565b6130a2565b6001600160a01b038381166000818152609f602090815260408083209489168084529482529182902080546001600160c01b0319166001600160801b0396909616959095179094555184815290927ff584c579437bc25785b953cc4d8d247251812751e1871c6130cbdecf95a106cf9101610697565b60a054604051633af9e66960e01b81523060048201526000916001600160a01b031690633af9e66990602401602060405180830381600087803b158015612bfb57600080fd5b505af1158015612c0f573d6000803e3d6000fd5b505050506040513d601f19601f820116820180604052508101906106019190613a6f565b600080612c3e611b9b565b609c54909150612c4e8483613c94565b11159392505050565b6040516001600160a01b03808516602483015283166044820152606481018290526108a49085906323b872dd60e01b90608401612402565b801580612d185750604051636eb1769f60e11b81523060048201526001600160a01b03838116602483015284169063dd62ed3e9060440160206040518083038186803b158015612cde57600080fd5b505afa158015612cf2573d6000803e3d6000fd5b505050506040513d601f19601f82011682018060405250810190612d169190613a6f565b155b612d835760405162461bcd60e51b815260206004820152603660248201527f5361666545524332303a20617070726f76652066726f6d206e6f6e2d7a65726f60448201527520746f206e6f6e2d7a65726f20616c6c6f77616e636560501b6064820152608401610639565b6040516001600160a01b0383166024820152604481018290526106a090849063095ea7b360e01b90606401612402565b600054610100900460ff1680612dcc575060005460ff16155b612de85760405162461bcd60e51b815260040161063990613ba3565b600054610100900460ff16158015611fe8576000805461ffff19166101011790558015610a45576000805461ff001916905550565b600054610100900460ff1680612e36575060005460ff16155b612e525760405162461bcd60e51b815260040161063990613ba3565b600054610100900460ff16158015612e74576000805461ffff19166101011790555b611fe83361252e565b600054610100900460ff1680612e96575060005460ff16155b612eb25760405162461bcd60e51b815260040161063990613ba3565b600054610100900460ff16158015612ed4576000805461ffff19166101011790555b60016065558015610a45576000805461ff001916905550565b6000611d4e8284613ced565b6000612f4e826040518060400160405280602081526020017f5361666545524332303a206c6f772d6c6576656c2063616c6c206661696c6564815250856001600160a01b03166132519092919063ffffffff16565b8051909150156106a05780806020019051810190612f6c919061397a565b6106a05760405162461bcd60e51b815260206004820152602a60248201527f5361666545524332303a204552433230206f7065726174696f6e20646964206e6044820152691bdd081cdd58d8d9595960b21b6064820152608401610639565b600080612fda84609a54612adb565b905080831115612fe8578092505b509092915050565b6001600160a01b038281166000908152609f60209081526040808320938716835292905290812054600160c01b810463ffffffff1690600160e01b900460ff1661303e576000915050611d4e565b60008161304a60a15490565b6130549190613ced565b6001600160a01b0386166000908152609e60205260408120549192509061308b90600160801b90046001600160801b031683613cce565b90506130978582612adb565b979650505050505050565b60006001600160801b0382111561310b5760405162461bcd60e51b815260206004820152602760248201527f53616665436173743a2076616c756520646f65736e27742066697420696e20316044820152663238206269747360c81b6064820152608401610639565b5090565b600063ffffffff82111561310b5760405162461bcd60e51b815260206004820152602660248201527f53616665436173743a2076616c756520646f65736e27742066697420696e203360448201526532206269747360d01b6064820152608401610639565b600061317f83613260565b8015611d4e5750611d4e8383613293565b60008261319f57506000610e90565b60006131ab8385613cce565b9050826131b88583613cac565b14611d4e5760405162461bcd60e51b815260206004820152602160248201527f536166654d6174683a206d756c7469706c69636174696f6e206f766572666c6f6044820152607760f81b6064820152608401610639565b6000611d4e83836040518060400160405280601a81526020017f536166654d6174683a206469766973696f6e206279207a65726f00000000000081525061337c565b60606110a184846000856133aa565b6000613273826301ffc9a760e01b613293565b8015610e90575061328c826001600160e01b0319613293565b1592915050565b604080516001600160e01b0319831660248083019190915282518083039091018152604490910182526020810180516001600160e01b03166301ffc9a760e01b179052905160009190829081906001600160a01b03871690617530906132fa908690613ab4565b6000604051808303818686fa925050503d8060008114613336576040519150601f19603f3d011682016040523d82523d6000602084013e61333b565b606091505b50915091506020815110156133565760009350505050610e90565b818015613372575080806020019051810190613372919061397a565b9695505050505050565b6000818361339d5760405162461bcd60e51b81526004016106399190613b59565b5060006123508486613cac565b60608247101561340b5760405162461bcd60e51b815260206004820152602660248201527f416464726573733a20696e73756666696369656e742062616c616e636520666f6044820152651c8818d85b1b60d21b6064820152608401610639565b843b6134595760405162461bcd60e51b815260206004820152601d60248201527f416464726573733a2063616c6c20746f206e6f6e2d636f6e74726163740000006044820152606401610639565b600080866001600160a01b031685876040516134759190613ab4565b60006040518083038185875af1925050503d80600081146134b2576040519150601f19603f3d011682016040523d82523d6000602084013e6134b7565b606091505b5091509150613097828286606083156134d1575081611d4e565b8251156134e15782518084602001fd5b8160405162461bcd60e51b81526004016106399190613b59565b828054828255906000526020600020908101928215613550579160200282015b8281111561355057825182546001600160a01b0319166001600160a01b0390911617825560209092019160019091019061351b565b5061310b9291505b8082111561310b5760008155600101613558565b600082601f83011261357d57600080fd5b8135602067ffffffffffffffff8083111561359a5761359a613d77565b8260051b604051601f19603f830116810181811084821117156135bf576135bf613d77565b604052848152838101925086840182880185018910156135de57600080fd5b600092505b85831015613608576135f481613614565b8452928401926001929092019184016135e3565b50979650505050505050565b803561361f81613d8d565b919050565b80356001600160801b038116811461361f57600080fd5b60006020828403121561364d57600080fd5b8135611d4e81613d8d565b60006020828403121561366a57600080fd5b8151611d4e81613d8d565b6000806040838503121561368857600080fd5b823561369381613d8d565b915060208301356136a381613d8d565b809150509250929050565b600080600080606085870312156136c457600080fd5b84356136cf81613d8d565b935060208501356136df81613d8d565b9250604085013567ffffffffffffffff808211156136fc57600080fd5b818701915087601f83011261371057600080fd5b81358181111561371f57600080fd5b8860208260051b850101111561373457600080fd5b95989497505060200194505050565b60008060006060848603121561375857600080fd5b833561376381613d8d565b9250602084013561377381613d8d565b929592945050506040919091013590565b60008060008060006080868803121561379c57600080fd5b85356137a781613d8d565b945060208601356137b781613d8d565b935060408601359250606086013567ffffffffffffffff808211156137db57600080fd5b818801915088601f8301126137ef57600080fd5b8135818111156137fe57600080fd5b89602082850101111561381057600080fd5b9699959850939650602001949392505050565b60008060006060848603121561383857600080fd5b833561384381613d8d565b925061385160208501613624565b915061385f60408501613624565b90509250925092565b60008060006060848603121561387d57600080fd5b833561388881613d8d565b925060208401359150604084013561389f81613d8d565b809150509250925092565b600080600080608085870312156138c057600080fd5b84356138cb81613d8d565b93506020850135925060408501356138e281613d8d565b915060608501356138f281613d8d565b939692955090935050565b6000806000806080858703121561391357600080fd5b843561391e81613d8d565b935060208501359250604085013561393581613d8d565b9396929550929360600135925050565b60008060006060848603121561395a57600080fd5b833561396581613d8d565b95602085013595506040909401359392505050565b60006020828403121561398c57600080fd5b81518015158114611d4e57600080fd5b6000806000606084860312156139b157600080fd5b83356139bc81613d8d565b9250602084013567ffffffffffffffff8111156139d857600080fd5b6139e48682870161356c565b925050604084013590509250925092565b60008060008060808587031215613a0b57600080fd5b8435613a1681613d8d565b9350602085013567ffffffffffffffff811115613a3257600080fd5b613a3e8782880161356c565b9350506040850135915060608501356138f281613d8d565b600060208284031215613a6857600080fd5b5035919050565b600060208284031215613a8157600080fd5b5051919050565b60008151808452613aa0816020860160208601613d04565b601f01601f19169290920160200192915050565b60008251613ac6818460208701613d04565b9190910192915050565b6020808252825182820181905260009190848201906040850190845b81811015613b115783516001600160a01b031683529284019291840191600101613aec565b50909695505050505050565b6020808252810182905260006001600160fb1b03831115613b3d57600080fd5b8260051b80856040850137600092016040019182525092915050565b602081526000611d4e6020830184613a88565b6020808252601c908201527f5072697a65506f6f6c2f6f6e6c792d7072697a65537472617465677900000000604082015260600190565b6020808252602e908201527f496e697469616c697a61626c653a20636f6e747261637420697320616c72656160408201526d191e481a5b9a5d1a585b1a5e995960921b606082015260800190565b60208082526017908201527f5072697a65506f6f6c2f756e6b6e6f776e2d746f6b656e000000000000000000604082015260600190565b6020808252818101527f4f776e61626c653a2063616c6c6572206973206e6f7420746865206f776e6572604082015260600190565b6020808252601f908201527f5265656e7472616e637947756172643a207265656e7472616e742063616c6c00604082015260600190565b60008219821115613ca757613ca7613d4b565b500190565b600082613cc957634e487b7160e01b600052601260045260246000fd5b500490565b6000816000190483118215151615613ce857613ce8613d4b565b500290565b600082821015613cff57613cff613d4b565b500390565b60005b83811015613d1f578181015183820152602001613d07565b838111156108a45750506000910152565b6000600019821415613d4457613d44613d4b565b5060010190565b634e487b7160e01b600052601160045260246000fd5b634e487b7160e01b600052603260045260246000fd5b634e487b7160e01b600052604160045260246000fd5b6001600160a01b0381168114610a4557600080fdfea2646970667358221220b38456581c0ccf2b51bf6ada0973b653847f70aef1b64172f6342a8f8c9f65d764736f6c63430008060033",
  "devdoc": {
    "kind": "dev",
    "methods": {
      "create()": {
        "returns": {
          "_0": "A reference to the new proxied Compound Prize Pool"
        }
      }
    },
    "title": "Compound Prize Pool Proxy Factory",
    "version": 1
  },
  "userdoc": {
    "kind": "user",
    "methods": {
      "constructor": {
        "notice": "Initializes the Factory with an instance of the Compound Prize Pool"
      },
      "create()": {
        "notice": "Creates a new Compound Prize Pool as a proxy of the template instance"
      },
      "instance()": {
        "notice": "Contract template for deploying proxied Prize Pools"
      }
    },
    "notice": "Minimal proxy pattern for creating new Compound Prize Pools",
    "version": 1
  },
  "storageLayout": {
    "storage": [
      {
        "astId": 16360,
        "contract": "contracts/test/CompoundPrizePoolHarnessProxyFactory.sol:CompoundPrizePoolHarnessProxyFactory",
        "label": "instance",
        "offset": 0,
        "slot": "0",
        "type": "t_contract(CompoundPrizePoolHarness)13958"
      }
    ],
    "types": {
      "t_contract(CompoundPrizePoolHarness)13958": {
        "encoding": "inplace",
        "label": "contract CompoundPrizePoolHarness",
        "numberOfBytes": "20"
      }
    }
  }
}