{
  "address": "0x0165878A594ca255338adfa4d48449f69242Eb8F",
  "abi": [
    {
      "inputs": [
        {
          "internalType": "contract ControlledTokenProxyFactory",
          "name": "_controlledTokenProxyFactory",
          "type": "address"
        },
        {
          "internalType": "contract TicketProxyFactory",
          "name": "_ticketProxyFactory",
          "type": "address"
        }
      ],
      "stateMutability": "nonpayable",
      "type": "constructor"
    },
    {
      "anonymous": false,
      "inputs": [
        {
          "indexed": true,
          "internalType": "address",
          "name": "token",
          "type": "address"
        }
      ],
      "name": "CreatedControlledToken",
      "type": "event"
    },
    {
      "anonymous": false,
      "inputs": [
        {
          "indexed": true,
          "internalType": "address",
          "name": "token",
          "type": "address"
        }
      ],
      "name": "CreatedTicket",
      "type": "event"
    },
    {
      "inputs": [],
      "name": "controlledTokenProxyFactory",
      "outputs": [
        {
          "internalType": "contract ControlledTokenProxyFactory",
          "name": "",
          "type": "address"
        }
      ],
      "stateMutability": "view",
      "type": "function"
    },
    {
      "inputs": [
        {
          "components": [
            {
              "internalType": "string",
              "name": "name",
              "type": "string"
            },
            {
              "internalType": "string",
              "name": "symbol",
              "type": "string"
            },
            {
              "internalType": "uint8",
              "name": "decimals",
              "type": "uint8"
            },
            {
              "internalType": "contract TokenControllerInterface",
              "name": "controller",
              "type": "address"
            }
          ],
          "internalType": "struct ControlledTokenBuilder.ControlledTokenConfig",
          "name": "config",
          "type": "tuple"
        }
      ],
      "name": "createControlledToken",
      "outputs": [
        {
          "internalType": "contract ControlledToken",
          "name": "",
          "type": "address"
        }
      ],
      "stateMutability": "nonpayable",
      "type": "function"
    },
    {
      "inputs": [
        {
          "components": [
            {
              "internalType": "string",
              "name": "name",
              "type": "string"
            },
            {
              "internalType": "string",
              "name": "symbol",
              "type": "string"
            },
            {
              "internalType": "uint8",
              "name": "decimals",
              "type": "uint8"
            },
            {
              "internalType": "contract TokenControllerInterface",
              "name": "controller",
              "type": "address"
            }
          ],
          "internalType": "struct ControlledTokenBuilder.ControlledTokenConfig",
          "name": "config",
          "type": "tuple"
        }
      ],
      "name": "createTicket",
      "outputs": [
        {
          "internalType": "contract Ticket",
          "name": "",
          "type": "address"
        }
      ],
      "stateMutability": "nonpayable",
      "type": "function"
    },
    {
      "inputs": [],
      "name": "ticketProxyFactory",
      "outputs": [
        {
          "internalType": "contract TicketProxyFactory",
          "name": "",
          "type": "address"
        }
      ],
      "stateMutability": "view",
      "type": "function"
    }
  ],
  "transactionHash": "0xadacc278a6e7c9e625a5a1ba9d6dea8dbafc7f352b2839eda44bdfff54622025",
  "args": [
    "0xe7f1725E7734CE288F8367e1Bb143E90bb3F0512",
    "0x9fE46736679d2D9a65F0992F2272dE9f3c7fa6e0"
  ],
  "solcInputHash": "b3f16b26ce5bbb86e7ef5bf9dd11ea21",
  "bytecode": "0x608060405234801561001057600080fd5b506040516106d13803806106d183398101604081905261002f91610152565b6001600160a01b0382166100b05760405162461bcd60e51b815260206004820152603b60248201527f436f6e74726f6c6c6564546f6b656e4275696c6465722f636f6e74726f6c6c6560448201527f64546f6b656e50726f7879466163746f72792d6e6f742d7a65726f000000000060648201526084015b60405180910390fd5b6001600160a01b0381166101215760405162461bcd60e51b815260206004820152603260248201527f436f6e74726f6c6c6564546f6b656e4275696c6465722f7469636b657450726f6044820152717879466163746f72792d6e6f742d7a65726f60701b60648201526084016100a7565b600080546001600160a01b039384166001600160a01b031991821617909155600180549290931691161790556101a4565b6000806040838503121561016557600080fd5b82516101708161018c565b60208401519092506101818161018c565b809150509250929050565b6001600160a01b03811681146101a157600080fd5b50565b61051e806101b36000396000f3fe608060405234801561001057600080fd5b506004361061004c5760003560e01c80636a81d8bd146100515780638c0cd38d146100805780638e22585d14610093578063aa3b296c146100a6575b600080fd5b600054610064906001600160a01b031681565b6040516001600160a01b03909116815260200160405180910390f35b61006461008e3660046103ad565b6100b9565b6100646100a13660046103ad565b61020c565b600154610064906001600160a01b031681565b6000805460408051633bf206a360e21b8152905183926001600160a01b03169163efc81a8c91600480830192602092919082900301818787803b1580156100ff57600080fd5b505af1158015610113573d6000803e3d6000fd5b505050506040513d601f19601f82011682018060405250810190610137919061036c565b90506001600160a01b03811663de7ea79d6101528580610482565b61015f6020880188610482565b61016f60608a0160408b016103e8565b61017f60808b0160608c01610390565b6040518763ffffffff1660e01b81526004016101a096959493929190610434565b600060405180830381600087803b1580156101ba57600080fd5b505af11580156101ce573d6000803e3d6000fd5b50506040516001600160a01b03841692507fe3d5734f17a493c850907f8a8366a543676afd8eeb9b7cd16e22c998297d8ebd9150600090a292915050565b600080600160009054906101000a90046001600160a01b03166001600160a01b031663efc81a8c6040518163ffffffff1660e01b8152600401602060405180830381600087803b15801561025f57600080fd5b505af1158015610273573d6000803e3d6000fd5b505050506040513d601f19601f82011682018060405250810190610297919061036c565b90506001600160a01b03811663de7ea79d6102b28580610482565b6102bf6020880188610482565b6102cf60608a0160408b016103e8565b6102df60808b0160608c01610390565b6040518763ffffffff1660e01b815260040161030096959493929190610434565b600060405180830381600087803b15801561031a57600080fd5b505af115801561032e573d6000803e3d6000fd5b50506040516001600160a01b03841692507ff771026f1a6d488c23bb75726c18bcc96f290b64209576da54a46c80fd335cab9150600090a292915050565b60006020828403121561037e57600080fd5b8151610389816104d0565b9392505050565b6000602082840312156103a257600080fd5b8135610389816104d0565b6000602082840312156103bf57600080fd5b813567ffffffffffffffff8111156103d657600080fd5b82016080818503121561038957600080fd5b6000602082840312156103fa57600080fd5b813560ff8116811461038957600080fd5b81835281816020850137506000828201602090810191909152601f909101601f19169091010190565b60808152600061044860808301888a61040b565b828103602084015261045b81878961040b565b60ff95909516604084015250506001600160a01b0391909116606090910152949350505050565b6000808335601e1984360301811261049957600080fd5b83018035915067ffffffffffffffff8211156104b457600080fd5b6020019150368190038213156104c957600080fd5b9250929050565b6001600160a01b03811681146104e557600080fd5b5056fea26469706673582212200770204aa2021f7febf957f5c422656c6b251c5ebcc9179d0862220a67908a1a64736f6c63430008060033",
  "devdoc": {
    "kind": "dev",
    "methods": {},
    "version": 1
  },
  "userdoc": {
    "kind": "user",
    "methods": {},
    "version": 1
  },
  "storageLayout": {
    "storage": [
      {
        "astId": 7940,
        "contract": "contracts/builders/ControlledTokenBuilder.sol:ControlledTokenBuilder",
        "label": "controlledTokenProxyFactory",
        "offset": 0,
        "slot": "0",
        "type": "t_contract(ControlledTokenProxyFactory)15059"
      },
      {
        "astId": 7943,
        "contract": "contracts/builders/ControlledTokenBuilder.sol:ControlledTokenBuilder",
        "label": "ticketProxyFactory",
        "offset": 0,
        "slot": "1",
        "type": "t_contract(TicketProxyFactory)6280"
      }
    ],
    "types": {
      "t_contract(ControlledTokenProxyFactory)15059": {
        "encoding": "inplace",
        "label": "contract ControlledTokenProxyFactory",
        "numberOfBytes": "20"
      },
      "t_contract(TicketProxyFactory)6280": {
        "encoding": "inplace",
        "label": "contract TicketProxyFactory",
        "numberOfBytes": "20"
      }
    }
  }
}