{
  "address": "0xe7f1725E7734CE288F8367e1Bb143E90bb3F0512",
  "abi": [
    {
      "inputs": [],
      "stateMutability": "nonpayable",
      "type": "constructor"
    },
    {
      "anonymous": false,
      "inputs": [
        {
          "indexed": false,
          "internalType": "address",
          "name": "proxy",
          "type": "address"
        }
      ],
      "name": "ProxyCreated",
      "type": "event"
    },
    {
      "inputs": [],
      "name": "create",
      "outputs": [
        {
          "internalType": "contract ControlledToken",
          "name": "",
          "type": "address"
        }
      ],
      "stateMutability": "nonpayable",
      "type": "function"
    },
    {
      "inputs": [
        {
          "internalType": "address",
          "name": "_logic",
          "type": "address"
        },
        {
          "internalType": "bytes",
          "name": "_data",
          "type": "bytes"
        }
      ],
      "name": "deployMinimal",
      "outputs": [
        {
          "internalType": "address",
          "name": "proxy",
          "type": "address"
        }
      ],
      "stateMutability": "nonpayable",
      "type": "function"
    },
    {
      "inputs": [],
      "name": "instance",
      "outputs": [
        {
          "internalType": "contract ControlledToken",
          "name": "",
          "type": "address"
        }
      ],
      "stateMutability": "view",
      "type": "function"
    }
  ],
  "transactionHash": "0xaddc4bcab87a234513895f4952163798426e14547132673964cc719d38587074",
  "args": [],
  "solcInputHash": "b3f16b26ce5bbb86e7ef5bf9dd11ea21",
  "bytecode": "0x608060405234801561001057600080fd5b5060405161001d9061005f565b604051809103906000f080158015610039573d6000803e3d6000fd5b50600080546001600160a01b0319166001600160a01b039290921691909117905561006c565b6119df806103e283390190565b6103678061007b6000396000f3fe608060405234801561001057600080fd5b50600436106100415760003560e01c8063022ec09514610046578063b3eeb5e214610075578063efc81a8c14610088575b600080fd5b600054610059906001600160a01b031681565b6040516001600160a01b03909116815260200160405180910390f35b610059610083366004610210565b610090565b6100596101e6565b6000808360601b9050604051733d602d80600a3d3981f3363d3d373d3d3d363d7360601b81528160148201526e5af43d82803e903d91602b57fd5bf360881b60288201526037816000f06040516001600160a01b03821681529093507efffc2da0b561cae30d9826d37709e9421c4725faebc226cbbb7ef5fc5e7349915060200160405180910390a18251156101df576000826001600160a01b03168460405161013a91906102e0565b6000604051808303816000865af19150503d8060008114610177576040519150601f19603f3d011682016040523d82523d6000602084013e61017c565b606091505b50509050806101dd5760405162461bcd60e51b8152602060048201526024808201527f50726f7879466163746f72792f636f6e7374727563746f722d63616c6c2d66616044820152631a5b195960e21b606482015260840160405180910390fd5b505b5092915050565b60008054604080516020810190915282815261020b916001600160a01b031690610090565b905090565b6000806040838503121561022357600080fd5b82356001600160a01b038116811461023a57600080fd5b9150602083013567ffffffffffffffff8082111561025757600080fd5b818501915085601f83011261026b57600080fd5b81358181111561027d5761027d61031b565b604051601f8201601f19908116603f011681019083821181831017156102a5576102a561031b565b816040528281528860208487010111156102be57600080fd5b8260208601602083013760006020848301015280955050505050509250929050565b6000825160005b8181101561030157602081860181015185830152016102e7565b81811115610310576000828501525b509190910192915050565b634e487b7160e01b600052604160045260246000fdfea2646970667358221220d71b78f81cee85ccba222c19ab50d9ae7b185951d0d7d55762a862f0b8812b1164736f6c63430008060033608060405234801561001057600080fd5b506119bf806100206000396000f3fe608060405234801561001057600080fd5b50600436106101215760003560e01c806370a08231116100ad578063a9059cbb11610071578063a9059cbb14610248578063d505accf1461025b578063dd62ed3e1461026e578063de7ea79d146102a7578063f77c4791146102ba57600080fd5b806370a08231146101de5780637ecebe001461020757806390596dd11461021a57806395d89b411461022d578063a457c2d71461023557600080fd5b8063313ce567116100f4578063313ce5671461018c5780633644e5151461019b57806339509351146101a35780635d7b0758146101b6578063631b5dfb146101cb57600080fd5b806306fdde0314610126578063095ea7b31461014457806318160ddd1461016757806323b872dd14610179575b600080fd5b61012e6102e5565b60405161013b9190611802565b60405180910390f35b610157610152366004611702565b610377565b604051901515815260200161013b565b6035545b60405190815260200161013b565b610157610187366004611653565b61038d565b6040516012815260200161013b565b61016b61043c565b6101576101b1366004611702565b61044b565b6101c96101c4366004611702565b610487565b005b6101c96101d9366004611653565b6104c8565b61016b6101ec3660046115f6565b6001600160a01b031660009081526033602052604090205490565b61016b6102153660046115f6565b610565565b6101c9610228366004611702565b610585565b61012e6105c2565b610157610243366004611702565b6105d1565b610157610256366004611702565b61066a565b6101c9610269366004611694565b610677565b61016b61027c36600461161a565b6001600160a01b03918216600090815260346020908152604080832093909416825291909152205490565b6101c96102b536600461172e565b6107bd565b60cc546102cd906001600160a01b031681565b6040516001600160a01b03909116815260200161013b565b6060603680546102f490611913565b80601f016020809104026020016040519081016040528092919081815260200182805461032090611913565b801561036d5780601f106103425761010080835404028352916020019161036d565b820191906000526020600020905b81548152906001019060200180831161035057829003601f168201915b5050505050905090565b6000610384338484610930565b50600192915050565b600061039a848484610a54565b6001600160a01b0384166000908152603460209081526040808320338452909152902054828110156104245760405162461bcd60e51b815260206004820152602860248201527f45524332303a207472616e7366657220616d6f756e74206578636565647320616044820152676c6c6f77616e636560c01b60648201526084015b60405180910390fd5b6104318533858403610930565b506001949350505050565b6000610446610c2e565b905090565b3360008181526034602090815260408083206001600160a01b038716845290915281205490916103849185906104829086906118e4565b610930565b60cc546001600160a01b0316336001600160a01b0316146104ba5760405162461bcd60e51b815260040161041b906118ad565b6104c48282610ca9565b5050565b60cc546001600160a01b0316336001600160a01b0316146104fb5760405162461bcd60e51b815260040161041b906118ad565b816001600160a01b0316836001600160a01b031614610556576001600160a01b0382811660009081526034602090815260408083209387168352929052908120546105479083906118fc565b9050610554838583610930565b505b6105608282610d94565b505050565b6001600160a01b0381166000908152609960205260408120545b92915050565b60cc546001600160a01b0316336001600160a01b0316146105b85760405162461bcd60e51b815260040161041b906118ad565b6104c48282610d94565b6060603780546102f490611913565b3360009081526034602090815260408083206001600160a01b0386168452909152812054828110156106535760405162461bcd60e51b815260206004820152602560248201527f45524332303a2064656372656173656420616c6c6f77616e63652062656c6f77604482015264207a65726f60d81b606482015260840161041b565b6106603385858403610930565b5060019392505050565b6000610384338484610a54565b834211156106c75760405162461bcd60e51b815260206004820152601d60248201527f45524332305065726d69743a206578706972656420646561646c696e65000000604482015260640161041b565b6000609a548888886106d88c610eee565b6040805160208101969096526001600160a01b0394851690860152929091166060840152608083015260a082015260c0810186905260e001604051602081830303815290604052805190602001209050600061073382610f16565b9050600061074382878787610f64565b9050896001600160a01b0316816001600160a01b0316146107a65760405162461bcd60e51b815260206004820152601e60248201527f45524332305065726d69743a20696e76616c6964207369676e61747572650000604482015260640161041b565b6107b18a8a8a610930565b50505050505050505050565b600054610100900460ff16806107d6575060005460ff16155b6107f25760405162461bcd60e51b815260040161041b9061185f565b600054610100900460ff16158015610814576000805461ffff19166101011790555b6001600160a01b0382166108765760405162461bcd60e51b815260206004820152602360248201527f436f6e74726f6c6c6564546f6b656e2f636f6e74726f6c6c65722d6e6f742d7a60448201526265726f60e81b606482015260840161041b565b610880858561110d565b6108be6040518060400160405280601c81526020017f506f6f6c546f67657468657220436f6e74726f6c6c6564546f6b656e0000000081525061118c565b60cc80546001600160a01b0319166001600160a01b0384161790556040517f41bc1176d7b9b7bc036f385a7e5b08b0662a7afa0844af8a599ad431150227e19061090f908790879087908790611815565b60405180910390a18015610929576000805461ff00191690555b5050505050565b6001600160a01b0383166109925760405162461bcd60e51b8152602060048201526024808201527f45524332303a20617070726f76652066726f6d20746865207a65726f206164646044820152637265737360e01b606482015260840161041b565b6001600160a01b0382166109f35760405162461bcd60e51b815260206004820152602260248201527f45524332303a20617070726f766520746f20746865207a65726f206164647265604482015261737360f01b606482015260840161041b565b6001600160a01b0383811660008181526034602090815260408083209487168084529482529182902085905590518481527f8c5be1e5ebec7d5bd14f71427d1e84f3dd0314c0f7b2291e5b200ac8c7c3b925910160405180910390a3505050565b6001600160a01b038316610ab85760405162461bcd60e51b815260206004820152602560248201527f45524332303a207472616e736665722066726f6d20746865207a65726f206164604482015264647265737360d81b606482015260840161041b565b6001600160a01b038216610b1a5760405162461bcd60e51b815260206004820152602360248201527f45524332303a207472616e7366657220746f20746865207a65726f206164647260448201526265737360e81b606482015260840161041b565b610b2583838361122c565b6001600160a01b03831660009081526033602052604090205481811015610b9d5760405162461bcd60e51b815260206004820152602660248201527f45524332303a207472616e7366657220616d6f756e7420657863656564732062604482015265616c616e636560d01b606482015260840161041b565b6001600160a01b03808516600090815260336020526040808220858503905591851681529081208054849290610bd49084906118e4565b92505081905550826001600160a01b0316846001600160a01b03167fddf252ad1be2c89b69c2b068fc378daa952ba7f163c4a11628f55a4df523b3ef84604051610c2091815260200190565b60405180910390a350505050565b60006104467f8b73c3c69bb8fe3d512ecc4cf759cc79239f7b179b0ffacaa9a75d522b39400f610c5d60655490565b6066546040805160208101859052908101839052606081018290524660808201523060a082015260009060c0016040516020818303038152906040528051906020012090509392505050565b6001600160a01b038216610cff5760405162461bcd60e51b815260206004820152601f60248201527f45524332303a206d696e7420746f20746865207a65726f206164647265737300604482015260640161041b565b610d0b6000838361122c565b8060356000828254610d1d91906118e4565b90915550506001600160a01b03821660009081526033602052604081208054839290610d4a9084906118e4565b90915550506040518181526001600160a01b038316906000907fddf252ad1be2c89b69c2b068fc378daa952ba7f163c4a11628f55a4df523b3ef9060200160405180910390a35050565b6001600160a01b038216610df45760405162461bcd60e51b815260206004820152602160248201527f45524332303a206275726e2066726f6d20746865207a65726f206164647265736044820152607360f81b606482015260840161041b565b610e008260008361122c565b6001600160a01b03821660009081526033602052604090205481811015610e745760405162461bcd60e51b815260206004820152602260248201527f45524332303a206275726e20616d6f756e7420657863656564732062616c616e604482015261636560f01b606482015260840161041b565b6001600160a01b0383166000908152603360205260408120838303905560358054849290610ea39084906118fc565b90915550506040518281526000906001600160a01b038516907fddf252ad1be2c89b69c2b068fc378daa952ba7f163c4a11628f55a4df523b3ef9060200160405180910390a3505050565b6001600160a01b03811660009081526099602052604090208054600181018255905b50919050565b600061057f610f23610c2e565b8360405161190160f01b6020820152602281018390526042810182905260009060620160405160208183030381529060405280519060200120905092915050565b60007f7fffffffffffffffffffffffffffffff5d576e7357a4501ddfe92f46681b20a0821115610fe15760405162461bcd60e51b815260206004820152602260248201527f45434453413a20696e76616c6964207369676e6174757265202773272076616c604482015261756560f01b606482015260840161041b565b8360ff16601b1480610ff657508360ff16601c145b61104d5760405162461bcd60e51b815260206004820152602260248201527f45434453413a20696e76616c6964207369676e6174757265202776272076616c604482015261756560f01b606482015260840161041b565b6040805160008082526020820180845288905260ff871692820192909252606081018590526080810184905260019060a0016020604051602081039080840390855afa1580156110a1573d6000803e3d6000fd5b5050604051601f1901519150506001600160a01b0381166111045760405162461bcd60e51b815260206004820152601860248201527f45434453413a20696e76616c6964207369676e61747572650000000000000000604482015260640161041b565b95945050505050565b600054610100900460ff1680611126575060005460ff16155b6111425760405162461bcd60e51b815260040161041b9061185f565b600054610100900460ff16158015611164576000805461ffff19166101011790555b61116c61129f565b611176838361130b565b8015610560576000805461ff0019169055505050565b600054610100900460ff16806111a5575060005460ff16155b6111c15760405162461bcd60e51b815260040161041b9061185f565b600054610100900460ff161580156111e3576000805461ffff19166101011790555b6111eb61129f565b61120e82604051806040016040528060018152602001603160f81b8152506113a0565b6112178261142a565b80156104c4576000805461ff00191690555050565b60cc54604051637cbab1c760e01b81526001600160a01b03858116600483015284811660248301526044820184905290911690637cbab1c790606401600060405180830381600087803b15801561128257600080fd5b505af1158015611296573d6000803e3d6000fd5b50505050505050565b600054610100900460ff16806112b8575060005460ff16155b6112d45760405162461bcd60e51b815260040161041b9061185f565b600054610100900460ff161580156112f6576000805461ffff19166101011790555b8015611308576000805461ff00191690555b50565b600054610100900460ff1680611324575060005460ff16155b6113405760405162461bcd60e51b815260040161041b9061185f565b600054610100900460ff16158015611362576000805461ffff19166101011790555b82516113759060369060208601906114ba565b5081516113899060379060208501906114ba565b508015610560576000805461ff0019169055505050565b600054610100900460ff16806113b9575060005460ff16155b6113d55760405162461bcd60e51b815260040161041b9061185f565b600054610100900460ff161580156113f7576000805461ffff19166101011790555b82516020808501919091208351918401919091206065919091556066558015610560576000805461ff0019169055505050565b600054610100900460ff1680611443575060005460ff16155b61145f5760405162461bcd60e51b815260040161041b9061185f565b600054610100900460ff16158015611481576000805461ffff19166101011790555b7f6e71edae12b1b97f4d1f60370fef10105fa2faae0126114a169c64845d6126c9609a5580156104c4576000805461ff00191690555050565b8280546114c690611913565b90600052602060002090601f0160209004810192826114e8576000855561152e565b82601f1061150157805160ff191683800117855561152e565b8280016001018555821561152e579182015b8281111561152e578251825591602001919060010190611513565b5061153a92915061153e565b5090565b5b8082111561153a576000815560010161153f565b600082601f83011261156457600080fd5b813567ffffffffffffffff8082111561157f5761157f61195e565b604051601f8301601f19908116603f011681019082821181831017156115a7576115a761195e565b816040528381528660208588010111156115c057600080fd5b836020870160208301376000602085830101528094505050505092915050565b803560ff811681146115f157600080fd5b919050565b60006020828403121561160857600080fd5b813561161381611974565b9392505050565b6000806040838503121561162d57600080fd5b823561163881611974565b9150602083013561164881611974565b809150509250929050565b60008060006060848603121561166857600080fd5b833561167381611974565b9250602084013561168381611974565b929592945050506040919091013590565b600080600080600080600060e0888a0312156116af57600080fd5b87356116ba81611974565b965060208801356116ca81611974565b955060408801359450606088013593506116e6608089016115e0565b925060a0880135915060c0880135905092959891949750929550565b6000806040838503121561171557600080fd5b823561172081611974565b946020939093013593505050565b6000806000806080858703121561174457600080fd5b843567ffffffffffffffff8082111561175c57600080fd5b61176888838901611553565b9550602087013591508082111561177e57600080fd5b5061178b87828801611553565b93505061179a604086016115e0565b915060608501356117aa81611974565b939692955090935050565b6000815180845260005b818110156117db576020818501810151868301820152016117bf565b818111156117ed576000602083870101525b50601f01601f19169290920160200192915050565b60208152600061161360208301846117b5565b60808152600061182860808301876117b5565b828103602084015261183a81876117b5565b60ff95909516604084015250506001600160a01b039190911660609091015292915050565b6020808252602e908201527f496e697469616c697a61626c653a20636f6e747261637420697320616c72656160408201526d191e481a5b9a5d1a585b1a5e995960921b606082015260800190565b6020808252601f908201527f436f6e74726f6c6c6564546f6b656e2f6f6e6c792d636f6e74726f6c6c657200604082015260600190565b600082198211156118f7576118f7611948565b500190565b60008282101561190e5761190e611948565b500390565b600181811c9082168061192757607f821691505b60208210811415610f1057634e487b7160e01b600052602260045260246000fd5b634e487b7160e01b600052601160045260246000fd5b634e487b7160e01b600052604160045260246000fd5b6001600160a01b038116811461130857600080fdfea26469706673582212204373f03f386daf8e6f52ac361029eaed9ed36f1394580cbbd5fa858368d8779c64736f6c63430008060033",
  "devdoc": {
    "kind": "dev",
    "methods": {
      "create()": {
        "returns": {
          "_0": "A reference to the new proxied Controlled ERC20 Token"
        }
      }
    },
    "title": "Controlled ERC20 Token Factory",
    "version": 1
  },
  "userdoc": {
    "kind": "user",
    "methods": {
      "constructor": {
        "notice": "Initializes the Factory with an instance of the Controlled ERC20 Token"
      },
      "create()": {
        "notice": "Creates a new Controlled ERC20 Token as a proxy of the template instance"
      },
      "instance()": {
        "notice": "Contract template for deploying proxied tokens"
      }
    },
    "notice": "Minimal proxy pattern for creating new Controlled ERC20 Tokens",
    "version": 1
  },
  "storageLayout": {
    "storage": [
      {
        "astId": 16360,
        "contract": "contracts/test/ControlledTokenDeployerProxyFactory.sol:ControlledTokenDeployerProxyFactory",
        "label": "instance",
        "offset": 0,
        "slot": "0",
        "type": "t_contract(ControlledToken)14976"
      }
    ],
    "types": {
      "t_contract(ControlledToken)14976": {
        "encoding": "inplace",
        "label": "contract ControlledToken",
        "numberOfBytes": "20"
      }
    }
  }
}