{
  "address": "0x2279B7A0a67DB372996a5FaB50D91eAA73d2eBe6",
  "abi": [
    {
      "inputs": [
        {
          "internalType": "contract RegistryInterface",
          "name": "_reserveRegistry",
          "type": "address"
        },
        {
          "internalType": "contract CompoundPrizePoolProxyFactory",
          "name": "_compoundPrizePoolProxyFactory",
          "type": "address"
        },
        {
          "internalType": "contract ClaimableDrawPrizeStrategyBuilder",
          "name": "_claimableDrawPrizeStrategyBuilder",
          "type": "address"
        }
      ],
      "stateMutability": "nonpayable",
      "type": "constructor"
    },
    {
      "anonymous": false,
      "inputs": [
        {
          "indexed": true,
          "internalType": "contract CompoundPrizePool",
          "name": "prizePool",
          "type": "address"
        },
        {
          "indexed": true,
          "internalType": "contract ClaimableDrawPrizeStrategy",
          "name": "prizeStrategy",
          "type": "address"
        }
      ],
      "name": "CompoundPrizePoolWithClaimableDrawCreated",
      "type": "event"
    },
    {
      "inputs": [],
      "name": "claimableDrawPrizeStrategyBuilder",
      "outputs": [
        {
          "internalType": "contract ClaimableDrawPrizeStrategyBuilder",
          "name": "",
          "type": "address"
        }
      ],
      "stateMutability": "view",
      "type": "function"
    },
    {
      "inputs": [],
      "name": "compoundPrizePoolProxyFactory",
      "outputs": [
        {
          "internalType": "contract CompoundPrizePoolProxyFactory",
          "name": "",
          "type": "address"
        }
      ],
      "stateMutability": "view",
      "type": "function"
    },
    {
      "inputs": [
        {
          "components": [
            {
              "internalType": "contract CTokenInterface",
              "name": "cToken",
              "type": "address"
            },
            {
              "internalType": "uint256",
              "name": "maxExitFeeMantissa",
              "type": "uint256"
            }
          ],
          "internalType": "struct PoolClaimableDrawPrizeStrategyBuilder.CompoundPrizePoolConfig",
          "name": "prizePoolConfig",
          "type": "tuple"
        },
        {
          "components": [
            {
              "internalType": "contract RNGInterface",
              "name": "rngService",
              "type": "address"
            },
            {
              "internalType": "uint256",
              "name": "prizePeriodStart",
              "type": "uint256"
            },
            {
              "internalType": "uint256",
              "name": "prizePeriodSeconds",
              "type": "uint256"
            },
            {
              "internalType": "string",
              "name": "ticketName",
              "type": "string"
            },
            {
              "internalType": "string",
              "name": "ticketSymbol",
              "type": "string"
            },
            {
              "internalType": "string",
              "name": "sponsorshipName",
              "type": "string"
            },
            {
              "internalType": "string",
              "name": "sponsorshipSymbol",
              "type": "string"
            },
            {
              "internalType": "uint256",
              "name": "ticketCreditLimitMantissa",
              "type": "uint256"
            },
            {
              "internalType": "uint256",
              "name": "ticketCreditRateMantissa",
              "type": "uint256"
            },
            {
              "components": [
                {
                  "internalType": "address",
                  "name": "target",
                  "type": "address"
                },
                {
                  "internalType": "uint16",
                  "name": "percentage",
                  "type": "uint16"
                },
                {
                  "internalType": "uint8",
                  "name": "token",
                  "type": "uint8"
                }
              ],
              "internalType": "struct PrizeSplit.PrizeSplitConfig[]",
              "name": "prizeSplits",
              "type": "tuple[]"
            },
            {
              "internalType": "bool",
              "name": "splitExternalErc20Awards",
              "type": "bool"
            }
          ],
          "internalType": "struct ClaimableDrawPrizeStrategyBuilder.ClaimableDrawBuilderConfig",
          "name": "prizeStrategyConfig",
          "type": "tuple"
        },
        {
          "components": [
            {
              "internalType": "uint8",
              "name": "bitRangeValue",
              "type": "uint8"
            },
            {
              "internalType": "uint8",
              "name": "bitRangeSize",
              "type": "uint8"
            },
            {
              "internalType": "uint16",
              "name": "matchCardinality",
              "type": "uint16"
            },
            {
              "internalType": "uint224",
              "name": "pickCost",
              "type": "uint224"
            },
            {
              "internalType": "uint256[]",
              "name": "distributions",
              "type": "uint256[]"
            }
          ],
          "internalType": "struct TsunamiDrawCalculator.DrawSettings",
          "name": "calculatorDrawSettings",
          "type": "tuple"
        },
        {
          "internalType": "uint8",
          "name": "decimals",
          "type": "uint8"
        }
      ],
      "name": "createCompoundClaimableDrawPrizeStrategy",
      "outputs": [
        {
          "internalType": "contract CompoundPrizePool",
          "name": "",
          "type": "address"
        }
      ],
      "stateMutability": "nonpayable",
      "type": "function"
    },
    {
      "inputs": [],
      "name": "reserveRegistry",
      "outputs": [
        {
          "internalType": "contract RegistryInterface",
          "name": "",
          "type": "address"
        }
      ],
      "stateMutability": "view",
      "type": "function"
    }
  ],
  "transactionHash": "0x07a274c91fa82bd4719b8c1eb92562893a89c4b49f46c9b4a30cf6559adfd471",
  "args": [
    "0x0165878A594ca255338adfa4d48449f69242Eb8F",
    "0xa513E6E4b8f2a923D98304ec87F64353C4D5C853",
    "0xa513E6E4b8f2a923D98304ec87F64353C4D5C853"
  ],
  "solcInputHash": "b3f16b26ce5bbb86e7ef5bf9dd11ea21",
  "bytecode": "0x60806040523480156200001157600080fd5b506040516200110a3803806200110a8339810160408190526200003491620001de565b6001600160a01b0383166200009f5760405162461bcd60e51b815260206004820152602660248201527f476c6f62616c4275696c6465722f7265736572766552656769737472792d6e6f604482015265742d7a65726f60d01b60648201526084015b60405180910390fd5b6001600160a01b0382166200011d5760405162461bcd60e51b815260206004820152603460248201527f476c6f62616c4275696c6465722f636f6d706f756e645072697a65506f6f6c5060448201527f726f7879466163746f72792d6e6f742d7a65726f000000000000000000000000606482015260840162000096565b6001600160a01b0381166200019b5760405162461bcd60e51b815260206004820152603860248201527f476c6f62616c4275696c6465722f636c61696d61626c65447261775072697a6560448201527f53747261746567794275696c6465722d6e6f742d7a65726f0000000000000000606482015260840162000096565b600080546001600160a01b039485166001600160a01b0319918216179091556001805493851693821693909317909255600280549190931691161790556200024b565b600080600060608486031215620001f457600080fd5b8351620002018162000232565b6020850151909350620002148162000232565b6040850151909250620002278162000232565b809150509250925092565b6001600160a01b03811681146200024857600080fd5b50565b610eaf806200025b6000396000f3fe608060405234801561001057600080fd5b506004361061004c5760003560e01c80633c23f58914610051578063802125f5146100805780638e71c1f614610093578063c70f9b73146100a6575b600080fd5b600254610064906001600160a01b031681565b6040516001600160a01b03909116815260200160405180910390f35b600154610064906001600160a01b031681565b600054610064906001600160a01b031681565b6100646100b43660046108ab565b600080600160009054906101000a90046001600160a01b03166001600160a01b031663efc81a8c6040518163ffffffff1660e01b8152600401602060405180830381600087803b15801561010757600080fd5b505af115801561011b573d6000803e3d6000fd5b505050506040513d601f19601f8201168201806040525081019061013f9190610887565b6002546040516302727b8960e41b81529192506000916001600160a01b0390911690632727b8909061017d9085908a908a908a903390600401610b99565b602060405180830381600087803b15801561019757600080fd5b505af11580156101ab573d6000803e3d6000fd5b505050506040513d601f19601f820116820180604052508101906101cf9190610887565b6000549091506001600160a01b038084169163c587148591166101f18461044e565b60208b01518b516040516001600160e01b031960e087901b16815261021c9493929190600401610cdf565b600060405180830381600087803b15801561023657600080fd5b505af115801561024a573d6000803e3d6000fd5b50506040516348e5240760e11b81526001600160a01b038481166004830152851692506391ca480e9150602401600060405180830381600087803b15801561029157600080fd5b505af11580156102a5573d6000803e3d6000fd5b50505050816001600160a01b031663a7b2cc31826001600160a01b0316636cc25db76040518163ffffffff1660e01b815260040160206040518083038186803b1580156102f157600080fd5b505afa158015610305573d6000803e3d6000fd5b505050506040513d601f19601f820116820180604052508101906103299190610887565b6103378961010001516105b9565b6103448a60e001516105b9565b6040516001600160e01b031960e086901b1681526001600160a01b0390931660048401526001600160801b039182166024840152166044820152606401600060405180830381600087803b15801561039b57600080fd5b505af11580156103af573d6000803e3d6000fd5b505060405163f2fde38b60e01b81523360048201526001600160a01b038516925063f2fde38b9150602401600060405180830381600087803b1580156103f457600080fd5b505af1158015610408573d6000803e3d6000fd5b50506040516001600160a01b038085169350851691507f7e3b57ee0b8fb86cf628f5d9026d14d85417ff73a3dd267502c0cd41e675372290600090a35095945050505050565b60408051600280825260608083018452926000929190602083019080368337019050509050826001600160a01b0316636cc25db76040518163ffffffff1660e01b815260040160206040518083038186803b1580156104ac57600080fd5b505afa1580156104c0573d6000803e3d6000fd5b505050506040513d601f19601f820116820180604052508101906104e49190610887565b816000815181106104f7576104f7610e35565b60200260200101906001600160a01b031690816001600160a01b031681525050826001600160a01b031663500db70d6040518163ffffffff1660e01b815260040160206040518083038186803b15801561055057600080fd5b505afa158015610564573d6000803e3d6000fd5b505050506040513d601f19601f820116820180604052508101906105889190610887565b8160018151811061059b5761059b610e35565b6001600160a01b039092166020928302919091019091015292915050565b60006001600160801b038211156106265760405162461bcd60e51b815260206004820152602760248201527f53616665436173743a2076616c756520646f65736e27742066697420696e20316044820152663238206269747360c81b606482015260840160405180910390fd5b5090565b600082601f83011261063b57600080fd5b8135602061065061064b83610e11565b610de0565b8281528181019085830160608086028801850189101561066f57600080fd5b6000805b878110156106d05782848c031215610689578182fd5b610691610d4d565b843561069c81610e61565b81526106a9858901610864565b8882015260406106ba818701610876565b9082015286529486019492820192600101610673565b50929998505050505050505050565b803580151581146106ef57600080fd5b919050565b80356106ef81610e61565b600082601f83011261071057600080fd5b813567ffffffffffffffff81111561072a5761072a610e4b565b61073d601f8201601f1916602001610de0565b81815284602083860101111561075257600080fd5b816020850160208301376000918101602001919091529392505050565b600060a0828403121561078157600080fd5b610789610d76565b905061079482610876565b815260206107a3818401610876565b818301526107b360408401610864565b604083015260608301356001600160e01b03811681146107d257600080fd5b6060830152608083013567ffffffffffffffff8111156107f157600080fd5b8301601f8101851361080257600080fd5b803561081061064b82610e11565b80828252848201915084840188868560051b870101111561083057600080fd5b600094505b83851015610853578035835260019490940193918501918501610835565b506080860152509295945050505050565b803561ffff811681146106ef57600080fd5b803560ff811681146106ef57600080fd5b60006020828403121561089957600080fd5b81516108a481610e61565b9392505050565b60008060008084860360a08112156108c257600080fd5b60408112156108d057600080fd5b506108d9610d99565b85356108e481610e61565b8152602086810135908201529350604085013567ffffffffffffffff8082111561090d57600080fd5b90860190610160828903121561092257600080fd5b61092a610dbc565b610933836106f4565b8152602083013560208201526040830135604082015260608301358281111561095b57600080fd5b6109678a8286016106ff565b60608301525060808301358281111561097f57600080fd5b61098b8a8286016106ff565b60808301525060a0830135828111156109a357600080fd5b6109af8a8286016106ff565b60a08301525060c0830135828111156109c757600080fd5b6109d38a8286016106ff565b60c08301525060e083013560e08201526101008084013581830152506101208084013583811115610a0357600080fd5b610a0f8b82870161062a565b828401525050610140610a238185016106df565b9082015294506060870135915080821115610a3d57600080fd5b50610a4a8782880161076f565b925050610a5960808601610876565b905092959194509250565b600081518084526020808501945080840160005b83811015610aba57815180516001600160a01b031688528381015161ffff168489015260409081015160ff169088015260609096019590820190600101610a78565b509495945050505050565b6000815180845260005b81811015610aeb57602081850181015186830182015201610acf565b81811115610afd576000602083870101525b50601f01601f19169290920160200192915050565b600060a0830160ff8351168452602060ff81850151168186015261ffff604085015116604086015260018060e01b036060850151166060860152608084015160a0608087015282815180855260c0880191508383019450600092505b80831015610b8e5784518252938301936001929092019190830190610b6e565b509695505050505050565b6001600160a01b038616815260a0602082018190528551610bc4918301906001600160a01b03169052565b602085015160c0820152604085015160e0820152600060608601516101606101008181860152610bf8610200860184610ac5565b92506080890151609f19610120818887030181890152610c188684610ac5565b955060a08c015192506101408289880301818a0152610c378785610ac5565b965060c08d015193508289880301868a0152610c538785610ac5565b965060e08d01516101808a0152848d01516101a08a0152818d0151955082898803016101c08a0152610c858787610a64565b9650808d015195505050505050610ca16101e085018215159052565b508281036040840152610cb48187610b12565b915050610cc6606083018560ff169052565b6001600160a01b03831660808301529695505050505050565b6001600160a01b0385811682526080602080840182905286519184018290526000928782019290919060a0860190855b81811015610d2d578551851683529483019491830191600101610d0f565b505080945050508560408501528085166060850152505095945050505050565b6040516060810167ffffffffffffffff81118282101715610d7057610d70610e4b565b60405290565b60405160a0810167ffffffffffffffff81118282101715610d7057610d70610e4b565b6040805190810167ffffffffffffffff81118282101715610d7057610d70610e4b565b604051610160810167ffffffffffffffff81118282101715610d7057610d70610e4b565b604051601f8201601f1916810167ffffffffffffffff81118282101715610e0957610e09610e4b565b604052919050565b600067ffffffffffffffff821115610e2b57610e2b610e4b565b5060051b60200190565b634e487b7160e01b600052603260045260246000fd5b634e487b7160e01b600052604160045260246000fd5b6001600160a01b0381168114610e7657600080fd5b5056fea2646970667358221220a1adcf9c0a487868848379804ce12ecae1befa80a14f6baf72c16ee350a1af9a64736f6c63430008060033",
  "devdoc": {
    "kind": "dev",
    "methods": {},
    "version": 1
  },
  "userdoc": {
    "kind": "user",
    "methods": {},
    "version": 1
  },
  "storageLayout": {
    "storage": [
      {
        "astId": 8102,
        "contract": "contracts/builders/PoolClaimableDrawPrizeStrategyBuilder.sol:PoolClaimableDrawPrizeStrategyBuilder",
        "label": "reserveRegistry",
        "offset": 0,
        "slot": "0",
        "type": "t_contract(RegistryInterface)13468"
      },
      {
        "astId": 8105,
        "contract": "contracts/builders/PoolClaimableDrawPrizeStrategyBuilder.sol:PoolClaimableDrawPrizeStrategyBuilder",
        "label": "compoundPrizePoolProxyFactory",
        "offset": 0,
        "slot": "1",
        "type": "t_contract(CompoundPrizePoolProxyFactory)11074"
      },
      {
        "astId": 8108,
        "contract": "contracts/builders/PoolClaimableDrawPrizeStrategyBuilder.sol:PoolClaimableDrawPrizeStrategyBuilder",
        "label": "claimableDrawPrizeStrategyBuilder",
        "offset": 0,
        "slot": "2",
        "type": "t_contract(ClaimableDrawPrizeStrategyBuilder)7925"
      }
    ],
    "types": {
      "t_contract(ClaimableDrawPrizeStrategyBuilder)7925": {
        "encoding": "inplace",
        "label": "contract ClaimableDrawPrizeStrategyBuilder",
        "numberOfBytes": "20"
      },
      "t_contract(CompoundPrizePoolProxyFactory)11074": {
        "encoding": "inplace",
        "label": "contract CompoundPrizePoolProxyFactory",
        "numberOfBytes": "20"
      },
      "t_contract(RegistryInterface)13468": {
        "encoding": "inplace",
        "label": "contract RegistryInterface",
        "numberOfBytes": "20"
      }
    }
  }
}