{
  "address": "0x0165878A594ca255338adfa4d48449f69242Eb8F",
  "abi": [
    {
      "inputs": [],
      "stateMutability": "nonpayable",
      "type": "constructor"
    },
    {
      "anonymous": false,
      "inputs": [
        {
          "indexed": true,
          "internalType": "address",
          "name": "previousOwner",
          "type": "address"
        },
        {
          "indexed": true,
          "internalType": "address",
          "name": "newOwner",
          "type": "address"
        }
      ],
      "name": "OwnershipTransferred",
      "type": "event"
    },
    {
      "anonymous": false,
      "inputs": [
        {
          "indexed": true,
          "internalType": "address",
          "name": "pointer",
          "type": "address"
        }
      ],
      "name": "Registered",
      "type": "event"
    },
    {
      "inputs": [],
      "name": "lookup",
      "outputs": [
        {
          "internalType": "address",
          "name": "",
          "type": "address"
        }
      ],
      "stateMutability": "view",
      "type": "function"
    },
    {
      "inputs": [],
      "name": "owner",
      "outputs": [
        {
          "internalType": "address",
          "name": "",
          "type": "address"
        }
      ],
      "stateMutability": "view",
      "type": "function"
    },
    {
      "inputs": [
        {
          "internalType": "address",
          "name": "_pointer",
          "type": "address"
        }
      ],
      "name": "register",
      "outputs": [],
      "stateMutability": "nonpayable",
      "type": "function"
    },
    {
      "inputs": [],
      "name": "renounceOwnership",
      "outputs": [],
      "stateMutability": "nonpayable",
      "type": "function"
    },
    {
      "inputs": [
        {
          "internalType": "address",
          "name": "newOwner",
          "type": "address"
        }
      ],
      "name": "transferOwnership",
      "outputs": [],
      "stateMutability": "nonpayable",
      "type": "function"
    }
  ],
  "transactionHash": "0xdbab48b2892e96b2302d2e5c1886ab74bb74d1444a00ff6f82fe17c426aed5e4",
  "args": [],
  "solcInputHash": "7cdc182d41699770d1f19390689291f5",
  "bytecode": "0x608060405234801561001057600080fd5b5061001961001e565b610255565b600054610100900460ff1680610037575060005460ff16155b61008d5760405162461bcd60e51b815260206004820152602e602482015260008051602061056583398151915260448201526d191e481a5b9a5d1a585b1a5e995960921b60648201526084015b60405180910390fd5b600054610100900460ff161580156100af576000805461ffff19166101011790555b6100b76100d4565b6100bf610173565b80156100d1576000805461ff00191690555b50565b600054610100900460ff16806100ed575060005460ff16155b61013e5760405162461bcd60e51b815260206004820152602e602482015260008051602061056583398151915260448201526d191e481a5b9a5d1a585b1a5e995960921b6064820152608401610084565b600054610100900460ff161580156100bf576000805461ffff191661010117905580156100d1576000805461ff001916905550565b600054610100900460ff168061018c575060005460ff16155b6101dd5760405162461bcd60e51b815260206004820152602e602482015260008051602061056583398151915260448201526d191e481a5b9a5d1a585b1a5e995960921b6064820152608401610084565b600054610100900460ff161580156101ff576000805461ffff19166101011790555b6100bf33603380546001600160a01b038381166001600160a01b0319831681179093556040519116919082907f8be0079c531659141344cd1fd0a4f28419497f9722a3daafe3b4186f6b6457e090600090a35050565b610301806102646000396000f3fe608060405234801561001057600080fd5b50600436106100575760003560e01c80634420e4861461005c578063715018a6146100715780638da5cb5b14610079578063f2fde38b146100a2578063f5e3542b146100b5575b600080fd5b61006f61006a366004610266565b6100c6565b005b61006f610143565b6033546001600160a01b03165b6040516001600160a01b03909116815260200160405180910390f35b61006f6100b0366004610266565b610179565b6065546001600160a01b0316610086565b6033546001600160a01b031633146100f95760405162461bcd60e51b81526004016100f090610296565b60405180910390fd5b606580546001600160a01b0319166001600160a01b0383169081179091556040517f2d3734a8e47ac8316e500ac231c90a6e1848ca2285f40d07eaa52005e4b3a0e990600090a250565b6033546001600160a01b0316331461016d5760405162461bcd60e51b81526004016100f090610296565b6101776000610214565b565b6033546001600160a01b031633146101a35760405162461bcd60e51b81526004016100f090610296565b6001600160a01b0381166102085760405162461bcd60e51b815260206004820152602660248201527f4f776e61626c653a206e6577206f776e657220697320746865207a65726f206160448201526564647265737360d01b60648201526084016100f0565b61021181610214565b50565b603380546001600160a01b038381166001600160a01b0319831681179093556040519116919082907f8be0079c531659141344cd1fd0a4f28419497f9722a3daafe3b4186f6b6457e090600090a35050565b60006020828403121561027857600080fd5b81356001600160a01b038116811461028f57600080fd5b9392505050565b6020808252818101527f4f776e61626c653a2063616c6c6572206973206e6f7420746865206f776e657260408201526060019056fea2646970667358221220c0e815082c1f5eb239a99f3879584674ab71c6e9e1e1c62edde98ccfea4f1f1564736f6c63430008060033496e697469616c697a61626c653a20636f6e747261637420697320616c726561",
  "devdoc": {
    "kind": "dev",
    "methods": {
      "owner()": {
        "details": "Returns the address of the current owner."
      },
      "renounceOwnership()": {
        "details": "Leaves the contract without owner. It will not be possible to call `onlyOwner` functions anymore. Can only be called by the current owner. NOTE: Renouncing ownership will leave the contract without an owner, thereby removing any functionality that is only available to the owner."
      },
      "transferOwnership(address)": {
        "details": "Transfers ownership of the contract to a new account (`newOwner`). Can only be called by the current owner."
      }
    },
    "title": "Interface that allows a user to draw an address using an index",
    "version": 1
  },
  "userdoc": {
    "kind": "user",
    "methods": {},
    "version": 1
  },
  "storageLayout": {
    "storage": [
      {
        "astId": 130,
        "contract": "contracts/import/registry/Registry.sol:Registry",
        "label": "_initialized",
        "offset": 0,
        "slot": "0",
        "type": "t_bool"
      },
      {
        "astId": 133,
        "contract": "contracts/import/registry/Registry.sol:Registry",
        "label": "_initializing",
        "offset": 1,
        "slot": "0",
        "type": "t_bool"
      },
      {
        "astId": 2656,
        "contract": "contracts/import/registry/Registry.sol:Registry",
        "label": "__gap",
        "offset": 0,
        "slot": "1",
        "type": "t_array(t_uint256)50_storage"
      },
      {
        "astId": 10,
        "contract": "contracts/import/registry/Registry.sol:Registry",
        "label": "_owner",
        "offset": 0,
        "slot": "51",
        "type": "t_address"
      },
      {
        "astId": 123,
        "contract": "contracts/import/registry/Registry.sol:Registry",
        "label": "__gap",
        "offset": 0,
        "slot": "52",
        "type": "t_array(t_uint256)49_storage"
      },
      {
        "astId": 13464,
        "contract": "contracts/import/registry/Registry.sol:Registry",
        "label": "pointer",
        "offset": 0,
        "slot": "101",
        "type": "t_address"
      }
    ],
    "types": {
      "t_address": {
        "encoding": "inplace",
        "label": "address",
        "numberOfBytes": "20"
      },
      "t_array(t_uint256)49_storage": {
        "base": "t_uint256",
        "encoding": "inplace",
        "label": "uint256[49]",
        "numberOfBytes": "1568"
      },
      "t_array(t_uint256)50_storage": {
        "base": "t_uint256",
        "encoding": "inplace",
        "label": "uint256[50]",
        "numberOfBytes": "1600"
      },
      "t_bool": {
        "encoding": "inplace",
        "label": "bool",
        "numberOfBytes": "1"
      },
      "t_uint256": {
        "encoding": "inplace",
        "label": "uint256",
        "numberOfBytes": "32"
      }
    }
  }
}