{
  "address": "0x5FC8d32690cc91D4c39d9d3abcBD16989F875707",
  "abi": [
    {
      "inputs": [],
      "stateMutability": "nonpayable",
      "type": "constructor"
    },
    {
      "anonymous": false,
      "inputs": [
        {
          "indexed": true,
          "internalType": "address",
          "name": "previousOwner",
          "type": "address"
        },
        {
          "indexed": true,
          "internalType": "address",
          "name": "newOwner",
          "type": "address"
        }
      ],
      "name": "OwnershipTransferred",
      "type": "event"
    },
    {
      "anonymous": false,
      "inputs": [
        {
          "indexed": false,
          "internalType": "uint256",
          "name": "rateMantissa",
          "type": "uint256"
        }
      ],
      "name": "ReserveRateMantissaSet",
      "type": "event"
    },
    {
      "inputs": [],
      "name": "owner",
      "outputs": [
        {
          "internalType": "address",
          "name": "",
          "type": "address"
        }
      ],
      "stateMutability": "view",
      "type": "function"
    },
    {
      "inputs": [],
      "name": "rateMantissa",
      "outputs": [
        {
          "internalType": "uint256",
          "name": "",
          "type": "uint256"
        }
      ],
      "stateMutability": "view",
      "type": "function"
    },
    {
      "inputs": [],
      "name": "renounceOwnership",
      "outputs": [],
      "stateMutability": "nonpayable",
      "type": "function"
    },
    {
      "inputs": [
        {
          "internalType": "address",
          "name": "",
          "type": "address"
        }
      ],
      "name": "reserveRateMantissa",
      "outputs": [
        {
          "internalType": "uint256",
          "name": "",
          "type": "uint256"
        }
      ],
      "stateMutability": "view",
      "type": "function"
    },
    {
      "inputs": [
        {
          "internalType": "uint256",
          "name": "_rateMantissa",
          "type": "uint256"
        }
      ],
      "name": "setRateMantissa",
      "outputs": [],
      "stateMutability": "nonpayable",
      "type": "function"
    },
    {
      "inputs": [
        {
          "internalType": "address",
          "name": "newOwner",
          "type": "address"
        }
      ],
      "name": "transferOwnership",
      "outputs": [],
      "stateMutability": "nonpayable",
      "type": "function"
    },
    {
      "inputs": [
        {
          "internalType": "address",
          "name": "prizePool",
          "type": "address"
        },
        {
          "internalType": "address",
          "name": "to",
          "type": "address"
        }
      ],
      "name": "withdrawReserve",
      "outputs": [
        {
          "internalType": "uint256",
          "name": "",
          "type": "uint256"
        }
      ],
      "stateMutability": "nonpayable",
      "type": "function"
    }
  ],
  "transactionHash": "0xe656e06802075907e6489b6b46bb673d6f98c96de41023041453fc9486977ebf",
  "args": [],
  "solcInputHash": "7cdc182d41699770d1f19390689291f5",
  "bytecode": "0x608060405234801561001057600080fd5b5061001961001e565b610255565b600054610100900460ff1680610037575060005460ff16155b61008d5760405162461bcd60e51b815260206004820152602e60248201526000805160206106bc83398151915260448201526d191e481a5b9a5d1a585b1a5e995960921b60648201526084015b60405180910390fd5b600054610100900460ff161580156100af576000805461ffff19166101011790555b6100b76100d4565b6100bf610173565b80156100d1576000805461ff00191690555b50565b600054610100900460ff16806100ed575060005460ff16155b61013e5760405162461bcd60e51b815260206004820152602e60248201526000805160206106bc83398151915260448201526d191e481a5b9a5d1a585b1a5e995960921b6064820152608401610084565b600054610100900460ff161580156100bf576000805461ffff191661010117905580156100d1576000805461ff001916905550565b600054610100900460ff168061018c575060005460ff16155b6101dd5760405162461bcd60e51b815260206004820152602e60248201526000805160206106bc83398151915260448201526d191e481a5b9a5d1a585b1a5e995960921b6064820152608401610084565b600054610100900460ff161580156101ff576000805461ffff19166101011790555b6100bf33603380546001600160a01b038381166001600160a01b0319831681179093556040519116919082907f8be0079c531659141344cd1fd0a4f28419497f9722a3daafe3b4186f6b6457e090600090a35050565b610458806102646000396000f3fe608060405234801561001057600080fd5b506004361061007d5760003560e01c8063715018a61161005b578063715018a6146100c657806381b659d2146100d05780638da5cb5b146100e3578063f2fde38b146100fe57600080fd5b8063010dfa58146100825780633e0b06db146100aa57806361853b42146100b3575b600080fd5b61009761009036600461036d565b5060655490565b6040519081526020015b60405180910390f35b61009760655481565b6100976100c1366004610388565b610111565b6100ce6101c9565b005b6100ce6100de3660046103bb565b6101ff565b6033546040516001600160a01b0390911681526020016100a1565b6100ce61010c36600461036d565b610264565b6033546000906001600160a01b031633146101475760405162461bcd60e51b815260040161013e906103ed565b60405180910390fd5b6040516352a387ab60e01b81526001600160a01b0383811660048301528416906352a387ab90602401602060405180830381600087803b15801561018a57600080fd5b505af115801561019e573d6000803e3d6000fd5b505050506040513d601f19601f820116820180604052508101906101c291906103d4565b9392505050565b6033546001600160a01b031633146101f35760405162461bcd60e51b815260040161013e906103ed565b6101fd60006102ff565b565b6033546001600160a01b031633146102295760405162461bcd60e51b815260040161013e906103ed565b60658190556040518181527f596f4db485f9f39633eefcb1b04b10114fc6bc60e5feff327e5b2cace874129f9060200160405180910390a150565b6033546001600160a01b0316331461028e5760405162461bcd60e51b815260040161013e906103ed565b6001600160a01b0381166102f35760405162461bcd60e51b815260206004820152602660248201527f4f776e61626c653a206e6577206f776e657220697320746865207a65726f206160448201526564647265737360d01b606482015260840161013e565b6102fc816102ff565b50565b603380546001600160a01b038381166001600160a01b0319831681179093556040519116919082907f8be0079c531659141344cd1fd0a4f28419497f9722a3daafe3b4186f6b6457e090600090a35050565b80356001600160a01b038116811461036857600080fd5b919050565b60006020828403121561037f57600080fd5b6101c282610351565b6000806040838503121561039b57600080fd5b6103a483610351565b91506103b260208401610351565b90509250929050565b6000602082840312156103cd57600080fd5b5035919050565b6000602082840312156103e657600080fd5b5051919050565b6020808252818101527f4f776e61626c653a2063616c6c6572206973206e6f7420746865206f776e657260408201526060019056fea2646970667358221220fcf1a07b5da794acf3b7b558a2fe5b9e10d08a2a96b212d290e881158d7a3f9f64736f6c63430008060033496e697469616c697a61626c653a20636f6e747261637420697320616c726561",
  "devdoc": {
    "kind": "dev",
    "methods": {
      "owner()": {
        "details": "Returns the address of the current owner."
      },
      "renounceOwnership()": {
        "details": "Leaves the contract without owner. It will not be possible to call `onlyOwner` functions anymore. Can only be called by the current owner. NOTE: Renouncing ownership will leave the contract without an owner, thereby removing any functionality that is only available to the owner."
      },
      "transferOwnership(address)": {
        "details": "Transfers ownership of the contract to a new account (`newOwner`). Can only be called by the current owner."
      }
    },
    "title": "Interface that allows a user to draw an address using an index",
    "version": 1
  },
  "userdoc": {
    "kind": "user",
    "methods": {},
    "version": 1
  },
  "storageLayout": {
    "storage": [
      {
        "astId": 130,
        "contract": "contracts/import/reserve/Reserve.sol:Reserve",
        "label": "_initialized",
        "offset": 0,
        "slot": "0",
        "type": "t_bool"
      },
      {
        "astId": 133,
        "contract": "contracts/import/reserve/Reserve.sol:Reserve",
        "label": "_initializing",
        "offset": 1,
        "slot": "0",
        "type": "t_bool"
      },
      {
        "astId": 2656,
        "contract": "contracts/import/reserve/Reserve.sol:Reserve",
        "label": "__gap",
        "offset": 0,
        "slot": "1",
        "type": "t_array(t_uint256)50_storage"
      },
      {
        "astId": 10,
        "contract": "contracts/import/reserve/Reserve.sol:Reserve",
        "label": "_owner",
        "offset": 0,
        "slot": "51",
        "type": "t_address"
      },
      {
        "astId": 123,
        "contract": "contracts/import/reserve/Reserve.sol:Reserve",
        "label": "__gap",
        "offset": 0,
        "slot": "52",
        "type": "t_array(t_uint256)49_storage"
      },
      {
        "astId": 13526,
        "contract": "contracts/import/reserve/Reserve.sol:Reserve",
        "label": "rateMantissa",
        "offset": 0,
        "slot": "101",
        "type": "t_uint256"
      }
    ],
    "types": {
      "t_address": {
        "encoding": "inplace",
        "label": "address",
        "numberOfBytes": "20"
      },
      "t_array(t_uint256)49_storage": {
        "base": "t_uint256",
        "encoding": "inplace",
        "label": "uint256[49]",
        "numberOfBytes": "1568"
      },
      "t_array(t_uint256)50_storage": {
        "base": "t_uint256",
        "encoding": "inplace",
        "label": "uint256[50]",
        "numberOfBytes": "1600"
      },
      "t_bool": {
        "encoding": "inplace",
        "label": "bool",
        "numberOfBytes": "1"
      },
      "t_uint256": {
        "encoding": "inplace",
        "label": "uint256",
        "numberOfBytes": "32"
      }
    }
  }
}