{
  "address": "0xe7f1725E7734CE288F8367e1Bb143E90bb3F0512",
  "abi": [
    {
      "anonymous": false,
      "inputs": [
        {
          "indexed": true,
          "internalType": "uint32",
          "name": "requestId",
          "type": "uint32"
        },
        {
          "indexed": false,
          "internalType": "uint256",
          "name": "randomNumber",
          "type": "uint256"
        }
      ],
      "name": "RandomNumberCompleted",
      "type": "event"
    },
    {
      "anonymous": false,
      "inputs": [
        {
          "indexed": true,
          "internalType": "uint32",
          "name": "requestId",
          "type": "uint32"
        },
        {
          "indexed": true,
          "internalType": "address",
          "name": "sender",
          "type": "address"
        }
      ],
      "name": "RandomNumberRequested",
      "type": "event"
    },
    {
      "inputs": [],
      "name": "getLastRequestId",
      "outputs": [
        {
          "internalType": "uint32",
          "name": "requestId",
          "type": "uint32"
        }
      ],
      "stateMutability": "view",
      "type": "function"
    },
    {
      "inputs": [],
      "name": "getRequestFee",
      "outputs": [
        {
          "internalType": "address",
          "name": "_feeToken",
          "type": "address"
        },
        {
          "internalType": "uint256",
          "name": "_requestFee",
          "type": "uint256"
        }
      ],
      "stateMutability": "view",
      "type": "function"
    },
    {
      "inputs": [
        {
          "internalType": "uint32",
          "name": "",
          "type": "uint32"
        }
      ],
      "name": "isRequestComplete",
      "outputs": [
        {
          "internalType": "bool",
          "name": "",
          "type": "bool"
        }
      ],
      "stateMutability": "view",
      "type": "function"
    },
    {
      "inputs": [
        {
          "internalType": "uint32",
          "name": "",
          "type": "uint32"
        }
      ],
      "name": "randomNumber",
      "outputs": [
        {
          "internalType": "uint256",
          "name": "",
          "type": "uint256"
        }
      ],
      "stateMutability": "nonpayable",
      "type": "function"
    },
    {
      "inputs": [],
      "name": "requestRandomNumber",
      "outputs": [
        {
          "internalType": "uint32",
          "name": "",
          "type": "uint32"
        },
        {
          "internalType": "uint32",
          "name": "",
          "type": "uint32"
        }
      ],
      "stateMutability": "nonpayable",
      "type": "function"
    },
    {
      "inputs": [
        {
          "internalType": "uint256",
          "name": "_random",
          "type": "uint256"
        }
      ],
      "name": "setRandomNumber",
      "outputs": [],
      "stateMutability": "nonpayable",
      "type": "function"
    },
    {
      "inputs": [
        {
          "internalType": "address",
          "name": "_feeToken",
          "type": "address"
        },
        {
          "internalType": "uint256",
          "name": "_requestFee",
          "type": "uint256"
        }
      ],
      "name": "setRequestFee",
      "outputs": [],
      "stateMutability": "nonpayable",
      "type": "function"
    }
  ],
  "transactionHash": "0x73efef0e043b0a231151bf542751bee013f8127eb88ab9701e20e046531e2a11",
  "args": [],
  "solcInputHash": "7cdc182d41699770d1f19390689291f5",
  "bytecode": "0x608060405234801561001057600080fd5b50610224806100206000396000f3fe608060405234801561001057600080fd5b506004361061007d5760003560e01c80638678a7b21161005b5780638678a7b2146100f05780639d2a5f9814610104578063d6bfea2814610127578063de1760fd1461013c57600080fd5b80630d37b5371461008257806319c2b4c3146100bd5780633a19b9bc146100cc575b600080fd5b6100996001546002546001600160a01b0390911691565b604080516001600160a01b0390931683526020830191909152015b60405180910390f35b604051600181526020016100b4565b6100e06100da3660046101c1565b50600190565b60405190151581526020016100b4565b6040805160018082526020820152016100b4565b6101196101123660046101c1565b5060005490565b6040519081526020016100b4565b61013a6101353660046101a8565b600055565b005b61013a61014a366004610170565b600180546001600160a01b0319166001600160a01b039390931692909217909155600255565b6000806040838503121561018357600080fd5b82356001600160a01b038116811461019a57600080fd5b946020939093013593505050565b6000602082840312156101ba57600080fd5b5035919050565b6000602082840312156101d357600080fd5b813563ffffffff811681146101e757600080fd5b939250505056fea2646970667358221220af4e41b007a22ce9de8fee4ea47640bf88b1d9e63b8a02af59b524b8145f5ee264736f6c63430008060033",
  "devdoc": {
    "kind": "dev",
    "methods": {
      "getLastRequestId()": {
        "returns": {
          "requestId": "The last request id used in the last request"
        }
      },
      "getRequestFee()": {
        "returns": {
          "_feeToken": "_feeToken",
          "_requestFee": "_requestFee"
        }
      },
      "requestRandomNumber()": {
        "details": "Some services will complete the request immediately, others may have a time-delaySome services require payment in the form of a token, such as $LINK for Chainlink VRF",
        "returns": {
          "_0": "The ID of the request used to get the results of the RNG service",
          "_1": "The block number at which the RNG service will start generating time-delayed randomness.  The calling contract should \"lock\" all activity until the result is available via the `requestId`"
        }
      }
    },
    "version": 1
  },
  "userdoc": {
    "events": {
      "RandomNumberCompleted(uint32,uint256)": {
        "notice": "Emitted when an existing request for a random number has been completed"
      },
      "RandomNumberRequested(uint32,address)": {
        "notice": "Emitted when a new request for a random number has been submitted"
      }
    },
    "kind": "user",
    "methods": {
      "getLastRequestId()": {
        "notice": "Gets the last request id used by the RNG service"
      },
      "requestRandomNumber()": {
        "notice": "Sends a request for a random number to the 3rd-party service"
      }
    },
    "version": 1
  },
  "storageLayout": {
    "storage": [
      {
        "astId": 16398,
        "contract": "contracts/test/RNGServiceMock.sol:RNGServiceMock",
        "label": "random",
        "offset": 0,
        "slot": "0",
        "type": "t_uint256"
      },
      {
        "astId": 16400,
        "contract": "contracts/test/RNGServiceMock.sol:RNGServiceMock",
        "label": "feeToken",
        "offset": 0,
        "slot": "1",
        "type": "t_address"
      },
      {
        "astId": 16402,
        "contract": "contracts/test/RNGServiceMock.sol:RNGServiceMock",
        "label": "requestFee",
        "offset": 0,
        "slot": "2",
        "type": "t_uint256"
      }
    ],
    "types": {
      "t_address": {
        "encoding": "inplace",
        "label": "address",
        "numberOfBytes": "20"
      },
      "t_uint256": {
        "encoding": "inplace",
        "label": "uint256",
        "numberOfBytes": "32"
      }
    }
  }
}