{
  "address": "0x9fE46736679d2D9a65F0992F2272dE9f3c7fa6e0",
  "abi": [
    {
      "inputs": [],
      "stateMutability": "nonpayable",
      "type": "constructor"
    },
    {
      "anonymous": false,
      "inputs": [
        {
          "indexed": false,
          "internalType": "address",
          "name": "proxy",
          "type": "address"
        }
      ],
      "name": "ProxyCreated",
      "type": "event"
    },
    {
      "inputs": [],
      "name": "create",
      "outputs": [
        {
          "internalType": "contract Ticket",
          "name": "",
          "type": "address"
        }
      ],
      "stateMutability": "nonpayable",
      "type": "function"
    },
    {
      "inputs": [
        {
          "internalType": "address",
          "name": "_logic",
          "type": "address"
        },
        {
          "internalType": "bytes",
          "name": "_data",
          "type": "bytes"
        }
      ],
      "name": "deployMinimal",
      "outputs": [
        {
          "internalType": "address",
          "name": "proxy",
          "type": "address"
        }
      ],
      "stateMutability": "nonpayable",
      "type": "function"
    },
    {
      "inputs": [],
      "name": "instance",
      "outputs": [
        {
          "internalType": "contract Ticket",
          "name": "",
          "type": "address"
        }
      ],
      "stateMutability": "view",
      "type": "function"
    }
  ],
  "transactionHash": "0x8690bf2d62d0a1873fd02c00ebbd3aa42048e760e04942b7eaa246972e6ec049",
  "args": [],
  "solcInputHash": "b3f16b26ce5bbb86e7ef5bf9dd11ea21",
  "bytecode": "0x608060405234801561001057600080fd5b5060405161001d9061005f565b604051809103906000f080158015610039573d6000803e3d6000fd5b50600080546001600160a01b0319166001600160a01b039290921691909117905561006c565b6131ca806103e283390190565b6103678061007b6000396000f3fe608060405234801561001057600080fd5b50600436106100415760003560e01c8063022ec09514610046578063b3eeb5e214610075578063efc81a8c14610088575b600080fd5b600054610059906001600160a01b031681565b6040516001600160a01b03909116815260200160405180910390f35b610059610083366004610210565b610090565b6100596101e6565b6000808360601b9050604051733d602d80600a3d3981f3363d3d373d3d3d363d7360601b81528160148201526e5af43d82803e903d91602b57fd5bf360881b60288201526037816000f06040516001600160a01b03821681529093507efffc2da0b561cae30d9826d37709e9421c4725faebc226cbbb7ef5fc5e7349915060200160405180910390a18251156101df576000826001600160a01b03168460405161013a91906102e0565b6000604051808303816000865af19150503d8060008114610177576040519150601f19603f3d011682016040523d82523d6000602084013e61017c565b606091505b50509050806101dd5760405162461bcd60e51b8152602060048201526024808201527f50726f7879466163746f72792f636f6e7374727563746f722d63616c6c2d66616044820152631a5b195960e21b606482015260840160405180910390fd5b505b5092915050565b60008054604080516020810190915282815261020b916001600160a01b031690610090565b905090565b6000806040838503121561022357600080fd5b82356001600160a01b038116811461023a57600080fd5b9150602083013567ffffffffffffffff8082111561025757600080fd5b818501915085601f83011261026b57600080fd5b81358181111561027d5761027d61031b565b604051601f8201601f19908116603f011681019083821181831017156102a5576102a561031b565b816040528281528860208487010111156102be57600080fd5b8260208601602083013760006020848301015280955050505050509250929050565b6000825160005b8181101561030157602081860181015185830152016102e7565b81811115610310576000828501525b509190910192915050565b634e487b7160e01b600052604160045260246000fdfea2646970667358221220abbd91ee612265d8eb6f13d4e5c7ce17d52cacb48aa519e845535f47a3946d8064736f6c63430008060033608060405234801561001057600080fd5b506131aa806100206000396000f3fe608060405234801561001057600080fd5b50600436106101cf5760003560e01c8063715018a611610104578063a9059cbb116100a2578063dd62ed3e11610071578063dd62ed3e146103fe578063de7ea79d14610437578063f2fde38b1461044a578063f77c47911461045d57600080fd5b8063a9059cbb146103b2578063c0029bda146103c5578063cf42dca8146103d8578063d505accf146103eb57600080fd5b806390596dd1116100de57806390596dd11461036457806395d89b41146103775780639a156bd61461037f578063a457c2d71461039f57600080fd5b8063715018a6146103245780637ecebe001461032c5780638da5cb5b1461033f57600080fd5b8063395093511161017157806352fe30871161014b57806352fe3087146102cc5780635d7b0758146102e9578063631b5dfb146102fe57806370a082311461031157600080fd5b806339509351146102935780633c6292cd146102a65780634382b0f6146102b957600080fd5b80631d3b4dd6116101ad5780631d3b4dd61461022b57806323b872dd14610262578063313ce567146102755780633644e5151461028b57600080fd5b806306fdde03146101d4578063095ea7b3146101f257806318160ddd14610215575b600080fd5b6101dc610470565b6040516101e99190612e2b565b60405180910390f35b610205610200366004612bb8565b610502565b60405190151581526020016101e9565b61021d610518565b6040519081526020016101e9565b61023e610239366004612cef565b610531565b604080516001600160e01b03909316835263ffffffff9091166020830152016101e9565b610205610270366004612ab4565b61055f565b6101235460405160ff90911681526020016101e9565b61021d610610565b6102056102a1366004612bb8565b61061a565b61023e6102b4366004612bb8565b610656565b61021d6102c7366004612d08565b610692565b6102d4602081565b60405163ffffffff90911681526020016101e9565b6102fc6102f7366004612bb8565b6106a3565b005b6102fc61030c366004612ab4565b6106e4565b61021d61031f366004612a5e565b610781565b6102fc61078c565b61021d61033a366004612a5e565b6107f2565b60f0546001600160a01b03165b6040516001600160a01b0390911681526020016101e9565b6102fc610372366004612bb8565b610810565b6101dc61084d565b61039261038d366004612b63565b61085c565b6040516101e99190612d99565b6102056103ad366004612bb8565b61091a565b6102056103c0366004612bb8565b6109b3565b61021d6103d3366004612be4565b6109c0565b6103926103e6366004612c19565b6109cc565b6102fc6103f9366004612af5565b610a88565b61021d61040c366004612a7b565b6001600160a01b03918216600090815260346020908152604080832093909416825291909152205490565b6102fc610445366004612c5b565b610bce565b6102fc610458366004612a5e565b610e70565b60cc5461034c906001600160a01b031681565b60606036805461047f906130a3565b80601f01602080910402602001604051908101604052809291908181526020018280546104ab906130a3565b80156104f85780601f106104cd576101008083540402835291602001916104f8565b820191906000526020600020905b8154815290600101906020018083116104db57829003601f168201915b5050505050905090565b600061050f338484610f3b565b50600192915050565b600061052c60ef546001600160f01b031690565b905090565b60cf816020811061054157600080fd5b01546001600160e01b0381169150600160e01b900463ffffffff1682565b600061056c84848461105f565b6001600160a01b0384166000908152603460209081526040808320338452909152902054828110156105f65760405162461bcd60e51b815260206004820152602860248201527f45524332303a207472616e7366657220616d6f756e74206578636565647320616044820152676c6c6f77616e636560c01b60648201526084015b60405180910390fd5b6106038533858403610f3b565b60019150505b9392505050565b600061052c611326565b3360008181526034602090815260408083206001600160a01b0387168452909152812054909161050f918590610651908690612f77565b610f3b565b60cd602052816000526040600020816020811061067257600080fd5b01546001600160e01b0381169250600160e01b900463ffffffff16905082565b600061069d826113a1565b92915050565b60cc546001600160a01b0316336001600160a01b0316146106d65760405162461bcd60e51b81526004016105ed90612ed6565b6106e08282611426565b5050565b60cc546001600160a01b0316336001600160a01b0316146107175760405162461bcd60e51b81526004016105ed90612ed6565b816001600160a01b0316836001600160a01b031614610772576001600160a01b03828116600090815260346020908152604080832093871683529290529081205461076390839061306f565b9050610770838583610f3b565b505b61077c82826115fb565b505050565b600061069d8261183d565b60f0546001600160a01b031633146107e65760405162461bcd60e51b815260206004820181905260248201527f4f776e61626c653a2063616c6c6572206973206e6f7420746865206f776e657260448201526064016105ed565b6107f06000611861565b565b6001600160a01b03811660009081526099602052604081205461069d565b60cc546001600160a01b0316336001600160a01b0316146108435760405162461bcd60e51b81526004016105ed90612ed6565b6106e082826115fb565b60606037805461047f906130a3565b60608160008167ffffffffffffffff81111561087a5761087a613149565b6040519080825280602002602001820160405280156108a3578160200160208202803683370190505b50905060005b82811015610910576108e1878787848181106108c7576108c7613133565b90506020020160208101906108dc9190612d08565b6118b3565b8282815181106108f3576108f3613133565b602090810291909101015280610908816130d8565b9150506108a9565b5095945050505050565b3360009081526034602090815260408083206001600160a01b03861684529091528120548281101561099c5760405162461bcd60e51b815260206004820152602560248201527f45524332303a2064656372656173656420616c6c6f77616e63652062656c6f77604482015264207a65726f60d81b60648201526084016105ed565b6109a93385858403610f3b565b5060019392505050565b600061050f33848461105f565b600061060983836118b3565b60608160008167ffffffffffffffff8111156109ea576109ea613149565b604051908082528060200260200182016040528015610a13578160200160208202803683370190505b50905060005b82811015610a7f57610a50868683818110610a3657610a36613133565b9050602002016020810190610a4b9190612d08565b6113a1565b828281518110610a6257610a62613133565b602090810291909101015280610a77816130d8565b915050610a19565b50949350505050565b83421115610ad85760405162461bcd60e51b815260206004820152601d60248201527f45524332305065726d69743a206578706972656420646561646c696e6500000060448201526064016105ed565b6000609a54888888610ae98c61193d565b6040805160208101969096526001600160a01b0394851690860152929091166060840152608083015260a082015260c0810186905260e0016040516020818303038152906040528051906020012090506000610b4482611965565b90506000610b54828787876119b3565b9050896001600160a01b0316816001600160a01b031614610bb75760405162461bcd60e51b815260206004820152601e60248201527f45524332305065726d69743a20696e76616c6964207369676e6174757265000060448201526064016105ed565b610bc28a8a8a610f3b565b50505050505050505050565b600054610100900460ff1680610be7575060005460ff16155b610c035760405162461bcd60e51b81526004016105ed90612e88565b600054610100900460ff16158015610c25576000805461ffff19166101011790555b610c9887878080601f01602080910402602001604051908101604052809392919081815260200183838082843760009201919091525050604080516020601f8b018190048102820181019092528981529250899150889081908401838280828437600092019190915250611b5e92505050565b610ccc60405180604001604052806013815260200172141bdbdb151bd9d95d1a195c88151a58dad95d606a1b815250611bdd565b60008360ff1611610d1f5760405162461bcd60e51b815260206004820152601760248201527f5469636b65742f646563696d616c732d67742d7a65726f00000000000000000060448201526064016105ed565b610123805460ff191660ff8516179055610d37611c7d565b6001600160a01b038216610d985760405162461bcd60e51b815260206004820152602260248201527f5469636b65742f636f6e74726f6c6c65722d6e6f742d7a65726f2d6164647265604482015261737360f01b60648201526084016105ed565b610e1487878080601f01602080910402602001604051908101604052809392919081815260200183838082843760009201919091525050604080516020601f8b018190048102820181019092528981529250899150889081908401838280828437600092019190915250506101235460ff169150869050611cf8565b7f18bb14f696b97c9ff8d44ac723d7b0663bd32189c6e86b9f4cce10bceccbf489878787878787604051610e4d96959493929190612ddd565b60405180910390a18015610e67576000805461ff00191690555b50505050505050565b60f0546001600160a01b03163314610eca5760405162461bcd60e51b815260206004820181905260248201527f4f776e61626c653a2063616c6c6572206973206e6f7420746865206f776e657260448201526064016105ed565b6001600160a01b038116610f2f5760405162461bcd60e51b815260206004820152602660248201527f4f776e61626c653a206e6577206f776e657220697320746865207a65726f206160448201526564647265737360d01b60648201526084016105ed565b610f3881611861565b50565b6001600160a01b038316610f9d5760405162461bcd60e51b8152602060048201526024808201527f45524332303a20617070726f76652066726f6d20746865207a65726f206164646044820152637265737360e01b60648201526084016105ed565b6001600160a01b038216610ffe5760405162461bcd60e51b815260206004820152602260248201527f45524332303a20617070726f766520746f20746865207a65726f206164647265604482015261737360f01b60648201526084016105ed565b6001600160a01b0383811660008181526034602090815260408083209487168084529482529182902085905590518481527f8c5be1e5ebec7d5bd14f71427d1e84f3dd0314c0f7b2291e5b200ac8c7c3b925910160405180910390a3505050565b6001600160a01b0383166110c35760405162461bcd60e51b815260206004820152602560248201527f45524332303a207472616e736665722066726f6d20746865207a65726f206164604482015264647265737360d81b60648201526084016105ed565b6001600160a01b0382166111255760405162461bcd60e51b815260206004820152602360248201527f45524332303a207472616e7366657220746f20746865207a65726f206164647260448201526265737360e81b60648201526084016105ed565b80611131848483611e6a565b6001600160a01b038416600090815260ce60209081526040918290208251808401909352546001600160f01b03808216808552600160f01b90920461ffff169284019290925290831611156111d75760405162461bcd60e51b815260206004820152602660248201527f45524332303a207472616e7366657220616d6f756e7420657863656564732062604482015265616c616e636560d01b60648201526084016105ed565b6040518060400160405280838360000151036001600160f01b03168152602001611205878460200151611e75565b61ffff9081169091526001600160a01b03808816600090815260ce602090815260408083208651968301518616600160f01b9081026001600160f01b0398891617909155938a1683529182902082518084018452905495861681529290940490921692810192909252805180820190915281518190611285908690612f55565b6001600160f01b031681526020016112a1878460200151611e75565b61ffff9081169091526001600160a01b03878116600081815260ce6020908152604091829020865196820151909516600160f01b026001600160f01b039096169590951790935591518781529192908916917fddf252ad1be2c89b69c2b068fc378daa952ba7f163c4a11628f55a4df523b3ef910160405180910390a3505050505050565b600061052c7f8b73c3c69bb8fe3d512ecc4cf759cc79239f7b179b0ffacaa9a75d522b39400f61135560655490565b6066546040805160208101859052908101839052606081018290524660808201523060a082015260009060c0016040516020818303038152906040528051906020012090509392505050565b60408051610400810190915260009061069d9060cf602084835b828210156114025760408051808201909152848301546001600160e01b0381168252600160e01b900463ffffffff16602080830191909152908252600190920191016113bb565b505050508361141960ef546001600160f01b031690565b611421611f16565b611f4f565b6001600160a01b03821661147c5760405162461bcd60e51b815260206004820152601f60248201527f45524332303a206d696e7420746f20746865207a65726f20616464726573730060448201526064016105ed565b8061148960008483611e6a565b60408051808201825260ef546001600160f01b0381168252600160f01b900461ffff1660208201528151808301909252805190919081906114cb908590612f55565b6001600160f01b031681526020016114e683602001516120b4565b61ffff90811690915281516020928301518216600160f01b9081026001600160f01b039283161760ef556001600160a01b038816600090815260ce85526040908190208151808301835290549384168152919092049092169282019290925281518083019092528051909190819061155f908690612f55565b6001600160f01b0316815260200161157b878460200151611e75565b61ffff9081169091526001600160a01b038716600081815260ce60209081526040808320865196830151909516600160f01b026001600160f01b039096169590951790935592518781529092917fddf252ad1be2c89b69c2b068fc378daa952ba7f163c4a11628f55a4df523b3ef910160405180910390a35b5050505050565b6001600160a01b03821661165b5760405162461bcd60e51b815260206004820152602160248201527f45524332303a206275726e2066726f6d20746865207a65726f206164647265736044820152607360f81b60648201526084016105ed565b8061166883600083611e6a565b6001600160a01b038316600090815260ce60209081526040918290208251808401909352546001600160f01b03808216808552600160f01b90920461ffff1692840192909252908316111561170a5760405162461bcd60e51b815260206004820152602260248201527f45524332303a206275726e20616d6f756e7420657863656564732062616c616e604482015261636560f01b60648201526084016105ed565b6040518060400160405280838360000151036001600160f01b03168152602001611738868460200151611e75565b61ffff9081169091526001600160a01b038616600090815260ce60209081526040918290208451948201518416600160f01b9081026001600160f01b03968716179091558251808401845260ef5495861681529404909216918301919091528051808201909152815181906117ae90869061304f565b6001600160f01b031681526020016117c983602001516120b4565b61ffff908116909152815160209092015116600160f01b026001600160f01b039091161760ef556040516000906001600160a01b038716907fddf252ad1be2c89b69c2b068fc378daa952ba7f163c4a11628f55a4df523b3ef906118309088815260200190565b60405180910390a36115f4565b6001600160a01b0316600090815260ce60205260409020546001600160f01b031690565b60f080546001600160a01b038381166001600160a01b0319831681179093556040519116919082907f8be0079c531659141344cd1fd0a4f28419497f9722a3daafe3b4186f6b6457e090600090a35050565b6001600160a01b038216600090815260cd60209081526040808320815161040081019092526106099284835b828210156119265760408051808201909152848301546001600160e01b0381168252600160e01b900463ffffffff16602080830191909152908252600190920191016118df565b50505050836119348661183d565b61142187612136565b6001600160a01b03811660009081526099602052604090208054600181018255905b50919050565b600061069d611972611326565b8360405161190160f01b6020820152602281018390526042810182905260009060620160405160208183030381529060405280519060200120905092915050565b60007f7fffffffffffffffffffffffffffffff5d576e7357a4501ddfe92f46681b20a0821115611a305760405162461bcd60e51b815260206004820152602260248201527f45434453413a20696e76616c6964207369676e6174757265202773272076616c604482015261756560f01b60648201526084016105ed565b8360ff16601b1480611a4557508360ff16601c145b611a9c5760405162461bcd60e51b815260206004820152602260248201527f45434453413a20696e76616c6964207369676e6174757265202776272076616c604482015261756560f01b60648201526084016105ed565b6040805160008082526020820180845288905260ff871692820192909252606081018590526080810184905260019060a0016020604051602081039080840390855afa158015611af0573d6000803e3d6000fd5b5050604051601f1901519150506001600160a01b038116611b535760405162461bcd60e51b815260206004820152601860248201527f45434453413a20696e76616c6964207369676e6174757265000000000000000060448201526064016105ed565b90505b949350505050565b600054610100900460ff1680611b77575060005460ff16155b611b935760405162461bcd60e51b81526004016105ed90612e88565b600054610100900460ff16158015611bb5576000805461ffff19166101011790555b611bbd61216d565b611bc783836121d7565b801561077c576000805461ff0019169055505050565b600054610100900460ff1680611bf6575060005460ff16155b611c125760405162461bcd60e51b81526004016105ed90612e88565b600054610100900460ff16158015611c34576000805461ffff19166101011790555b611c3c61216d565b611c5f82604051806040016040528060018152602001603160f81b81525061226c565b611c68826122f6565b80156106e0576000805461ff00191690555050565b600054610100900460ff1680611c96575060005460ff16155b611cb25760405162461bcd60e51b81526004016105ed90612e88565b600054610100900460ff16158015611cd4576000805461ffff19166101011790555b611cdc61216d565b611ce4612386565b8015610f38576000805461ff001916905550565b600054610100900460ff1680611d11575060005460ff16155b611d2d5760405162461bcd60e51b81526004016105ed90612e88565b600054610100900460ff16158015611d4f576000805461ffff19166101011790555b6001600160a01b038216611db15760405162461bcd60e51b815260206004820152602360248201527f436f6e74726f6c6c6564546f6b656e2f636f6e74726f6c6c65722d6e6f742d7a60448201526265726f60e81b60648201526084016105ed565b611dbb8585611b5e565b611df96040518060400160405280601c81526020017f506f6f6c546f67657468657220436f6e74726f6c6c6564546f6b656e00000000815250611bdd565b60cc80546001600160a01b0319166001600160a01b0384161790556040517f41bc1176d7b9b7bc036f385a7e5b08b0662a7afa0844af8a599ad431150227e190611e4a908790879087908790612e3e565b60405180910390a180156115f4576000805461ff00191690555050505050565b61077c8383836123e6565b6001600160a01b038216600090815260cd6020526040812081908190611ea490611e9e8761183d565b86612450565b915091508361ffff168161ffff1614611b56576040805183516001600160e01b0316815260208085015163ffffffff16908201526001600160a01b038716917fdd3e7cd3a260a292b0b3306b2ca62f30a7349619a9d09c58109318774c6b627d910160405180910390a2949350505050565b60ef5460009061052c90600190611f3a90602090600160f01b900461ffff16612f8f565b611f449190613086565b63ffffffff16612585565b6000428163ffffffff80831690871611611f695785611f6b565b815b9050611f87604080518082019091526000808252602082015290565b6000888661ffff1660208110611f9f57611f9f613133565b60200201519050611fc58385836020015163ffffffff166125929092919063ffffffff16565b15611fd65786945050505050611b56565b88611fee611fe5886001612f0d565b61ffff16612585565b61ffff166020811061200257612002613133565b60200201519050806020015163ffffffff1660001415612020575087515b61203f8160200151858563ffffffff166126639092919063ffffffff16565b15612051576000945050505050611b56565b61205c89878a612730565b8151815191945091925060009161207291613027565b905060008260200151846020015161208a9190613086565b905061209c63ffffffff821683612fce565b6001600160e01b03169b9a5050505050505050505050565b60008060006120d060cf611e9e60ef546001600160f01b031690565b915091508361ffff168161ffff1614610609576040805183516001600160e01b0316815260208085015163ffffffff16908201527f3375b905d617084fa6b7531688cc8046feb1f1a0b8ba2273de03c59d8d84416c910160405180910390a19392505050565b6001600160a01b038116600090815260ce6020908152604082205461069d91600191611f3a9190600160f01b900461ffff16612f8f565b600054610100900460ff1680612186575060005460ff16155b6121a25760405162461bcd60e51b81526004016105ed90612e88565b600054610100900460ff16158015611ce4576000805461ffff19166101011790558015610f38576000805461ff001916905550565b600054610100900460ff16806121f0575060005460ff16155b61220c5760405162461bcd60e51b81526004016105ed90612e88565b600054610100900460ff1615801561222e576000805461ffff19166101011790555b8251612241906036906020860190612916565b508151612255906037906020850190612916565b50801561077c576000805461ff0019169055505050565b600054610100900460ff1680612285575060005460ff16155b6122a15760405162461bcd60e51b81526004016105ed90612e88565b600054610100900460ff161580156122c3576000805461ffff19166101011790555b8251602080850191909120835191840191909120606591909155606655801561077c576000805461ff0019169055505050565b600054610100900460ff168061230f575060005460ff16155b61232b5760405162461bcd60e51b81526004016105ed90612e88565b600054610100900460ff1615801561234d576000805461ffff19166101011790555b7f6e71edae12b1b97f4d1f60370fef10105fa2faae0126114a169c64845d6126c9609a5580156106e0576000805461ff00191690555050565b600054610100900460ff168061239f575060005460ff16155b6123bb5760405162461bcd60e51b81526004016105ed90612e88565b600054610100900460ff161580156123dd576000805461ffff19166101011790555b611ce433611861565b60cc54604051637cbab1c760e01b81526001600160a01b03858116600483015284811660248301526044820184905290911690637cbab1c790606401600060405180830381600087803b15801561243c57600080fd5b505af1158015610e67573d6000803e3d6000fd5b6040805180820190915260008082526020820152600042818661247d6001611f3a602061ffff8a16612f8f565b61ffff166020811061249157612491613133565b604080518082019091529101546001600160e01b038116825263ffffffff600160e01b909104811660208301819052919250831614156124d457925061257d9050565b60405180604001604052806125078360200151856124f29190613086565b6125029063ffffffff168a613008565b6128a9565b83516125139190612f33565b6001600160e01b031681526020018363ffffffff16815250935083878661ffff166020811061254457612544613133565b825160209093015163ffffffff16600160e01b026001600160e01b0390931692909217910155612578611fe5866001612f0d565b925050505b935093915050565b600061069d6020836130f3565b60008163ffffffff168463ffffffff16111580156125bc57508163ffffffff168363ffffffff1611155b156125d8578263ffffffff168463ffffffff1611159050610609565b60008263ffffffff168563ffffffff16116126075761260263ffffffff8616640100000000612fae565b61260f565b8463ffffffff165b64ffffffffff16905060008363ffffffff168563ffffffff16116126475761264263ffffffff8616640100000000612fae565b61264f565b8463ffffffff165b64ffffffffff169091111595945050505050565b60008163ffffffff168463ffffffff1610801561268b57508163ffffffff168363ffffffff16105b156126a6578263ffffffff168463ffffffff16109050610609565b60008263ffffffff168563ffffffff16116126d5576126d063ffffffff8616640100000000612fae565b6126dd565b8463ffffffff165b64ffffffffff16905060008363ffffffff168563ffffffff16116127155761271063ffffffff8616640100000000612fae565b61271d565b8463ffffffff165b64ffffffffff1690911095945050505050565b60408051808201909152600080825260208201526040805180820190915260008082526020820152426000612769611fe5876001612f0d565b61ffff1690506000600161277e602084612f77565b612788919061306f565b905060005b60026127998385612f77565b6127a39190612ff4565b9050886127af82612585565b61ffff16602081106127c3576127c3613133565b602002015195506000866020015190508063ffffffff16600014156127f5576127ed826001612f77565b93505061278d565b89612809612804846001612f77565b612585565b61ffff166020811061281d5761281d613133565b60200201519550600061283c63ffffffff808416908b90899061259216565b905080801561286557506128658760200151878b63ffffffff166126639092919063ffffffff16565b1561287157505061289d565b806128885761288160018461306f565b9350612896565b612893836001612f77565b94505b505061278d565b50505050935093915050565b60006001600160e01b038211156129125760405162461bcd60e51b815260206004820152602760248201527f53616665436173743a2076616c756520646f65736e27742066697420696e20326044820152663234206269747360c81b60648201526084016105ed565b5090565b828054612922906130a3565b90600052602060002090601f016020900481019282612944576000855561298a565b82601f1061295d57805160ff191683800117855561298a565b8280016001018555821561298a579182015b8281111561298a57825182559160200191906001019061296f565b506129129291505b808211156129125760008155600101612992565b60008083601f8401126129b857600080fd5b50813567ffffffffffffffff8111156129d057600080fd5b6020830191508360208260051b85010111156129eb57600080fd5b9250929050565b60008083601f840112612a0457600080fd5b50813567ffffffffffffffff811115612a1c57600080fd5b6020830191508360208285010111156129eb57600080fd5b803563ffffffff81168114612a4857600080fd5b919050565b803560ff81168114612a4857600080fd5b600060208284031215612a7057600080fd5b81356106098161315f565b60008060408385031215612a8e57600080fd5b8235612a998161315f565b91506020830135612aa98161315f565b809150509250929050565b600080600060608486031215612ac957600080fd5b8335612ad48161315f565b92506020840135612ae48161315f565b929592945050506040919091013590565b600080600080600080600060e0888a031215612b1057600080fd5b8735612b1b8161315f565b96506020880135612b2b8161315f565b95506040880135945060608801359350612b4760808901612a4d565b925060a0880135915060c0880135905092959891949750929550565b600080600060408486031215612b7857600080fd5b8335612b838161315f565b9250602084013567ffffffffffffffff811115612b9f57600080fd5b612bab868287016129a6565b9497909650939450505050565b60008060408385031215612bcb57600080fd5b8235612bd68161315f565b946020939093013593505050565b60008060408385031215612bf757600080fd5b8235612c028161315f565b9150612c1060208401612a34565b90509250929050565b60008060208385031215612c2c57600080fd5b823567ffffffffffffffff811115612c4357600080fd5b612c4f858286016129a6565b90969095509350505050565b60008060008060008060808789031215612c7457600080fd5b863567ffffffffffffffff80821115612c8c57600080fd5b612c988a838b016129f2565b90985096506020890135915080821115612cb157600080fd5b50612cbe89828a016129f2565b9095509350612cd1905060408801612a4d565b91506060870135612ce18161315f565b809150509295509295509295565b600060208284031215612d0157600080fd5b5035919050565b600060208284031215612d1a57600080fd5b61060982612a34565b81835281816020850137506000828201602090810191909152601f909101601f19169091010190565b6000815180845260005b81811015612d7257602081850181015186830182015201612d56565b81811115612d84576000602083870101525b50601f01601f19169290920160200192915050565b6020808252825182820181905260009190848201906040850190845b81811015612dd157835183529284019291840191600101612db5565b50909695505050505050565b608081526000612df160808301888a612d23565b8281036020840152612e04818789612d23565b60ff95909516604084015250506001600160a01b0391909116606090910152949350505050565b6020815260006106096020830184612d4c565b608081526000612e516080830187612d4c565b8281036020840152612e638187612d4c565b60ff95909516604084015250506001600160a01b039190911660609091015292915050565b6020808252602e908201527f496e697469616c697a61626c653a20636f6e747261637420697320616c72656160408201526d191e481a5b9a5d1a585b1a5e995960921b606082015260800190565b6020808252601f908201527f436f6e74726f6c6c6564546f6b656e2f6f6e6c792d636f6e74726f6c6c657200604082015260600190565b600061ffff808316818516808303821115612f2a57612f2a613107565b01949350505050565b60006001600160e01b03828116848216808303821115612f2a57612f2a613107565b60006001600160f01b03828116848216808303821115612f2a57612f2a613107565b60008219821115612f8a57612f8a613107565b500190565b600063ffffffff808316818516808303821115612f2a57612f2a613107565b600064ffffffffff808316818516808303821115612f2a57612f2a613107565b60006001600160e01b0383811680612fe857612fe861311d565b92169190910492915050565b6000826130035761300361311d565b500490565b600081600019048311821515161561302257613022613107565b500290565b60006001600160e01b038381169083168181101561304757613047613107565b039392505050565b60006001600160f01b038381169083168181101561304757613047613107565b60008282101561308157613081613107565b500390565b600063ffffffff8381169083168181101561304757613047613107565b600181811c908216806130b757607f821691505b6020821081141561195f57634e487b7160e01b600052602260045260246000fd5b60006000198214156130ec576130ec613107565b5060010190565b6000826131025761310261311d565b500690565b634e487b7160e01b600052601160045260246000fd5b634e487b7160e01b600052601260045260246000fd5b634e487b7160e01b600052603260045260246000fd5b634e487b7160e01b600052604160045260246000fd5b6001600160a01b0381168114610f3857600080fdfea2646970667358221220ea6b43e9f75331c04c464d309a709f6341cefe424d7a398ec19d4bd0406bc21564736f6c63430008060033",
  "devdoc": {
    "kind": "dev",
    "methods": {
      "create()": {
        "returns": {
          "_0": "A reference to the new proxied Controlled ERC20 Token"
        }
      }
    },
    "title": "Controlled ERC20 Token Factory",
    "version": 1
  },
  "userdoc": {
    "kind": "user",
    "methods": {
      "constructor": {
        "notice": "Initializes the Factory with an instance of the Controlled ERC20 Token"
      },
      "create()": {
        "notice": "Creates a new Controlled ERC20 Token as a proxy of the template instance"
      },
      "instance()": {
        "notice": "Contract template for deploying proxied tokens"
      }
    },
    "notice": "Minimal proxy pattern for creating new Controlled ERC20 Tokens",
    "version": 1
  },
  "storageLayout": {
    "storage": [
      {
        "astId": 6249,
        "contract": "contracts/TicketProxyFactory.sol:TicketProxyFactory",
        "label": "instance",
        "offset": 0,
        "slot": "0",
        "type": "t_contract(Ticket)6237"
      }
    ],
    "types": {
      "t_contract(Ticket)6237": {
        "encoding": "inplace",
        "label": "contract Ticket",
        "numberOfBytes": "20"
      }
    }
  }
}